{
	"contracts/ProductTracking.sol": {
		"ProductTracking": {
			"abi": [
				{
					"inputs": [],
					"stateMutability": "nonpayable",
					"type": "constructor"
				},
				{
					"anonymous": false,
					"inputs": [
						{
							"indexed": true,
							"internalType": "address",
							"name": "participant",
							"type": "address"
						}
					],
					"name": "AddressAddedToWhitelist",
					"type": "event"
				},
				{
					"anonymous": false,
					"inputs": [
						{
							"indexed": true,
							"internalType": "address",
							"name": "participant",
							"type": "address"
						}
					],
					"name": "AddressRemovedFromWhitelist",
					"type": "event"
				},
				{
					"anonymous": false,
					"inputs": [
						{
							"indexed": true,
							"internalType": "address",
							"name": "previousOwner",
							"type": "address"
						},
						{
							"indexed": true,
							"internalType": "address",
							"name": "newOwner",
							"type": "address"
						}
					],
					"name": "OwnershipTransferred",
					"type": "event"
				},
				{
					"anonymous": false,
					"inputs": [
						{
							"indexed": true,
							"internalType": "uint256",
							"name": "productId",
							"type": "uint256"
						},
						{
							"indexed": false,
							"internalType": "string",
							"name": "productName",
							"type": "string"
						},
						{
							"indexed": true,
							"internalType": "address",
							"name": "manufacturer",
							"type": "address"
						},
						{
							"indexed": false,
							"internalType": "uint256",
							"name": "lotId",
							"type": "uint256"
						}
					],
					"name": "ProductAdded",
					"type": "event"
				},
				{
					"anonymous": false,
					"inputs": [
						{
							"indexed": true,
							"internalType": "uint256",
							"name": "productId",
							"type": "uint256"
						},
						{
							"indexed": true,
							"internalType": "address",
							"name": "from",
							"type": "address"
						},
						{
							"indexed": true,
							"internalType": "address",
							"name": "to",
							"type": "address"
						}
					],
					"name": "ProductTransferred",
					"type": "event"
				},
				{
					"inputs": [
						{
							"internalType": "string",
							"name": "_productName",
							"type": "string"
						},
						{
							"internalType": "uint256",
							"name": "_lotId",
							"type": "uint256"
						}
					],
					"name": "addProduct",
					"outputs": [],
					"stateMutability": "nonpayable",
					"type": "function"
				},
				{
					"inputs": [
						{
							"internalType": "address",
							"name": "_participant",
							"type": "address"
						}
					],
					"name": "addToWhitelist",
					"outputs": [],
					"stateMutability": "nonpayable",
					"type": "function"
				},
				{
					"inputs": [
						{
							"internalType": "uint256",
							"name": "_productId",
							"type": "uint256"
						}
					],
					"name": "getProductDetails",
					"outputs": [
						{
							"components": [
								{
									"internalType": "uint256",
									"name": "productId",
									"type": "uint256"
								},
								{
									"internalType": "string",
									"name": "productName",
									"type": "string"
								},
								{
									"internalType": "uint256",
									"name": "lotId",
									"type": "uint256"
								},
								{
									"internalType": "address",
									"name": "manufacturer",
									"type": "address"
								},
								{
									"internalType": "address",
									"name": "currentOwner",
									"type": "address"
								},
								{
									"internalType": "uint256",
									"name": "purchaseDate",
									"type": "uint256"
								}
							],
							"internalType": "struct ProductTracking.Product",
							"name": "",
							"type": "tuple"
						}
					],
					"stateMutability": "view",
					"type": "function"
				},
				{
					"inputs": [
						{
							"internalType": "address",
							"name": "_participant",
							"type": "address"
						}
					],
					"name": "isWhitelisted",
					"outputs": [
						{
							"internalType": "bool",
							"name": "",
							"type": "bool"
						}
					],
					"stateMutability": "view",
					"type": "function"
				},
				{
					"inputs": [],
					"name": "owner",
					"outputs": [
						{
							"internalType": "address",
							"name": "",
							"type": "address"
						}
					],
					"stateMutability": "view",
					"type": "function"
				},
				{
					"inputs": [],
					"name": "productCounter",
					"outputs": [
						{
							"internalType": "uint256",
							"name": "",
							"type": "uint256"
						}
					],
					"stateMutability": "view",
					"type": "function"
				},
				{
					"inputs": [
						{
							"internalType": "uint256",
							"name": "",
							"type": "uint256"
						}
					],
					"name": "products",
					"outputs": [
						{
							"internalType": "uint256",
							"name": "productId",
							"type": "uint256"
						},
						{
							"internalType": "string",
							"name": "productName",
							"type": "string"
						},
						{
							"internalType": "uint256",
							"name": "lotId",
							"type": "uint256"
						},
						{
							"internalType": "address",
							"name": "manufacturer",
							"type": "address"
						},
						{
							"internalType": "address",
							"name": "currentOwner",
							"type": "address"
						},
						{
							"internalType": "uint256",
							"name": "purchaseDate",
							"type": "uint256"
						}
					],
					"stateMutability": "view",
					"type": "function"
				},
				{
					"inputs": [
						{
							"internalType": "address",
							"name": "_participant",
							"type": "address"
						}
					],
					"name": "removeFromWhitelist",
					"outputs": [],
					"stateMutability": "nonpayable",
					"type": "function"
				},
				{
					"inputs": [
						{
							"internalType": "address",
							"name": "newOwner",
							"type": "address"
						}
					],
					"name": "transferOwnership",
					"outputs": [],
					"stateMutability": "nonpayable",
					"type": "function"
				},
				{
					"inputs": [
						{
							"internalType": "uint256",
							"name": "_productId",
							"type": "uint256"
						},
						{
							"internalType": "address",
							"name": "_newOwner",
							"type": "address"
						}
					],
					"name": "transferProduct",
					"outputs": [],
					"stateMutability": "nonpayable",
					"type": "function"
				}
			],
			"devdoc": {
				"kind": "dev",
				"methods": {},
				"version": 1
			},
			"evm": {
				"assembly": "    /* \"contracts/ProductTracking.sol\":84:1903  contract ProductTracking is Whitelist {... */\n  mstore(0x40, 0x80)\n    /* \"contracts/ProductTracking.sol\":625:674  constructor() {... */\n  callvalue\n  dup1\n  iszero\n  tag_1\n  jumpi\n  0x00\n  dup1\n  revert\ntag_1:\n  pop\n    /* \"contracts/Ownership.sol\":231:241  msg.sender */\n  caller\n    /* \"contracts/Ownership.sol\":223:228  owner */\n  0x00\n  dup1\n    /* \"contracts/Ownership.sol\":223:241  owner = msg.sender */\n  0x0100\n  exp\n  dup2\n  sload\n  dup2\n  0xffffffffffffffffffffffffffffffffffffffff\n  mul\n  not\n  and\n  swap1\n  dup4\n  0xffffffffffffffffffffffffffffffffffffffff\n  and\n  mul\n  or\n  swap1\n  sstore\n  pop\n    /* \"contracts/Ownership.sol\":342:347  owner */\n  0x00\n  dup1\n  sload\n  swap1\n  0x0100\n  exp\n  swap1\n  div\n  0xffffffffffffffffffffffffffffffffffffffff\n  and\n    /* \"contracts/Ownership.sol\":309:348  OwnershipTransferred(address(0), owner) */\n  0xffffffffffffffffffffffffffffffffffffffff\n  and\n    /* \"contracts/Ownership.sol\":338:339  0 */\n  0x00\n    /* \"contracts/Ownership.sol\":309:348  OwnershipTransferred(address(0), owner) */\n  0xffffffffffffffffffffffffffffffffffffffff\n  and\n  0x8be0079c531659141344cd1fd0a4f28419497f9722a3daafe3b4186f6b6457e0\n  mload(0x40)\n  mload(0x40)\n  dup1\n  swap2\n  sub\n  swap1\n  log3\n    /* \"contracts/ProductTracking.sol\":666:667  0 */\n  0x00\n    /* \"contracts/ProductTracking.sol\":649:663  productCounter */\n  0x03\n    /* \"contracts/ProductTracking.sol\":649:667  productCounter = 0 */\n  dup2\n  swap1\n  sstore\n  pop\n    /* \"contracts/ProductTracking.sol\":84:1903  contract ProductTracking is Whitelist {... */\n  dataSize(sub_0)\n  dup1\n  dataOffset(sub_0)\n  0x00\n  codecopy\n  0x00\n  return\nstop\n\nsub_0: assembly {\n        /* \"contracts/ProductTracking.sol\":84:1903  contract ProductTracking is Whitelist {... */\n      mstore(0x40, 0x80)\n      callvalue\n      dup1\n      iszero\n      tag_1\n      jumpi\n      0x00\n      dup1\n      revert\n    tag_1:\n      pop\n      jumpi(tag_2, lt(calldatasize, 0x04))\n      shr(0xe0, calldataload(0x00))\n      dup1\n      0x8da5cb5b\n      gt\n      tag_13\n      jumpi\n      dup1\n      0x8da5cb5b\n      eq\n      tag_8\n      jumpi\n      dup1\n      0xb15247d9\n      eq\n      tag_9\n      jumpi\n      dup1\n      0xe43059e5\n      eq\n      tag_10\n      jumpi\n      dup1\n      0xe43252d7\n      eq\n      tag_11\n      jumpi\n      dup1\n      0xf2fde38b\n      eq\n      tag_12\n      jumpi\n      jump(tag_2)\n    tag_13:\n      dup1\n      0x1f16653b\n      eq\n      tag_3\n      jumpi\n      dup1\n      0x3af32abf\n      eq\n      tag_4\n      jumpi\n      dup1\n      0x6813b53b\n      eq\n      tag_5\n      jumpi\n      dup1\n      0x7acc0b20\n      eq\n      tag_6\n      jumpi\n      dup1\n      0x8ab1d681\n      eq\n      tag_7\n      jumpi\n    tag_2:\n      0x00\n      dup1\n      revert\n        /* \"contracts/ProductTracking.sol\":373:402  uint256 public productCounter */\n    tag_3:\n      tag_14\n      tag_15\n      jump\t// in\n    tag_14:\n      mload(0x40)\n      tag_16\n      swap2\n      swap1\n      tag_17\n      jump\t// in\n    tag_16:\n      mload(0x40)\n      dup1\n      swap2\n      sub\n      swap1\n      return\n        /* \"contracts/Whitelist.sol\":982:1112  function isWhitelisted(address _participant) public view returns (bool) {... */\n    tag_4:\n      tag_18\n      0x04\n      dup1\n      calldatasize\n      sub\n      dup2\n      add\n      swap1\n      tag_19\n      swap2\n      swap1\n      tag_20\n      jump\t// in\n    tag_19:\n      tag_21\n      jump\t// in\n    tag_18:\n      mload(0x40)\n      tag_22\n      swap2\n      swap1\n      tag_23\n      jump\t// in\n    tag_22:\n      mload(0x40)\n      dup1\n      swap2\n      sub\n      swap1\n      return\n        /* \"contracts/ProductTracking.sol\":1676:1901  function getProductDetails(uint256 _productId) public view returns (Product memory) {... */\n    tag_5:\n      tag_24\n      0x04\n      dup1\n      calldatasize\n      sub\n      dup2\n      add\n      swap1\n      tag_25\n      swap2\n      swap1\n      tag_26\n      jump\t// in\n    tag_25:\n      tag_27\n      jump\t// in\n    tag_24:\n      mload(0x40)\n      tag_28\n      swap2\n      swap1\n      tag_29\n      jump\t// in\n    tag_28:\n      mload(0x40)\n      dup1\n      swap2\n      sub\n      swap1\n      return\n        /* \"contracts/ProductTracking.sol\":324:367  mapping(uint256 => Product) public products */\n    tag_6:\n      tag_30\n      0x04\n      dup1\n      calldatasize\n      sub\n      dup2\n      add\n      swap1\n      tag_31\n      swap2\n      swap1\n      tag_26\n      jump\t// in\n    tag_31:\n      tag_32\n      jump\t// in\n    tag_30:\n      mload(0x40)\n      tag_33\n      swap7\n      swap6\n      swap5\n      swap4\n      swap3\n      swap2\n      swap1\n      tag_34\n      jump\t// in\n    tag_33:\n      mload(0x40)\n      dup1\n      swap2\n      sub\n      swap1\n      return\n        /* \"contracts/Whitelist.sol\":691:976  function removeFromWhitelist(address _participant) public onlyOwner {... */\n    tag_7:\n      tag_35\n      0x04\n      dup1\n      calldatasize\n      sub\n      dup2\n      add\n      swap1\n      tag_36\n      swap2\n      swap1\n      tag_20\n      jump\t// in\n    tag_36:\n      tag_37\n      jump\t// in\n    tag_35:\n      stop\n        /* \"contracts/Ownership.sol\":82:102  address public owner */\n    tag_8:\n      tag_38\n      tag_39\n      jump\t// in\n    tag_38:\n      mload(0x40)\n      tag_40\n      swap2\n      swap1\n      tag_41\n      jump\t// in\n    tag_40:\n      mload(0x40)\n      dup1\n      swap2\n      sub\n      swap1\n      return\n        /* \"contracts/ProductTracking.sol\":680:1210  function addProduct(... */\n    tag_9:\n      tag_42\n      0x04\n      dup1\n      calldatasize\n      sub\n      dup2\n      add\n      swap1\n      tag_43\n      swap2\n      swap1\n      tag_44\n      jump\t// in\n    tag_43:\n      tag_45\n      jump\t// in\n    tag_42:\n      stop\n        /* \"contracts/ProductTracking.sol\":1216:1670  function transferProduct(... */\n    tag_10:\n      tag_46\n      0x04\n      dup1\n      calldatasize\n      sub\n      dup2\n      add\n      swap1\n      tag_47\n      swap2\n      swap1\n      tag_48\n      jump\t// in\n    tag_47:\n      tag_49\n      jump\t// in\n    tag_46:\n      stop\n        /* \"contracts/Whitelist.sol\":315:685  function addToWhitelist(address _participant) public onlyOwner {... */\n    tag_11:\n      tag_50\n      0x04\n      dup1\n      calldatasize\n      sub\n      dup2\n      add\n      swap1\n      tag_51\n      swap2\n      swap1\n      tag_20\n      jump\t// in\n    tag_51:\n      tag_52\n      jump\t// in\n    tag_50:\n      stop\n        /* \"contracts/Ownership.sol\":480:710  function transferOwnership(address newOwner) public onlyOwner {... */\n    tag_12:\n      tag_53\n      0x04\n      dup1\n      calldatasize\n      sub\n      dup2\n      add\n      swap1\n      tag_54\n      swap2\n      swap1\n      tag_20\n      jump\t// in\n    tag_54:\n      tag_55\n      jump\t// in\n    tag_53:\n      stop\n        /* \"contracts/ProductTracking.sol\":373:402  uint256 public productCounter */\n    tag_15:\n      sload(0x03)\n      dup2\n      jump\t// out\n        /* \"contracts/Whitelist.sol\":982:1112  function isWhitelisted(address _participant) public view returns (bool) {... */\n    tag_21:\n        /* \"contracts/Whitelist.sol\":1048:1052  bool */\n      0x00\n        /* \"contracts/Whitelist.sol\":1071:1091  whitelistedAddresses */\n      0x01\n        /* \"contracts/Whitelist.sol\":1071:1105  whitelistedAddresses[_participant] */\n      0x00\n        /* \"contracts/Whitelist.sol\":1092:1104  _participant */\n      dup4\n        /* \"contracts/Whitelist.sol\":1071:1105  whitelistedAddresses[_participant] */\n      0xffffffffffffffffffffffffffffffffffffffff\n      and\n      0xffffffffffffffffffffffffffffffffffffffff\n      and\n      dup2\n      mstore\n      0x20\n      add\n      swap1\n      dup2\n      mstore\n      0x20\n      add\n      0x00\n      keccak256\n      0x00\n      swap1\n      sload\n      swap1\n      0x0100\n      exp\n      swap1\n      div\n      0xff\n      and\n        /* \"contracts/Whitelist.sol\":1064:1105  return whitelistedAddresses[_participant] */\n      swap1\n      pop\n        /* \"contracts/Whitelist.sol\":982:1112  function isWhitelisted(address _participant) public view returns (bool) {... */\n      swap2\n      swap1\n      pop\n      jump\t// out\n        /* \"contracts/ProductTracking.sol\":1676:1901  function getProductDetails(uint256 _productId) public view returns (Product memory) {... */\n    tag_27:\n        /* \"contracts/ProductTracking.sol\":1744:1758  Product memory */\n      tag_57\n      tag_58\n      jump\t// in\n    tag_57:\n        /* \"contracts/ProductTracking.sol\":1812:1813  0 */\n      0x00\n        /* \"contracts/ProductTracking.sol\":1778:1786  products */\n      0x02\n        /* \"contracts/ProductTracking.sol\":1778:1798  products[_productId] */\n      0x00\n        /* \"contracts/ProductTracking.sol\":1787:1797  _productId */\n      dup5\n        /* \"contracts/ProductTracking.sol\":1778:1798  products[_productId] */\n      dup2\n      mstore\n      0x20\n      add\n      swap1\n      dup2\n      mstore\n      0x20\n      add\n      0x00\n      keccak256\n        /* \"contracts/ProductTracking.sol\":1778:1808  products[_productId].productId */\n      0x00\n      add\n      sload\n        /* \"contracts/ProductTracking.sol\":1778:1813  products[_productId].productId != 0 */\n      sub\n        /* \"contracts/ProductTracking.sol\":1770:1857  require(products[_productId].productId != 0, \"ProductTracker: Product does not exist.\") */\n      tag_60\n      jumpi\n      mload(0x40)\n      0x08c379a000000000000000000000000000000000000000000000000000000000\n      dup2\n      mstore\n      0x04\n      add\n      tag_61\n      swap1\n      tag_62\n      jump\t// in\n    tag_61:\n      mload(0x40)\n      dup1\n      swap2\n      sub\n      swap1\n      revert\n    tag_60:\n        /* \"contracts/ProductTracking.sol\":1874:1882  products */\n      0x02\n        /* \"contracts/ProductTracking.sol\":1874:1894  products[_productId] */\n      0x00\n        /* \"contracts/ProductTracking.sol\":1883:1893  _productId */\n      dup4\n        /* \"contracts/ProductTracking.sol\":1874:1894  products[_productId] */\n      dup2\n      mstore\n      0x20\n      add\n      swap1\n      dup2\n      mstore\n      0x20\n      add\n      0x00\n      keccak256\n        /* \"contracts/ProductTracking.sol\":1867:1894  return products[_productId] */\n      mload(0x40)\n      dup1\n      0xc0\n      add\n      0x40\n      mstore\n      swap1\n      dup2\n      0x00\n      dup3\n      add\n      sload\n      dup2\n      mstore\n      0x20\n      add\n      0x01\n      dup3\n      add\n      dup1\n      sload\n      tag_63\n      swap1\n      tag_64\n      jump\t// in\n    tag_63:\n      dup1\n      0x1f\n      add\n      0x20\n      dup1\n      swap2\n      div\n      mul\n      0x20\n      add\n      mload(0x40)\n      swap1\n      dup2\n      add\n      0x40\n      mstore\n      dup1\n      swap3\n      swap2\n      swap1\n      dup2\n      dup2\n      mstore\n      0x20\n      add\n      dup3\n      dup1\n      sload\n      tag_65\n      swap1\n      tag_64\n      jump\t// in\n    tag_65:\n      dup1\n      iszero\n      tag_66\n      jumpi\n      dup1\n      0x1f\n      lt\n      tag_67\n      jumpi\n      0x0100\n      dup1\n      dup4\n      sload\n      div\n      mul\n      dup4\n      mstore\n      swap2\n      0x20\n      add\n      swap2\n      jump(tag_66)\n    tag_67:\n      dup3\n      add\n      swap2\n      swap1\n      0x00\n      mstore\n      keccak256(0x00, 0x20)\n      swap1\n    tag_68:\n      dup2\n      sload\n      dup2\n      mstore\n      swap1\n      0x01\n      add\n      swap1\n      0x20\n      add\n      dup1\n      dup4\n      gt\n      tag_68\n      jumpi\n      dup3\n      swap1\n      sub\n      0x1f\n      and\n      dup3\n      add\n      swap2\n    tag_66:\n      pop\n      pop\n      pop\n      pop\n      pop\n      dup2\n      mstore\n      0x20\n      add\n      0x02\n      dup3\n      add\n      sload\n      dup2\n      mstore\n      0x20\n      add\n      0x03\n      dup3\n      add\n      0x00\n      swap1\n      sload\n      swap1\n      0x0100\n      exp\n      swap1\n      div\n      0xffffffffffffffffffffffffffffffffffffffff\n      and\n      0xffffffffffffffffffffffffffffffffffffffff\n      and\n      0xffffffffffffffffffffffffffffffffffffffff\n      and\n      dup2\n      mstore\n      0x20\n      add\n      0x04\n      dup3\n      add\n      0x00\n      swap1\n      sload\n      swap1\n      0x0100\n      exp\n      swap1\n      div\n      0xffffffffffffffffffffffffffffffffffffffff\n      and\n      0xffffffffffffffffffffffffffffffffffffffff\n      and\n      0xffffffffffffffffffffffffffffffffffffffff\n      and\n      dup2\n      mstore\n      0x20\n      add\n      0x05\n      dup3\n      add\n      sload\n      dup2\n      mstore\n      pop\n      pop\n      swap1\n      pop\n        /* \"contracts/ProductTracking.sol\":1676:1901  function getProductDetails(uint256 _productId) public view returns (Product memory) {... */\n      swap2\n      swap1\n      pop\n      jump\t// out\n        /* \"contracts/ProductTracking.sol\":324:367  mapping(uint256 => Product) public products */\n    tag_32:\n      mstore(0x20, 0x02)\n      dup1\n      0x00\n      mstore\n      keccak256(0x00, 0x40)\n      0x00\n      swap2\n      pop\n      swap1\n      pop\n      dup1\n      0x00\n      add\n      sload\n      swap1\n      dup1\n      0x01\n      add\n      dup1\n      sload\n      tag_69\n      swap1\n      tag_64\n      jump\t// in\n    tag_69:\n      dup1\n      0x1f\n      add\n      0x20\n      dup1\n      swap2\n      div\n      mul\n      0x20\n      add\n      mload(0x40)\n      swap1\n      dup2\n      add\n      0x40\n      mstore\n      dup1\n      swap3\n      swap2\n      swap1\n      dup2\n      dup2\n      mstore\n      0x20\n      add\n      dup3\n      dup1\n      sload\n      tag_70\n      swap1\n      tag_64\n      jump\t// in\n    tag_70:\n      dup1\n      iszero\n      tag_71\n      jumpi\n      dup1\n      0x1f\n      lt\n      tag_72\n      jumpi\n      0x0100\n      dup1\n      dup4\n      sload\n      div\n      mul\n      dup4\n      mstore\n      swap2\n      0x20\n      add\n      swap2\n      jump(tag_71)\n    tag_72:\n      dup3\n      add\n      swap2\n      swap1\n      0x00\n      mstore\n      keccak256(0x00, 0x20)\n      swap1\n    tag_73:\n      dup2\n      sload\n      dup2\n      mstore\n      swap1\n      0x01\n      add\n      swap1\n      0x20\n      add\n      dup1\n      dup4\n      gt\n      tag_73\n      jumpi\n      dup3\n      swap1\n      sub\n      0x1f\n      and\n      dup3\n      add\n      swap2\n    tag_71:\n      pop\n      pop\n      pop\n      pop\n      pop\n      swap1\n      dup1\n      0x02\n      add\n      sload\n      swap1\n      dup1\n      0x03\n      add\n      0x00\n      swap1\n      sload\n      swap1\n      0x0100\n      exp\n      swap1\n      div\n      0xffffffffffffffffffffffffffffffffffffffff\n      and\n      swap1\n      dup1\n      0x04\n      add\n      0x00\n      swap1\n      sload\n      swap1\n      0x0100\n      exp\n      swap1\n      div\n      0xffffffffffffffffffffffffffffffffffffffff\n      and\n      swap1\n      dup1\n      0x05\n      add\n      sload\n      swap1\n      pop\n      dup7\n      jump\t// out\n        /* \"contracts/Whitelist.sol\":691:976  function removeFromWhitelist(address _participant) public onlyOwner {... */\n    tag_37:\n        /* \"contracts/Ownership.sol\":414:419  owner */\n      0x00\n      dup1\n      sload\n      swap1\n      0x0100\n      exp\n      swap1\n      div\n      0xffffffffffffffffffffffffffffffffffffffff\n      and\n        /* \"contracts/Ownership.sol\":400:419  msg.sender == owner */\n      0xffffffffffffffffffffffffffffffffffffffff\n      and\n        /* \"contracts/Ownership.sol\":400:410  msg.sender */\n      caller\n        /* \"contracts/Ownership.sol\":400:419  msg.sender == owner */\n      0xffffffffffffffffffffffffffffffffffffffff\n      and\n      eq\n        /* \"contracts/Ownership.sol\":392:456  require(msg.sender == owner, \"Ownable: caller is not the owner\") */\n      tag_75\n      jumpi\n      mload(0x40)\n      0x08c379a000000000000000000000000000000000000000000000000000000000\n      dup2\n      mstore\n      0x04\n      add\n      tag_76\n      swap1\n      tag_77\n      jump\t// in\n    tag_76:\n      mload(0x40)\n      dup1\n      swap2\n      sub\n      swap1\n      revert\n    tag_75:\n        /* \"contracts/Whitelist.sol\":777:797  whitelistedAddresses */\n      0x01\n        /* \"contracts/Whitelist.sol\":777:811  whitelistedAddresses[_participant] */\n      0x00\n        /* \"contracts/Whitelist.sol\":798:810  _participant */\n      dup3\n        /* \"contracts/Whitelist.sol\":777:811  whitelistedAddresses[_participant] */\n      0xffffffffffffffffffffffffffffffffffffffff\n      and\n      0xffffffffffffffffffffffffffffffffffffffff\n      and\n      dup2\n      mstore\n      0x20\n      add\n      swap1\n      dup2\n      mstore\n      0x20\n      add\n      0x00\n      keccak256\n      0x00\n      swap1\n      sload\n      swap1\n      0x0100\n      exp\n      swap1\n      div\n      0xff\n      and\n        /* \"contracts/Whitelist.sol\":769:860  require(whitelistedAddresses[_participant], \"WhitelistManager: Address is not whitelisted\") */\n      tag_79\n      jumpi\n      mload(0x40)\n      0x08c379a000000000000000000000000000000000000000000000000000000000\n      dup2\n      mstore\n      0x04\n      add\n      tag_80\n      swap1\n      tag_81\n      jump\t// in\n    tag_80:\n      mload(0x40)\n      dup1\n      swap2\n      sub\n      swap1\n      revert\n    tag_79:\n        /* \"contracts/Whitelist.sol\":908:913  false */\n      0x00\n        /* \"contracts/Whitelist.sol\":871:891  whitelistedAddresses */\n      0x01\n        /* \"contracts/Whitelist.sol\":871:905  whitelistedAddresses[_participant] */\n      0x00\n        /* \"contracts/Whitelist.sol\":892:904  _participant */\n      dup4\n        /* \"contracts/Whitelist.sol\":871:905  whitelistedAddresses[_participant] */\n      0xffffffffffffffffffffffffffffffffffffffff\n      and\n      0xffffffffffffffffffffffffffffffffffffffff\n      and\n      dup2\n      mstore\n      0x20\n      add\n      swap1\n      dup2\n      mstore\n      0x20\n      add\n      0x00\n      keccak256\n      0x00\n        /* \"contracts/Whitelist.sol\":871:913  whitelistedAddresses[_participant] = false */\n      0x0100\n      exp\n      dup2\n      sload\n      dup2\n      0xff\n      mul\n      not\n      and\n      swap1\n      dup4\n      iszero\n      iszero\n      mul\n      or\n      swap1\n      sstore\n      pop\n        /* \"contracts/Whitelist.sol\":956:968  _participant */\n      dup1\n        /* \"contracts/Whitelist.sol\":928:969  AddressRemovedFromWhitelist(_participant) */\n      0xffffffffffffffffffffffffffffffffffffffff\n      and\n      0x535611fb62fa2a833988f283b779e417e996813e44046f521d76c17b5943b08c\n      mload(0x40)\n      mload(0x40)\n      dup1\n      swap2\n      sub\n      swap1\n      log2\n        /* \"contracts/Whitelist.sol\":691:976  function removeFromWhitelist(address _participant) public onlyOwner {... */\n      pop\n      jump\t// out\n        /* \"contracts/Ownership.sol\":82:102  address public owner */\n    tag_39:\n      0x00\n      dup1\n      sload\n      swap1\n      0x0100\n      exp\n      swap1\n      div\n      0xffffffffffffffffffffffffffffffffffffffff\n      and\n      dup2\n      jump\t// out\n        /* \"contracts/ProductTracking.sol\":680:1210  function addProduct(... */\n    tag_45:\n        /* \"contracts/Whitelist.sol\":1163:1183  whitelistedAddresses */\n      0x01\n        /* \"contracts/Whitelist.sol\":1163:1195  whitelistedAddresses[msg.sender] */\n      0x00\n        /* \"contracts/Whitelist.sol\":1184:1194  msg.sender */\n      caller\n        /* \"contracts/Whitelist.sol\":1163:1195  whitelistedAddresses[msg.sender] */\n      0xffffffffffffffffffffffffffffffffffffffff\n      and\n      0xffffffffffffffffffffffffffffffffffffffff\n      and\n      dup2\n      mstore\n      0x20\n      add\n      swap1\n      dup2\n      mstore\n      0x20\n      add\n      0x00\n      keccak256\n      0x00\n      swap1\n      sload\n      swap1\n      0x0100\n      exp\n      swap1\n      div\n      0xff\n      and\n        /* \"contracts/Whitelist.sol\":1155:1240  require(whitelistedAddresses[msg.sender], \"WhitelistManager: You are not authorized\") */\n      tag_83\n      jumpi\n      mload(0x40)\n      0x08c379a000000000000000000000000000000000000000000000000000000000\n      dup2\n      mstore\n      0x04\n      add\n      tag_84\n      swap1\n      tag_85\n      jump\t// in\n    tag_84:\n      mload(0x40)\n      dup1\n      swap2\n      sub\n      swap1\n      revert\n    tag_83:\n        /* \"contracts/ProductTracking.sol\":799:813  productCounter */\n      0x03\n      0x00\n        /* \"contracts/ProductTracking.sol\":799:815  productCounter++ */\n      dup2\n      sload\n      dup1\n      swap3\n      swap2\n      swap1\n      tag_87\n      swap1\n      tag_88\n      jump\t// in\n    tag_87:\n      swap2\n      swap1\n      pop\n      sstore\n      pop\n        /* \"contracts/ProductTracking.sol\":825:842  uint256 productId */\n      0x00\n        /* \"contracts/ProductTracking.sol\":845:859  productCounter */\n      sload(0x03)\n        /* \"contracts/ProductTracking.sol\":825:859  uint256 productId = productCounter */\n      swap1\n      pop\n        /* \"contracts/ProductTracking.sol\":892:1130  Product({... */\n      mload(0x40)\n      dup1\n      0xc0\n      add\n      0x40\n      mstore\n      dup1\n        /* \"contracts/ProductTracking.sol\":925:934  productId */\n      dup3\n        /* \"contracts/ProductTracking.sol\":892:1130  Product({... */\n      dup2\n      mstore\n      0x20\n      add\n        /* \"contracts/ProductTracking.sol\":961:973  _productName */\n      dup5\n        /* \"contracts/ProductTracking.sol\":892:1130  Product({... */\n      dup2\n      mstore\n      0x20\n      add\n        /* \"contracts/ProductTracking.sol\":994:1000  _lotId */\n      dup4\n        /* \"contracts/ProductTracking.sol\":892:1130  Product({... */\n      dup2\n      mstore\n      0x20\n      add\n        /* \"contracts/ProductTracking.sol\":1028:1038  msg.sender */\n      caller\n        /* \"contracts/ProductTracking.sol\":892:1130  Product({... */\n      0xffffffffffffffffffffffffffffffffffffffff\n      and\n      dup2\n      mstore\n      0x20\n      add\n        /* \"contracts/ProductTracking.sol\":1066:1076  msg.sender */\n      caller\n        /* \"contracts/ProductTracking.sol\":892:1130  Product({... */\n      0xffffffffffffffffffffffffffffffffffffffff\n      and\n      dup2\n      mstore\n      0x20\n      add\n        /* \"contracts/ProductTracking.sol\":1104:1119  block.timestamp */\n      timestamp\n        /* \"contracts/ProductTracking.sol\":892:1130  Product({... */\n      dup2\n      mstore\n      pop\n        /* \"contracts/ProductTracking.sol\":870:878  products */\n      0x02\n        /* \"contracts/ProductTracking.sol\":870:889  products[productId] */\n      0x00\n        /* \"contracts/ProductTracking.sol\":879:888  productId */\n      dup4\n        /* \"contracts/ProductTracking.sol\":870:889  products[productId] */\n      dup2\n      mstore\n      0x20\n      add\n      swap1\n      dup2\n      mstore\n      0x20\n      add\n      0x00\n      keccak256\n        /* \"contracts/ProductTracking.sol\":870:1130  products[productId] = Product({... */\n      0x00\n      dup3\n      add\n      mload\n      dup2\n      0x00\n      add\n      sstore\n      0x20\n      dup3\n      add\n      mload\n      dup2\n      0x01\n      add\n      swap1\n      dup2\n      tag_89\n      swap2\n      swap1\n      tag_90\n      jump\t// in\n    tag_89:\n      pop\n      0x40\n      dup3\n      add\n      mload\n      dup2\n      0x02\n      add\n      sstore\n      0x60\n      dup3\n      add\n      mload\n      dup2\n      0x03\n      add\n      exp(0x0100, 0x00)\n      dup2\n      sload\n      dup2\n      0xffffffffffffffffffffffffffffffffffffffff\n      mul\n      not\n      and\n      swap1\n      dup4\n      0xffffffffffffffffffffffffffffffffffffffff\n      and\n      mul\n      or\n      swap1\n      sstore\n      pop\n      0x80\n      dup3\n      add\n      mload\n      dup2\n      0x04\n      add\n      exp(0x0100, 0x00)\n      dup2\n      sload\n      dup2\n      0xffffffffffffffffffffffffffffffffffffffff\n      mul\n      not\n      and\n      swap1\n      dup4\n      0xffffffffffffffffffffffffffffffffffffffff\n      and\n      mul\n      or\n      swap1\n      sstore\n      pop\n      0xa0\n      dup3\n      add\n      mload\n      dup2\n      0x05\n      add\n      sstore\n      swap1\n      pop\n      pop\n        /* \"contracts/ProductTracking.sol\":1184:1194  msg.sender */\n      caller\n        /* \"contracts/ProductTracking.sol\":1146:1203  ProductAdded(productId, _productName, msg.sender, _lotId) */\n      0xffffffffffffffffffffffffffffffffffffffff\n      and\n        /* \"contracts/ProductTracking.sol\":1159:1168  productId */\n      dup2\n        /* \"contracts/ProductTracking.sol\":1146:1203  ProductAdded(productId, _productName, msg.sender, _lotId) */\n      0x27053d27a5eb2a68ec20c3e8b30cbfbbe7bb019458aaac90ba4606956f97c8d6\n        /* \"contracts/ProductTracking.sol\":1170:1182  _productName */\n      dup6\n        /* \"contracts/ProductTracking.sol\":1196:1202  _lotId */\n      dup6\n        /* \"contracts/ProductTracking.sol\":1146:1203  ProductAdded(productId, _productName, msg.sender, _lotId) */\n      mload(0x40)\n      tag_91\n      swap3\n      swap2\n      swap1\n      tag_92\n      jump\t// in\n    tag_91:\n      mload(0x40)\n      dup1\n      swap2\n      sub\n      swap1\n      log3\n        /* \"contracts/ProductTracking.sol\":789:1210  {... */\n      pop\n        /* \"contracts/ProductTracking.sol\":680:1210  function addProduct(... */\n      pop\n      pop\n      jump\t// out\n        /* \"contracts/ProductTracking.sol\":1216:1670  function transferProduct(... */\n    tag_49:\n        /* \"contracts/ProductTracking.sol\":1364:1374  msg.sender */\n      caller\n        /* \"contracts/ProductTracking.sol\":1327:1374  products[_productId].currentOwner == msg.sender */\n      0xffffffffffffffffffffffffffffffffffffffff\n      and\n        /* \"contracts/ProductTracking.sol\":1327:1335  products */\n      0x02\n        /* \"contracts/ProductTracking.sol\":1327:1347  products[_productId] */\n      0x00\n        /* \"contracts/ProductTracking.sol\":1336:1346  _productId */\n      dup5\n        /* \"contracts/ProductTracking.sol\":1327:1347  products[_productId] */\n      dup2\n      mstore\n      0x20\n      add\n      swap1\n      dup2\n      mstore\n      0x20\n      add\n      0x00\n      keccak256\n        /* \"contracts/ProductTracking.sol\":1327:1360  products[_productId].currentOwner */\n      0x04\n      add\n      0x00\n      swap1\n      sload\n      swap1\n      0x0100\n      exp\n      swap1\n      div\n      0xffffffffffffffffffffffffffffffffffffffff\n      and\n        /* \"contracts/ProductTracking.sol\":1327:1374  products[_productId].currentOwner == msg.sender */\n      0xffffffffffffffffffffffffffffffffffffffff\n      and\n      eq\n        /* \"contracts/ProductTracking.sol\":1319:1443  require(products[_productId].currentOwner == msg.sender, \"ProductTracker: Only the current owner can transfer this product\") */\n      tag_94\n      jumpi\n      mload(0x40)\n      0x08c379a000000000000000000000000000000000000000000000000000000000\n      dup2\n      mstore\n      0x04\n      add\n      tag_95\n      swap1\n      tag_96\n      jump\t// in\n    tag_95:\n      mload(0x40)\n      dup1\n      swap2\n      sub\n      swap1\n      revert\n    tag_94:\n        /* \"contracts/ProductTracking.sol\":1482:1483  0 */\n      0x00\n        /* \"contracts/ProductTracking.sol\":1461:1484  _newOwner != address(0) */\n      0xffffffffffffffffffffffffffffffffffffffff\n      and\n        /* \"contracts/ProductTracking.sol\":1461:1470  _newOwner */\n      dup2\n        /* \"contracts/ProductTracking.sol\":1461:1484  _newOwner != address(0) */\n      0xffffffffffffffffffffffffffffffffffffffff\n      and\n      sub\n        /* \"contracts/ProductTracking.sol\":1453:1538  require(_newOwner != address(0), \"ProductTracker: New owner address cannot be zero.\") */\n      tag_97\n      jumpi\n      mload(0x40)\n      0x08c379a000000000000000000000000000000000000000000000000000000000\n      dup2\n      mstore\n      0x04\n      add\n      tag_98\n      swap1\n      tag_99\n      jump\t// in\n    tag_98:\n      mload(0x40)\n      dup1\n      swap2\n      sub\n      swap1\n      revert\n    tag_97:\n        /* \"contracts/ProductTracking.sol\":1585:1594  _newOwner */\n      dup1\n        /* \"contracts/ProductTracking.sol\":1549:1557  products */\n      0x02\n        /* \"contracts/ProductTracking.sol\":1549:1569  products[_productId] */\n      0x00\n        /* \"contracts/ProductTracking.sol\":1558:1568  _productId */\n      dup5\n        /* \"contracts/ProductTracking.sol\":1549:1569  products[_productId] */\n      dup2\n      mstore\n      0x20\n      add\n      swap1\n      dup2\n      mstore\n      0x20\n      add\n      0x00\n      keccak256\n        /* \"contracts/ProductTracking.sol\":1549:1582  products[_productId].currentOwner */\n      0x04\n      add\n      0x00\n        /* \"contracts/ProductTracking.sol\":1549:1594  products[_productId].currentOwner = _newOwner */\n      0x0100\n      exp\n      dup2\n      sload\n      dup2\n      0xffffffffffffffffffffffffffffffffffffffff\n      mul\n      not\n      and\n      swap1\n      dup4\n      0xffffffffffffffffffffffffffffffffffffffff\n      and\n      mul\n      or\n      swap1\n      sstore\n      pop\n        /* \"contracts/ProductTracking.sol\":1653:1662  _newOwner */\n      dup1\n        /* \"contracts/ProductTracking.sol\":1610:1663  ProductTransferred(_productId, msg.sender, _newOwner) */\n      0xffffffffffffffffffffffffffffffffffffffff\n      and\n        /* \"contracts/ProductTracking.sol\":1641:1651  msg.sender */\n      caller\n        /* \"contracts/ProductTracking.sol\":1610:1663  ProductTransferred(_productId, msg.sender, _newOwner) */\n      0xffffffffffffffffffffffffffffffffffffffff\n      and\n        /* \"contracts/ProductTracking.sol\":1629:1639  _productId */\n      dup4\n        /* \"contracts/ProductTracking.sol\":1610:1663  ProductTransferred(_productId, msg.sender, _newOwner) */\n      0xcef86d37ba3dc1d682967cde44d8050488734bf53166725b220b4d2e515e9e93\n      mload(0x40)\n      mload(0x40)\n      dup1\n      swap2\n      sub\n      swap1\n      log4\n        /* \"contracts/ProductTracking.sol\":1216:1670  function transferProduct(... */\n      pop\n      pop\n      jump\t// out\n        /* \"contracts/Whitelist.sol\":315:685  function addToWhitelist(address _participant) public onlyOwner {... */\n    tag_52:\n        /* \"contracts/Ownership.sol\":414:419  owner */\n      0x00\n      dup1\n      sload\n      swap1\n      0x0100\n      exp\n      swap1\n      div\n      0xffffffffffffffffffffffffffffffffffffffff\n      and\n        /* \"contracts/Ownership.sol\":400:419  msg.sender == owner */\n      0xffffffffffffffffffffffffffffffffffffffff\n      and\n        /* \"contracts/Ownership.sol\":400:410  msg.sender */\n      caller\n        /* \"contracts/Ownership.sol\":400:419  msg.sender == owner */\n      0xffffffffffffffffffffffffffffffffffffffff\n      and\n      eq\n        /* \"contracts/Ownership.sol\":392:456  require(msg.sender == owner, \"Ownable: caller is not the owner\") */\n      tag_101\n      jumpi\n      mload(0x40)\n      0x08c379a000000000000000000000000000000000000000000000000000000000\n      dup2\n      mstore\n      0x04\n      add\n      tag_102\n      swap1\n      tag_77\n      jump\t// in\n    tag_102:\n      mload(0x40)\n      dup1\n      swap2\n      sub\n      swap1\n      revert\n    tag_101:\n        /* \"contracts/Whitelist.sol\":420:421  0 */\n      0x00\n        /* \"contracts/Whitelist.sol\":396:422  _participant != address(0) */\n      0xffffffffffffffffffffffffffffffffffffffff\n      and\n        /* \"contracts/Whitelist.sol\":396:408  _participant */\n      dup2\n        /* \"contracts/Whitelist.sol\":396:422  _participant != address(0) */\n      0xffffffffffffffffffffffffffffffffffffffff\n      and\n      sub\n        /* \"contracts/Whitelist.sol\":388:468  require(_participant != address(0), \"WhitelistManager: Cannot add zero address\") */\n      tag_104\n      jumpi\n      mload(0x40)\n      0x08c379a000000000000000000000000000000000000000000000000000000000\n      dup2\n      mstore\n      0x04\n      add\n      tag_105\n      swap1\n      tag_106\n      jump\t// in\n    tag_105:\n      mload(0x40)\n      dup1\n      swap2\n      sub\n      swap1\n      revert\n    tag_104:\n        /* \"contracts/Whitelist.sol\":487:507  whitelistedAddresses */\n      0x01\n        /* \"contracts/Whitelist.sol\":487:521  whitelistedAddresses[_participant] */\n      0x00\n        /* \"contracts/Whitelist.sol\":508:520  _participant */\n      dup3\n        /* \"contracts/Whitelist.sol\":487:521  whitelistedAddresses[_participant] */\n      0xffffffffffffffffffffffffffffffffffffffff\n      and\n      0xffffffffffffffffffffffffffffffffffffffff\n      and\n      dup2\n      mstore\n      0x20\n      add\n      swap1\n      dup2\n      mstore\n      0x20\n      add\n      0x00\n      keccak256\n      0x00\n      swap1\n      sload\n      swap1\n      0x0100\n      exp\n      swap1\n      div\n      0xff\n      and\n        /* \"contracts/Whitelist.sol\":486:521  !whitelistedAddresses[_participant] */\n      iszero\n        /* \"contracts/Whitelist.sol\":478:574  require(!whitelistedAddresses[_participant], \"WhitelistManager: Address is already whitelisted\") */\n      tag_107\n      jumpi\n      mload(0x40)\n      0x08c379a000000000000000000000000000000000000000000000000000000000\n      dup2\n      mstore\n      0x04\n      add\n      tag_108\n      swap1\n      tag_109\n      jump\t// in\n    tag_108:\n      mload(0x40)\n      dup1\n      swap2\n      sub\n      swap1\n      revert\n    tag_107:\n        /* \"contracts/Whitelist.sol\":622:626  true */\n      0x01\n        /* \"contracts/Whitelist.sol\":585:605  whitelistedAddresses */\n      dup1\n        /* \"contracts/Whitelist.sol\":585:619  whitelistedAddresses[_participant] */\n      0x00\n        /* \"contracts/Whitelist.sol\":606:618  _participant */\n      dup4\n        /* \"contracts/Whitelist.sol\":585:619  whitelistedAddresses[_participant] */\n      0xffffffffffffffffffffffffffffffffffffffff\n      and\n      0xffffffffffffffffffffffffffffffffffffffff\n      and\n      dup2\n      mstore\n      0x20\n      add\n      swap1\n      dup2\n      mstore\n      0x20\n      add\n      0x00\n      keccak256\n      0x00\n        /* \"contracts/Whitelist.sol\":585:626  whitelistedAddresses[_participant] = true */\n      0x0100\n      exp\n      dup2\n      sload\n      dup2\n      0xff\n      mul\n      not\n      and\n      swap1\n      dup4\n      iszero\n      iszero\n      mul\n      or\n      swap1\n      sstore\n      pop\n        /* \"contracts/Whitelist.sol\":665:677  _participant */\n      dup1\n        /* \"contracts/Whitelist.sol\":641:678  AddressAddedToWhitelist(_participant) */\n      0xffffffffffffffffffffffffffffffffffffffff\n      and\n      0x534d18c8ff24ba5980906d732f3075704749427353734fbbf05d50485643b124\n      mload(0x40)\n      mload(0x40)\n      dup1\n      swap2\n      sub\n      swap1\n      log2\n        /* \"contracts/Whitelist.sol\":315:685  function addToWhitelist(address _participant) public onlyOwner {... */\n      pop\n      jump\t// out\n        /* \"contracts/Ownership.sol\":480:710  function transferOwnership(address newOwner) public onlyOwner {... */\n    tag_55:\n        /* \"contracts/Ownership.sol\":414:419  owner */\n      0x00\n      dup1\n      sload\n      swap1\n      0x0100\n      exp\n      swap1\n      div\n      0xffffffffffffffffffffffffffffffffffffffff\n      and\n        /* \"contracts/Ownership.sol\":400:419  msg.sender == owner */\n      0xffffffffffffffffffffffffffffffffffffffff\n      and\n        /* \"contracts/Ownership.sol\":400:410  msg.sender */\n      caller\n        /* \"contracts/Ownership.sol\":400:419  msg.sender == owner */\n      0xffffffffffffffffffffffffffffffffffffffff\n      and\n      eq\n        /* \"contracts/Ownership.sol\":392:456  require(msg.sender == owner, \"Ownable: caller is not the owner\") */\n      tag_111\n      jumpi\n      mload(0x40)\n      0x08c379a000000000000000000000000000000000000000000000000000000000\n      dup2\n      mstore\n      0x04\n      add\n      tag_112\n      swap1\n      tag_77\n      jump\t// in\n    tag_112:\n      mload(0x40)\n      dup1\n      swap2\n      sub\n      swap1\n      revert\n    tag_111:\n        /* \"contracts/Ownership.sol\":580:581  0 */\n      0x00\n        /* \"contracts/Ownership.sol\":560:582  newOwner != address(0) */\n      0xffffffffffffffffffffffffffffffffffffffff\n      and\n        /* \"contracts/Ownership.sol\":560:568  newOwner */\n      dup2\n        /* \"contracts/Ownership.sol\":560:582  newOwner != address(0) */\n      0xffffffffffffffffffffffffffffffffffffffff\n      and\n      sub\n        /* \"contracts/Ownership.sol\":552:625  require(newOwner != address(0), \"Ownable: new owner is the zero address\") */\n      tag_114\n      jumpi\n      mload(0x40)\n      0x08c379a000000000000000000000000000000000000000000000000000000000\n      dup2\n      mstore\n      0x04\n      add\n      tag_115\n      swap1\n      tag_116\n      jump\t// in\n    tag_115:\n      mload(0x40)\n      dup1\n      swap2\n      sub\n      swap1\n      revert\n    tag_114:\n        /* \"contracts/Ownership.sol\":668:676  newOwner */\n      dup1\n        /* \"contracts/Ownership.sol\":640:677  OwnershipTransferred(owner, newOwner) */\n      0xffffffffffffffffffffffffffffffffffffffff\n      and\n        /* \"contracts/Ownership.sol\":661:666  owner */\n      0x00\n      dup1\n      sload\n      swap1\n      0x0100\n      exp\n      swap1\n      div\n      0xffffffffffffffffffffffffffffffffffffffff\n      and\n        /* \"contracts/Ownership.sol\":640:677  OwnershipTransferred(owner, newOwner) */\n      0xffffffffffffffffffffffffffffffffffffffff\n      and\n      0x8be0079c531659141344cd1fd0a4f28419497f9722a3daafe3b4186f6b6457e0\n      mload(0x40)\n      mload(0x40)\n      dup1\n      swap2\n      sub\n      swap1\n      log3\n        /* \"contracts/Ownership.sol\":695:703  newOwner */\n      dup1\n        /* \"contracts/Ownership.sol\":687:692  owner */\n      0x00\n      dup1\n        /* \"contracts/Ownership.sol\":687:703  owner = newOwner */\n      0x0100\n      exp\n      dup2\n      sload\n      dup2\n      0xffffffffffffffffffffffffffffffffffffffff\n      mul\n      not\n      and\n      swap1\n      dup4\n      0xffffffffffffffffffffffffffffffffffffffff\n      and\n      mul\n      or\n      swap1\n      sstore\n      pop\n        /* \"contracts/Ownership.sol\":480:710  function transferOwnership(address newOwner) public onlyOwner {... */\n      pop\n      jump\t// out\n    tag_58:\n      mload(0x40)\n      dup1\n      0xc0\n      add\n      0x40\n      mstore\n      dup1\n      0x00\n      dup2\n      mstore\n      0x20\n      add\n      0x60\n      dup2\n      mstore\n      0x20\n      add\n      0x00\n      dup2\n      mstore\n      0x20\n      add\n      and(0xffffffffffffffffffffffffffffffffffffffff, 0x00)\n      dup2\n      mstore\n      0x20\n      add\n      and(0xffffffffffffffffffffffffffffffffffffffff, 0x00)\n      dup2\n      mstore\n      0x20\n      add\n      0x00\n      dup2\n      mstore\n      pop\n      swap1\n      jump\t// out\n        /* \"#utility.yul\":7:84   */\n    tag_117:\n        /* \"#utility.yul\":44:51   */\n      0x00\n        /* \"#utility.yul\":73:78   */\n      dup2\n        /* \"#utility.yul\":62:78   */\n      swap1\n      pop\n        /* \"#utility.yul\":7:84   */\n      swap2\n      swap1\n      pop\n      jump\t// out\n        /* \"#utility.yul\":90:208   */\n    tag_118:\n        /* \"#utility.yul\":177:201   */\n      tag_188\n        /* \"#utility.yul\":195:200   */\n      dup2\n        /* \"#utility.yul\":177:201   */\n      tag_117\n      jump\t// in\n    tag_188:\n        /* \"#utility.yul\":172:175   */\n      dup3\n        /* \"#utility.yul\":165:202   */\n      mstore\n        /* \"#utility.yul\":90:208   */\n      pop\n      pop\n      jump\t// out\n        /* \"#utility.yul\":214:436   */\n    tag_17:\n        /* \"#utility.yul\":307:311   */\n      0x00\n        /* \"#utility.yul\":345:347   */\n      0x20\n        /* \"#utility.yul\":334:343   */\n      dup3\n        /* \"#utility.yul\":330:348   */\n      add\n        /* \"#utility.yul\":322:348   */\n      swap1\n      pop\n        /* \"#utility.yul\":358:429   */\n      tag_190\n        /* \"#utility.yul\":426:427   */\n      0x00\n        /* \"#utility.yul\":415:424   */\n      dup4\n        /* \"#utility.yul\":411:428   */\n      add\n        /* \"#utility.yul\":402:408   */\n      dup5\n        /* \"#utility.yul\":358:429   */\n      tag_118\n      jump\t// in\n    tag_190:\n        /* \"#utility.yul\":214:436   */\n      swap3\n      swap2\n      pop\n      pop\n      jump\t// out\n        /* \"#utility.yul\":442:517   */\n    tag_119:\n        /* \"#utility.yul\":475:481   */\n      0x00\n        /* \"#utility.yul\":508:510   */\n      0x40\n        /* \"#utility.yul\":502:511   */\n      mload\n        /* \"#utility.yul\":492:511   */\n      swap1\n      pop\n        /* \"#utility.yul\":442:517   */\n      swap1\n      jump\t// out\n        /* \"#utility.yul\":523:640   */\n    tag_120:\n        /* \"#utility.yul\":632:633   */\n      0x00\n        /* \"#utility.yul\":629:630   */\n      dup1\n        /* \"#utility.yul\":622:634   */\n      revert\n        /* \"#utility.yul\":646:763   */\n    tag_121:\n        /* \"#utility.yul\":755:756   */\n      0x00\n        /* \"#utility.yul\":752:753   */\n      dup1\n        /* \"#utility.yul\":745:757   */\n      revert\n        /* \"#utility.yul\":769:895   */\n    tag_122:\n        /* \"#utility.yul\":806:813   */\n      0x00\n        /* \"#utility.yul\":846:888   */\n      0xffffffffffffffffffffffffffffffffffffffff\n        /* \"#utility.yul\":839:844   */\n      dup3\n        /* \"#utility.yul\":835:889   */\n      and\n        /* \"#utility.yul\":824:889   */\n      swap1\n      pop\n        /* \"#utility.yul\":769:895   */\n      swap2\n      swap1\n      pop\n      jump\t// out\n        /* \"#utility.yul\":901:997   */\n    tag_123:\n        /* \"#utility.yul\":938:945   */\n      0x00\n        /* \"#utility.yul\":967:991   */\n      tag_196\n        /* \"#utility.yul\":985:990   */\n      dup3\n        /* \"#utility.yul\":967:991   */\n      tag_122\n      jump\t// in\n    tag_196:\n        /* \"#utility.yul\":956:991   */\n      swap1\n      pop\n        /* \"#utility.yul\":901:997   */\n      swap2\n      swap1\n      pop\n      jump\t// out\n        /* \"#utility.yul\":1003:1125   */\n    tag_124:\n        /* \"#utility.yul\":1076:1100   */\n      tag_198\n        /* \"#utility.yul\":1094:1099   */\n      dup2\n        /* \"#utility.yul\":1076:1100   */\n      tag_123\n      jump\t// in\n    tag_198:\n        /* \"#utility.yul\":1069:1074   */\n      dup2\n        /* \"#utility.yul\":1066:1101   */\n      eq\n        /* \"#utility.yul\":1056:1119   */\n      tag_199\n      jumpi\n        /* \"#utility.yul\":1115:1116   */\n      0x00\n        /* \"#utility.yul\":1112:1113   */\n      dup1\n        /* \"#utility.yul\":1105:1117   */\n      revert\n        /* \"#utility.yul\":1056:1119   */\n    tag_199:\n        /* \"#utility.yul\":1003:1125   */\n      pop\n      jump\t// out\n        /* \"#utility.yul\":1131:1270   */\n    tag_125:\n        /* \"#utility.yul\":1177:1182   */\n      0x00\n        /* \"#utility.yul\":1215:1221   */\n      dup2\n        /* \"#utility.yul\":1202:1222   */\n      calldataload\n        /* \"#utility.yul\":1193:1222   */\n      swap1\n      pop\n        /* \"#utility.yul\":1231:1264   */\n      tag_201\n        /* \"#utility.yul\":1258:1263   */\n      dup2\n        /* \"#utility.yul\":1231:1264   */\n      tag_124\n      jump\t// in\n    tag_201:\n        /* \"#utility.yul\":1131:1270   */\n      swap3\n      swap2\n      pop\n      pop\n      jump\t// out\n        /* \"#utility.yul\":1276:1605   */\n    tag_20:\n        /* \"#utility.yul\":1335:1341   */\n      0x00\n        /* \"#utility.yul\":1384:1386   */\n      0x20\n        /* \"#utility.yul\":1372:1381   */\n      dup3\n        /* \"#utility.yul\":1363:1370   */\n      dup5\n        /* \"#utility.yul\":1359:1382   */\n      sub\n        /* \"#utility.yul\":1355:1387   */\n      slt\n        /* \"#utility.yul\":1352:1471   */\n      iszero\n      tag_203\n      jumpi\n        /* \"#utility.yul\":1390:1469   */\n      tag_204\n      tag_120\n      jump\t// in\n    tag_204:\n        /* \"#utility.yul\":1352:1471   */\n    tag_203:\n        /* \"#utility.yul\":1510:1511   */\n      0x00\n        /* \"#utility.yul\":1535:1588   */\n      tag_205\n        /* \"#utility.yul\":1580:1587   */\n      dup5\n        /* \"#utility.yul\":1571:1577   */\n      dup3\n        /* \"#utility.yul\":1560:1569   */\n      dup6\n        /* \"#utility.yul\":1556:1578   */\n      add\n        /* \"#utility.yul\":1535:1588   */\n      tag_125\n      jump\t// in\n    tag_205:\n        /* \"#utility.yul\":1525:1588   */\n      swap2\n      pop\n        /* \"#utility.yul\":1481:1598   */\n      pop\n        /* \"#utility.yul\":1276:1605   */\n      swap3\n      swap2\n      pop\n      pop\n      jump\t// out\n        /* \"#utility.yul\":1611:1701   */\n    tag_126:\n        /* \"#utility.yul\":1645:1652   */\n      0x00\n        /* \"#utility.yul\":1688:1693   */\n      dup2\n        /* \"#utility.yul\":1681:1694   */\n      iszero\n        /* \"#utility.yul\":1674:1695   */\n      iszero\n        /* \"#utility.yul\":1663:1695   */\n      swap1\n      pop\n        /* \"#utility.yul\":1611:1701   */\n      swap2\n      swap1\n      pop\n      jump\t// out\n        /* \"#utility.yul\":1707:1816   */\n    tag_127:\n        /* \"#utility.yul\":1788:1809   */\n      tag_208\n        /* \"#utility.yul\":1803:1808   */\n      dup2\n        /* \"#utility.yul\":1788:1809   */\n      tag_126\n      jump\t// in\n    tag_208:\n        /* \"#utility.yul\":1783:1786   */\n      dup3\n        /* \"#utility.yul\":1776:1810   */\n      mstore\n        /* \"#utility.yul\":1707:1816   */\n      pop\n      pop\n      jump\t// out\n        /* \"#utility.yul\":1822:2032   */\n    tag_23:\n        /* \"#utility.yul\":1909:1913   */\n      0x00\n        /* \"#utility.yul\":1947:1949   */\n      0x20\n        /* \"#utility.yul\":1936:1945   */\n      dup3\n        /* \"#utility.yul\":1932:1950   */\n      add\n        /* \"#utility.yul\":1924:1950   */\n      swap1\n      pop\n        /* \"#utility.yul\":1960:2025   */\n      tag_210\n        /* \"#utility.yul\":2022:2023   */\n      0x00\n        /* \"#utility.yul\":2011:2020   */\n      dup4\n        /* \"#utility.yul\":2007:2024   */\n      add\n        /* \"#utility.yul\":1998:2004   */\n      dup5\n        /* \"#utility.yul\":1960:2025   */\n      tag_127\n      jump\t// in\n    tag_210:\n        /* \"#utility.yul\":1822:2032   */\n      swap3\n      swap2\n      pop\n      pop\n      jump\t// out\n        /* \"#utility.yul\":2038:2160   */\n    tag_128:\n        /* \"#utility.yul\":2111:2135   */\n      tag_212\n        /* \"#utility.yul\":2129:2134   */\n      dup2\n        /* \"#utility.yul\":2111:2135   */\n      tag_117\n      jump\t// in\n    tag_212:\n        /* \"#utility.yul\":2104:2109   */\n      dup2\n        /* \"#utility.yul\":2101:2136   */\n      eq\n        /* \"#utility.yul\":2091:2154   */\n      tag_213\n      jumpi\n        /* \"#utility.yul\":2150:2151   */\n      0x00\n        /* \"#utility.yul\":2147:2148   */\n      dup1\n        /* \"#utility.yul\":2140:2152   */\n      revert\n        /* \"#utility.yul\":2091:2154   */\n    tag_213:\n        /* \"#utility.yul\":2038:2160   */\n      pop\n      jump\t// out\n        /* \"#utility.yul\":2166:2305   */\n    tag_129:\n        /* \"#utility.yul\":2212:2217   */\n      0x00\n        /* \"#utility.yul\":2250:2256   */\n      dup2\n        /* \"#utility.yul\":2237:2257   */\n      calldataload\n        /* \"#utility.yul\":2228:2257   */\n      swap1\n      pop\n        /* \"#utility.yul\":2266:2299   */\n      tag_215\n        /* \"#utility.yul\":2293:2298   */\n      dup2\n        /* \"#utility.yul\":2266:2299   */\n      tag_128\n      jump\t// in\n    tag_215:\n        /* \"#utility.yul\":2166:2305   */\n      swap3\n      swap2\n      pop\n      pop\n      jump\t// out\n        /* \"#utility.yul\":2311:2640   */\n    tag_26:\n        /* \"#utility.yul\":2370:2376   */\n      0x00\n        /* \"#utility.yul\":2419:2421   */\n      0x20\n        /* \"#utility.yul\":2407:2416   */\n      dup3\n        /* \"#utility.yul\":2398:2405   */\n      dup5\n        /* \"#utility.yul\":2394:2417   */\n      sub\n        /* \"#utility.yul\":2390:2422   */\n      slt\n        /* \"#utility.yul\":2387:2506   */\n      iszero\n      tag_217\n      jumpi\n        /* \"#utility.yul\":2425:2504   */\n      tag_218\n      tag_120\n      jump\t// in\n    tag_218:\n        /* \"#utility.yul\":2387:2506   */\n    tag_217:\n        /* \"#utility.yul\":2545:2546   */\n      0x00\n        /* \"#utility.yul\":2570:2623   */\n      tag_219\n        /* \"#utility.yul\":2615:2622   */\n      dup5\n        /* \"#utility.yul\":2606:2612   */\n      dup3\n        /* \"#utility.yul\":2595:2604   */\n      dup6\n        /* \"#utility.yul\":2591:2613   */\n      add\n        /* \"#utility.yul\":2570:2623   */\n      tag_129\n      jump\t// in\n    tag_219:\n        /* \"#utility.yul\":2560:2623   */\n      swap2\n      pop\n        /* \"#utility.yul\":2516:2633   */\n      pop\n        /* \"#utility.yul\":2311:2640   */\n      swap3\n      swap2\n      pop\n      pop\n      jump\t// out\n        /* \"#utility.yul\":2646:2754   */\n    tag_130:\n        /* \"#utility.yul\":2723:2747   */\n      tag_221\n        /* \"#utility.yul\":2741:2746   */\n      dup2\n        /* \"#utility.yul\":2723:2747   */\n      tag_117\n      jump\t// in\n    tag_221:\n        /* \"#utility.yul\":2718:2721   */\n      dup3\n        /* \"#utility.yul\":2711:2748   */\n      mstore\n        /* \"#utility.yul\":2646:2754   */\n      pop\n      pop\n      jump\t// out\n        /* \"#utility.yul\":2760:2859   */\n    tag_131:\n        /* \"#utility.yul\":2812:2818   */\n      0x00\n        /* \"#utility.yul\":2846:2851   */\n      dup2\n        /* \"#utility.yul\":2840:2852   */\n      mload\n        /* \"#utility.yul\":2830:2852   */\n      swap1\n      pop\n        /* \"#utility.yul\":2760:2859   */\n      swap2\n      swap1\n      pop\n      jump\t// out\n        /* \"#utility.yul\":2865:3024   */\n    tag_132:\n        /* \"#utility.yul\":2939:2950   */\n      0x00\n        /* \"#utility.yul\":2973:2979   */\n      dup3\n        /* \"#utility.yul\":2968:2971   */\n      dup3\n        /* \"#utility.yul\":2961:2980   */\n      mstore\n        /* \"#utility.yul\":3013:3017   */\n      0x20\n        /* \"#utility.yul\":3008:3011   */\n      dup3\n        /* \"#utility.yul\":3004:3018   */\n      add\n        /* \"#utility.yul\":2989:3018   */\n      swap1\n      pop\n        /* \"#utility.yul\":2865:3024   */\n      swap3\n      swap2\n      pop\n      pop\n      jump\t// out\n        /* \"#utility.yul\":3030:3169   */\n    tag_133:\n        /* \"#utility.yul\":3119:3125   */\n      dup3\n        /* \"#utility.yul\":3114:3117   */\n      dup2\n        /* \"#utility.yul\":3109:3112   */\n      dup4\n        /* \"#utility.yul\":3103:3126   */\n      mcopy\n        /* \"#utility.yul\":3160:3161   */\n      0x00\n        /* \"#utility.yul\":3151:3157   */\n      dup4\n        /* \"#utility.yul\":3146:3149   */\n      dup4\n        /* \"#utility.yul\":3142:3158   */\n      add\n        /* \"#utility.yul\":3135:3162   */\n      mstore\n        /* \"#utility.yul\":3030:3169   */\n      pop\n      pop\n      pop\n      jump\t// out\n        /* \"#utility.yul\":3175:3277   */\n    tag_134:\n        /* \"#utility.yul\":3216:3222   */\n      0x00\n        /* \"#utility.yul\":3267:3269   */\n      0x1f\n        /* \"#utility.yul\":3263:3270   */\n      not\n        /* \"#utility.yul\":3258:3260   */\n      0x1f\n        /* \"#utility.yul\":3251:3256   */\n      dup4\n        /* \"#utility.yul\":3247:3261   */\n      add\n        /* \"#utility.yul\":3243:3271   */\n      and\n        /* \"#utility.yul\":3233:3271   */\n      swap1\n      pop\n        /* \"#utility.yul\":3175:3277   */\n      swap2\n      swap1\n      pop\n      jump\t// out\n        /* \"#utility.yul\":3283:3640   */\n    tag_135:\n        /* \"#utility.yul\":3361:3364   */\n      0x00\n        /* \"#utility.yul\":3389:3428   */\n      tag_227\n        /* \"#utility.yul\":3422:3427   */\n      dup3\n        /* \"#utility.yul\":3389:3428   */\n      tag_131\n      jump\t// in\n    tag_227:\n        /* \"#utility.yul\":3444:3505   */\n      tag_228\n        /* \"#utility.yul\":3498:3504   */\n      dup2\n        /* \"#utility.yul\":3493:3496   */\n      dup6\n        /* \"#utility.yul\":3444:3505   */\n      tag_132\n      jump\t// in\n    tag_228:\n        /* \"#utility.yul\":3437:3505   */\n      swap4\n      pop\n        /* \"#utility.yul\":3514:3579   */\n      tag_229\n        /* \"#utility.yul\":3572:3578   */\n      dup2\n        /* \"#utility.yul\":3567:3570   */\n      dup6\n        /* \"#utility.yul\":3560:3564   */\n      0x20\n        /* \"#utility.yul\":3553:3558   */\n      dup7\n        /* \"#utility.yul\":3549:3565   */\n      add\n        /* \"#utility.yul\":3514:3579   */\n      tag_133\n      jump\t// in\n    tag_229:\n        /* \"#utility.yul\":3604:3633   */\n      tag_230\n        /* \"#utility.yul\":3626:3632   */\n      dup2\n        /* \"#utility.yul\":3604:3633   */\n      tag_134\n      jump\t// in\n    tag_230:\n        /* \"#utility.yul\":3599:3602   */\n      dup5\n        /* \"#utility.yul\":3595:3634   */\n      add\n        /* \"#utility.yul\":3588:3634   */\n      swap2\n      pop\n        /* \"#utility.yul\":3365:3640   */\n      pop\n        /* \"#utility.yul\":3283:3640   */\n      swap3\n      swap2\n      pop\n      pop\n      jump\t// out\n        /* \"#utility.yul\":3646:3754   */\n    tag_136:\n        /* \"#utility.yul\":3723:3747   */\n      tag_232\n        /* \"#utility.yul\":3741:3746   */\n      dup2\n        /* \"#utility.yul\":3723:3747   */\n      tag_123\n      jump\t// in\n    tag_232:\n        /* \"#utility.yul\":3718:3721   */\n      dup3\n        /* \"#utility.yul\":3711:3748   */\n      mstore\n        /* \"#utility.yul\":3646:3754   */\n      pop\n      pop\n      jump\t// out\n        /* \"#utility.yul\":3832:5167   */\n    tag_137:\n        /* \"#utility.yul\":3947:3950   */\n      0x00\n        /* \"#utility.yul\":3983:3987   */\n      0xc0\n        /* \"#utility.yul\":3978:3981   */\n      dup4\n        /* \"#utility.yul\":3974:3988   */\n      add\n        /* \"#utility.yul\":4075:4079   */\n      0x00\n        /* \"#utility.yul\":4068:4073   */\n      dup4\n        /* \"#utility.yul\":4064:4080   */\n      add\n        /* \"#utility.yul\":4058:4081   */\n      mload\n        /* \"#utility.yul\":4094:4157   */\n      tag_234\n        /* \"#utility.yul\":4151:4155   */\n      0x00\n        /* \"#utility.yul\":4146:4149   */\n      dup7\n        /* \"#utility.yul\":4142:4156   */\n      add\n        /* \"#utility.yul\":4128:4140   */\n      dup3\n        /* \"#utility.yul\":4094:4157   */\n      tag_130\n      jump\t// in\n    tag_234:\n        /* \"#utility.yul\":3998:4167   */\n      pop\n        /* \"#utility.yul\":4256:4260   */\n      0x20\n        /* \"#utility.yul\":4249:4254   */\n      dup4\n        /* \"#utility.yul\":4245:4261   */\n      add\n        /* \"#utility.yul\":4239:4262   */\n      mload\n        /* \"#utility.yul\":4309:4312   */\n      dup5\n        /* \"#utility.yul\":4303:4307   */\n      dup3\n        /* \"#utility.yul\":4299:4313   */\n      sub\n        /* \"#utility.yul\":4292:4296   */\n      0x20\n        /* \"#utility.yul\":4287:4290   */\n      dup7\n        /* \"#utility.yul\":4283:4297   */\n      add\n        /* \"#utility.yul\":4276:4314   */\n      mstore\n        /* \"#utility.yul\":4335:4408   */\n      tag_235\n        /* \"#utility.yul\":4403:4407   */\n      dup3\n        /* \"#utility.yul\":4389:4401   */\n      dup3\n        /* \"#utility.yul\":4335:4408   */\n      tag_135\n      jump\t// in\n    tag_235:\n        /* \"#utility.yul\":4327:4408   */\n      swap2\n      pop\n        /* \"#utility.yul\":4177:4419   */\n      pop\n        /* \"#utility.yul\":4502:4506   */\n      0x40\n        /* \"#utility.yul\":4495:4500   */\n      dup4\n        /* \"#utility.yul\":4491:4507   */\n      add\n        /* \"#utility.yul\":4485:4508   */\n      mload\n        /* \"#utility.yul\":4521:4584   */\n      tag_236\n        /* \"#utility.yul\":4578:4582   */\n      0x40\n        /* \"#utility.yul\":4573:4576   */\n      dup7\n        /* \"#utility.yul\":4569:4583   */\n      add\n        /* \"#utility.yul\":4555:4567   */\n      dup3\n        /* \"#utility.yul\":4521:4584   */\n      tag_130\n      jump\t// in\n    tag_236:\n        /* \"#utility.yul\":4429:4594   */\n      pop\n        /* \"#utility.yul\":4684:4688   */\n      0x60\n        /* \"#utility.yul\":4677:4682   */\n      dup4\n        /* \"#utility.yul\":4673:4689   */\n      add\n        /* \"#utility.yul\":4667:4690   */\n      mload\n        /* \"#utility.yul\":4703:4766   */\n      tag_237\n        /* \"#utility.yul\":4760:4764   */\n      0x60\n        /* \"#utility.yul\":4755:4758   */\n      dup7\n        /* \"#utility.yul\":4751:4765   */\n      add\n        /* \"#utility.yul\":4737:4749   */\n      dup3\n        /* \"#utility.yul\":4703:4766   */\n      tag_136\n      jump\t// in\n    tag_237:\n        /* \"#utility.yul\":4604:4776   */\n      pop\n        /* \"#utility.yul\":4866:4870   */\n      0x80\n        /* \"#utility.yul\":4859:4864   */\n      dup4\n        /* \"#utility.yul\":4855:4871   */\n      add\n        /* \"#utility.yul\":4849:4872   */\n      mload\n        /* \"#utility.yul\":4885:4948   */\n      tag_238\n        /* \"#utility.yul\":4942:4946   */\n      0x80\n        /* \"#utility.yul\":4937:4940   */\n      dup7\n        /* \"#utility.yul\":4933:4947   */\n      add\n        /* \"#utility.yul\":4919:4931   */\n      dup3\n        /* \"#utility.yul\":4885:4948   */\n      tag_136\n      jump\t// in\n    tag_238:\n        /* \"#utility.yul\":4786:4958   */\n      pop\n        /* \"#utility.yul\":5048:5052   */\n      0xa0\n        /* \"#utility.yul\":5041:5046   */\n      dup4\n        /* \"#utility.yul\":5037:5053   */\n      add\n        /* \"#utility.yul\":5031:5054   */\n      mload\n        /* \"#utility.yul\":5067:5130   */\n      tag_239\n        /* \"#utility.yul\":5124:5128   */\n      0xa0\n        /* \"#utility.yul\":5119:5122   */\n      dup7\n        /* \"#utility.yul\":5115:5129   */\n      add\n        /* \"#utility.yul\":5101:5113   */\n      dup3\n        /* \"#utility.yul\":5067:5130   */\n      tag_130\n      jump\t// in\n    tag_239:\n        /* \"#utility.yul\":4968:5140   */\n      pop\n        /* \"#utility.yul\":5157:5161   */\n      dup1\n        /* \"#utility.yul\":5150:5161   */\n      swap2\n      pop\n        /* \"#utility.yul\":3952:5167   */\n      pop\n        /* \"#utility.yul\":3832:5167   */\n      swap3\n      swap2\n      pop\n      pop\n      jump\t// out\n        /* \"#utility.yul\":5173:5538   */\n    tag_29:\n        /* \"#utility.yul\":5312:5316   */\n      0x00\n        /* \"#utility.yul\":5350:5352   */\n      0x20\n        /* \"#utility.yul\":5339:5348   */\n      dup3\n        /* \"#utility.yul\":5335:5353   */\n      add\n        /* \"#utility.yul\":5327:5353   */\n      swap1\n      pop\n        /* \"#utility.yul\":5399:5408   */\n      dup2\n        /* \"#utility.yul\":5393:5397   */\n      dup2\n        /* \"#utility.yul\":5389:5409   */\n      sub\n        /* \"#utility.yul\":5385:5386   */\n      0x00\n        /* \"#utility.yul\":5374:5383   */\n      dup4\n        /* \"#utility.yul\":5370:5387   */\n      add\n        /* \"#utility.yul\":5363:5410   */\n      mstore\n        /* \"#utility.yul\":5427:5531   */\n      tag_241\n        /* \"#utility.yul\":5526:5530   */\n      dup2\n        /* \"#utility.yul\":5517:5523   */\n      dup5\n        /* \"#utility.yul\":5427:5531   */\n      tag_137\n      jump\t// in\n    tag_241:\n        /* \"#utility.yul\":5419:5531   */\n      swap1\n      pop\n        /* \"#utility.yul\":5173:5538   */\n      swap3\n      swap2\n      pop\n      pop\n      jump\t// out\n        /* \"#utility.yul\":5544:5713   */\n    tag_138:\n        /* \"#utility.yul\":5628:5639   */\n      0x00\n        /* \"#utility.yul\":5662:5668   */\n      dup3\n        /* \"#utility.yul\":5657:5660   */\n      dup3\n        /* \"#utility.yul\":5650:5669   */\n      mstore\n        /* \"#utility.yul\":5702:5706   */\n      0x20\n        /* \"#utility.yul\":5697:5700   */\n      dup3\n        /* \"#utility.yul\":5693:5707   */\n      add\n        /* \"#utility.yul\":5678:5707   */\n      swap1\n      pop\n        /* \"#utility.yul\":5544:5713   */\n      swap3\n      swap2\n      pop\n      pop\n      jump\t// out\n        /* \"#utility.yul\":5719:6096   */\n    tag_139:\n        /* \"#utility.yul\":5807:5810   */\n      0x00\n        /* \"#utility.yul\":5835:5874   */\n      tag_244\n        /* \"#utility.yul\":5868:5873   */\n      dup3\n        /* \"#utility.yul\":5835:5874   */\n      tag_131\n      jump\t// in\n    tag_244:\n        /* \"#utility.yul\":5890:5961   */\n      tag_245\n        /* \"#utility.yul\":5954:5960   */\n      dup2\n        /* \"#utility.yul\":5949:5952   */\n      dup6\n        /* \"#utility.yul\":5890:5961   */\n      tag_138\n      jump\t// in\n    tag_245:\n        /* \"#utility.yul\":5883:5961   */\n      swap4\n      pop\n        /* \"#utility.yul\":5970:6035   */\n      tag_246\n        /* \"#utility.yul\":6028:6034   */\n      dup2\n        /* \"#utility.yul\":6023:6026   */\n      dup6\n        /* \"#utility.yul\":6016:6020   */\n      0x20\n        /* \"#utility.yul\":6009:6014   */\n      dup7\n        /* \"#utility.yul\":6005:6021   */\n      add\n        /* \"#utility.yul\":5970:6035   */\n      tag_133\n      jump\t// in\n    tag_246:\n        /* \"#utility.yul\":6060:6089   */\n      tag_247\n        /* \"#utility.yul\":6082:6088   */\n      dup2\n        /* \"#utility.yul\":6060:6089   */\n      tag_134\n      jump\t// in\n    tag_247:\n        /* \"#utility.yul\":6055:6058   */\n      dup5\n        /* \"#utility.yul\":6051:6090   */\n      add\n        /* \"#utility.yul\":6044:6090   */\n      swap2\n      pop\n        /* \"#utility.yul\":5811:6096   */\n      pop\n        /* \"#utility.yul\":5719:6096   */\n      swap3\n      swap2\n      pop\n      pop\n      jump\t// out\n        /* \"#utility.yul\":6102:6220   */\n    tag_140:\n        /* \"#utility.yul\":6189:6213   */\n      tag_249\n        /* \"#utility.yul\":6207:6212   */\n      dup2\n        /* \"#utility.yul\":6189:6213   */\n      tag_123\n      jump\t// in\n    tag_249:\n        /* \"#utility.yul\":6184:6187   */\n      dup3\n        /* \"#utility.yul\":6177:6214   */\n      mstore\n        /* \"#utility.yul\":6102:6220   */\n      pop\n      pop\n      jump\t// out\n        /* \"#utility.yul\":6226:7092   */\n    tag_34:\n        /* \"#utility.yul\":6479:6483   */\n      0x00\n        /* \"#utility.yul\":6517:6520   */\n      0xc0\n        /* \"#utility.yul\":6506:6515   */\n      dup3\n        /* \"#utility.yul\":6502:6521   */\n      add\n        /* \"#utility.yul\":6494:6521   */\n      swap1\n      pop\n        /* \"#utility.yul\":6531:6602   */\n      tag_251\n        /* \"#utility.yul\":6599:6600   */\n      0x00\n        /* \"#utility.yul\":6588:6597   */\n      dup4\n        /* \"#utility.yul\":6584:6601   */\n      add\n        /* \"#utility.yul\":6575:6581   */\n      dup10\n        /* \"#utility.yul\":6531:6602   */\n      tag_118\n      jump\t// in\n    tag_251:\n        /* \"#utility.yul\":6649:6658   */\n      dup2\n        /* \"#utility.yul\":6643:6647   */\n      dup2\n        /* \"#utility.yul\":6639:6659   */\n      sub\n        /* \"#utility.yul\":6634:6636   */\n      0x20\n        /* \"#utility.yul\":6623:6632   */\n      dup4\n        /* \"#utility.yul\":6619:6637   */\n      add\n        /* \"#utility.yul\":6612:6660   */\n      mstore\n        /* \"#utility.yul\":6677:6755   */\n      tag_252\n        /* \"#utility.yul\":6750:6754   */\n      dup2\n        /* \"#utility.yul\":6741:6747   */\n      dup9\n        /* \"#utility.yul\":6677:6755   */\n      tag_139\n      jump\t// in\n    tag_252:\n        /* \"#utility.yul\":6669:6755   */\n      swap1\n      pop\n        /* \"#utility.yul\":6765:6837   */\n      tag_253\n        /* \"#utility.yul\":6833:6835   */\n      0x40\n        /* \"#utility.yul\":6822:6831   */\n      dup4\n        /* \"#utility.yul\":6818:6836   */\n      add\n        /* \"#utility.yul\":6809:6815   */\n      dup8\n        /* \"#utility.yul\":6765:6837   */\n      tag_118\n      jump\t// in\n    tag_253:\n        /* \"#utility.yul\":6847:6919   */\n      tag_254\n        /* \"#utility.yul\":6915:6917   */\n      0x60\n        /* \"#utility.yul\":6904:6913   */\n      dup4\n        /* \"#utility.yul\":6900:6918   */\n      add\n        /* \"#utility.yul\":6891:6897   */\n      dup7\n        /* \"#utility.yul\":6847:6919   */\n      tag_140\n      jump\t// in\n    tag_254:\n        /* \"#utility.yul\":6929:7002   */\n      tag_255\n        /* \"#utility.yul\":6997:7000   */\n      0x80\n        /* \"#utility.yul\":6986:6995   */\n      dup4\n        /* \"#utility.yul\":6982:7001   */\n      add\n        /* \"#utility.yul\":6973:6979   */\n      dup6\n        /* \"#utility.yul\":6929:7002   */\n      tag_140\n      jump\t// in\n    tag_255:\n        /* \"#utility.yul\":7012:7085   */\n      tag_256\n        /* \"#utility.yul\":7080:7083   */\n      0xa0\n        /* \"#utility.yul\":7069:7078   */\n      dup4\n        /* \"#utility.yul\":7065:7084   */\n      add\n        /* \"#utility.yul\":7056:7062   */\n      dup5\n        /* \"#utility.yul\":7012:7085   */\n      tag_118\n      jump\t// in\n    tag_256:\n        /* \"#utility.yul\":6226:7092   */\n      swap8\n      swap7\n      pop\n      pop\n      pop\n      pop\n      pop\n      pop\n      pop\n      jump\t// out\n        /* \"#utility.yul\":7098:7320   */\n    tag_41:\n        /* \"#utility.yul\":7191:7195   */\n      0x00\n        /* \"#utility.yul\":7229:7231   */\n      0x20\n        /* \"#utility.yul\":7218:7227   */\n      dup3\n        /* \"#utility.yul\":7214:7232   */\n      add\n        /* \"#utility.yul\":7206:7232   */\n      swap1\n      pop\n        /* \"#utility.yul\":7242:7313   */\n      tag_258\n        /* \"#utility.yul\":7310:7311   */\n      0x00\n        /* \"#utility.yul\":7299:7308   */\n      dup4\n        /* \"#utility.yul\":7295:7312   */\n      add\n        /* \"#utility.yul\":7286:7292   */\n      dup5\n        /* \"#utility.yul\":7242:7313   */\n      tag_140\n      jump\t// in\n    tag_258:\n        /* \"#utility.yul\":7098:7320   */\n      swap3\n      swap2\n      pop\n      pop\n      jump\t// out\n        /* \"#utility.yul\":7326:7443   */\n    tag_141:\n        /* \"#utility.yul\":7435:7436   */\n      0x00\n        /* \"#utility.yul\":7432:7433   */\n      dup1\n        /* \"#utility.yul\":7425:7437   */\n      revert\n        /* \"#utility.yul\":7449:7566   */\n    tag_142:\n        /* \"#utility.yul\":7558:7559   */\n      0x00\n        /* \"#utility.yul\":7555:7556   */\n      dup1\n        /* \"#utility.yul\":7548:7560   */\n      revert\n        /* \"#utility.yul\":7572:7752   */\n    tag_143:\n        /* \"#utility.yul\":7620:7697   */\n      0x4e487b7100000000000000000000000000000000000000000000000000000000\n        /* \"#utility.yul\":7617:7618   */\n      0x00\n        /* \"#utility.yul\":7610:7698   */\n      mstore\n        /* \"#utility.yul\":7717:7721   */\n      0x41\n        /* \"#utility.yul\":7714:7715   */\n      0x04\n        /* \"#utility.yul\":7707:7722   */\n      mstore\n        /* \"#utility.yul\":7741:7745   */\n      0x24\n        /* \"#utility.yul\":7738:7739   */\n      0x00\n        /* \"#utility.yul\":7731:7746   */\n      revert\n        /* \"#utility.yul\":7758:8039   */\n    tag_144:\n        /* \"#utility.yul\":7841:7868   */\n      tag_263\n        /* \"#utility.yul\":7863:7867   */\n      dup3\n        /* \"#utility.yul\":7841:7868   */\n      tag_134\n      jump\t// in\n    tag_263:\n        /* \"#utility.yul\":7833:7839   */\n      dup2\n        /* \"#utility.yul\":7829:7869   */\n      add\n        /* \"#utility.yul\":7971:7977   */\n      dup2\n        /* \"#utility.yul\":7959:7969   */\n      dup2\n        /* \"#utility.yul\":7956:7978   */\n      lt\n        /* \"#utility.yul\":7935:7953   */\n      0xffffffffffffffff\n        /* \"#utility.yul\":7923:7933   */\n      dup3\n        /* \"#utility.yul\":7920:7954   */\n      gt\n        /* \"#utility.yul\":7917:7979   */\n      or\n        /* \"#utility.yul\":7914:8002   */\n      iszero\n      tag_264\n      jumpi\n        /* \"#utility.yul\":7982:8000   */\n      tag_265\n      tag_143\n      jump\t// in\n    tag_265:\n        /* \"#utility.yul\":7914:8002   */\n    tag_264:\n        /* \"#utility.yul\":8022:8032   */\n      dup1\n        /* \"#utility.yul\":8018:8020   */\n      0x40\n        /* \"#utility.yul\":8011:8033   */\n      mstore\n        /* \"#utility.yul\":7801:8039   */\n      pop\n        /* \"#utility.yul\":7758:8039   */\n      pop\n      pop\n      jump\t// out\n        /* \"#utility.yul\":8045:8174   */\n    tag_145:\n        /* \"#utility.yul\":8079:8085   */\n      0x00\n        /* \"#utility.yul\":8106:8126   */\n      tag_267\n      tag_119\n      jump\t// in\n    tag_267:\n        /* \"#utility.yul\":8096:8126   */\n      swap1\n      pop\n        /* \"#utility.yul\":8135:8168   */\n      tag_268\n        /* \"#utility.yul\":8163:8167   */\n      dup3\n        /* \"#utility.yul\":8155:8161   */\n      dup3\n        /* \"#utility.yul\":8135:8168   */\n      tag_144\n      jump\t// in\n    tag_268:\n        /* \"#utility.yul\":8045:8174   */\n      swap2\n      swap1\n      pop\n      jump\t// out\n        /* \"#utility.yul\":8180:8488   */\n    tag_146:\n        /* \"#utility.yul\":8242:8246   */\n      0x00\n        /* \"#utility.yul\":8332:8350   */\n      0xffffffffffffffff\n        /* \"#utility.yul\":8324:8330   */\n      dup3\n        /* \"#utility.yul\":8321:8351   */\n      gt\n        /* \"#utility.yul\":8318:8374   */\n      iszero\n      tag_270\n      jumpi\n        /* \"#utility.yul\":8354:8372   */\n      tag_271\n      tag_143\n      jump\t// in\n    tag_271:\n        /* \"#utility.yul\":8318:8374   */\n    tag_270:\n        /* \"#utility.yul\":8392:8421   */\n      tag_272\n        /* \"#utility.yul\":8414:8420   */\n      dup3\n        /* \"#utility.yul\":8392:8421   */\n      tag_134\n      jump\t// in\n    tag_272:\n        /* \"#utility.yul\":8384:8421   */\n      swap1\n      pop\n        /* \"#utility.yul\":8476:8480   */\n      0x20\n        /* \"#utility.yul\":8470:8474   */\n      dup2\n        /* \"#utility.yul\":8466:8481   */\n      add\n        /* \"#utility.yul\":8458:8481   */\n      swap1\n      pop\n        /* \"#utility.yul\":8180:8488   */\n      swap2\n      swap1\n      pop\n      jump\t// out\n        /* \"#utility.yul\":8494:8642   */\n    tag_147:\n        /* \"#utility.yul\":8592:8598   */\n      dup3\n        /* \"#utility.yul\":8587:8590   */\n      dup2\n        /* \"#utility.yul\":8582:8585   */\n      dup4\n        /* \"#utility.yul\":8569:8599   */\n      calldatacopy\n        /* \"#utility.yul\":8633:8634   */\n      0x00\n        /* \"#utility.yul\":8624:8630   */\n      dup4\n        /* \"#utility.yul\":8619:8622   */\n      dup4\n        /* \"#utility.yul\":8615:8631   */\n      add\n        /* \"#utility.yul\":8608:8635   */\n      mstore\n        /* \"#utility.yul\":8494:8642   */\n      pop\n      pop\n      pop\n      jump\t// out\n        /* \"#utility.yul\":8648:9073   */\n    tag_148:\n        /* \"#utility.yul\":8726:8731   */\n      0x00\n        /* \"#utility.yul\":8751:8817   */\n      tag_275\n        /* \"#utility.yul\":8767:8816   */\n      tag_276\n        /* \"#utility.yul\":8809:8815   */\n      dup5\n        /* \"#utility.yul\":8767:8816   */\n      tag_146\n      jump\t// in\n    tag_276:\n        /* \"#utility.yul\":8751:8817   */\n      tag_145\n      jump\t// in\n    tag_275:\n        /* \"#utility.yul\":8742:8817   */\n      swap1\n      pop\n        /* \"#utility.yul\":8840:8846   */\n      dup3\n        /* \"#utility.yul\":8833:8838   */\n      dup2\n        /* \"#utility.yul\":8826:8847   */\n      mstore\n        /* \"#utility.yul\":8878:8882   */\n      0x20\n        /* \"#utility.yul\":8871:8876   */\n      dup2\n        /* \"#utility.yul\":8867:8883   */\n      add\n        /* \"#utility.yul\":8916:8919   */\n      dup5\n        /* \"#utility.yul\":8907:8913   */\n      dup5\n        /* \"#utility.yul\":8902:8905   */\n      dup5\n        /* \"#utility.yul\":8898:8914   */\n      add\n        /* \"#utility.yul\":8895:8920   */\n      gt\n        /* \"#utility.yul\":8892:9004   */\n      iszero\n      tag_277\n      jumpi\n        /* \"#utility.yul\":8923:9002   */\n      tag_278\n      tag_142\n      jump\t// in\n    tag_278:\n        /* \"#utility.yul\":8892:9004   */\n    tag_277:\n        /* \"#utility.yul\":9013:9067   */\n      tag_279\n        /* \"#utility.yul\":9060:9066   */\n      dup5\n        /* \"#utility.yul\":9055:9058   */\n      dup3\n        /* \"#utility.yul\":9050:9053   */\n      dup6\n        /* \"#utility.yul\":9013:9067   */\n      tag_147\n      jump\t// in\n    tag_279:\n        /* \"#utility.yul\":8732:9073   */\n      pop\n        /* \"#utility.yul\":8648:9073   */\n      swap4\n      swap3\n      pop\n      pop\n      pop\n      jump\t// out\n        /* \"#utility.yul\":9093:9433   */\n    tag_149:\n        /* \"#utility.yul\":9149:9154   */\n      0x00\n        /* \"#utility.yul\":9198:9201   */\n      dup3\n        /* \"#utility.yul\":9191:9195   */\n      0x1f\n        /* \"#utility.yul\":9183:9189   */\n      dup4\n        /* \"#utility.yul\":9179:9196   */\n      add\n        /* \"#utility.yul\":9175:9202   */\n      slt\n        /* \"#utility.yul\":9165:9287   */\n      tag_281\n      jumpi\n        /* \"#utility.yul\":9206:9285   */\n      tag_282\n      tag_141\n      jump\t// in\n    tag_282:\n        /* \"#utility.yul\":9165:9287   */\n    tag_281:\n        /* \"#utility.yul\":9323:9329   */\n      dup2\n        /* \"#utility.yul\":9310:9330   */\n      calldataload\n        /* \"#utility.yul\":9348:9427   */\n      tag_283\n        /* \"#utility.yul\":9423:9426   */\n      dup5\n        /* \"#utility.yul\":9415:9421   */\n      dup3\n        /* \"#utility.yul\":9408:9412   */\n      0x20\n        /* \"#utility.yul\":9400:9406   */\n      dup7\n        /* \"#utility.yul\":9396:9413   */\n      add\n        /* \"#utility.yul\":9348:9427   */\n      tag_148\n      jump\t// in\n    tag_283:\n        /* \"#utility.yul\":9339:9427   */\n      swap2\n      pop\n        /* \"#utility.yul\":9155:9433   */\n      pop\n        /* \"#utility.yul\":9093:9433   */\n      swap3\n      swap2\n      pop\n      pop\n      jump\t// out\n        /* \"#utility.yul\":9439:10093   */\n    tag_44:\n        /* \"#utility.yul\":9517:9523   */\n      0x00\n        /* \"#utility.yul\":9525:9531   */\n      dup1\n        /* \"#utility.yul\":9574:9576   */\n      0x40\n        /* \"#utility.yul\":9562:9571   */\n      dup4\n        /* \"#utility.yul\":9553:9560   */\n      dup6\n        /* \"#utility.yul\":9549:9572   */\n      sub\n        /* \"#utility.yul\":9545:9577   */\n      slt\n        /* \"#utility.yul\":9542:9661   */\n      iszero\n      tag_285\n      jumpi\n        /* \"#utility.yul\":9580:9659   */\n      tag_286\n      tag_120\n      jump\t// in\n    tag_286:\n        /* \"#utility.yul\":9542:9661   */\n    tag_285:\n        /* \"#utility.yul\":9728:9729   */\n      0x00\n        /* \"#utility.yul\":9717:9726   */\n      dup4\n        /* \"#utility.yul\":9713:9730   */\n      add\n        /* \"#utility.yul\":9700:9731   */\n      calldataload\n        /* \"#utility.yul\":9758:9776   */\n      0xffffffffffffffff\n        /* \"#utility.yul\":9750:9756   */\n      dup2\n        /* \"#utility.yul\":9747:9777   */\n      gt\n        /* \"#utility.yul\":9744:9861   */\n      iszero\n      tag_287\n      jumpi\n        /* \"#utility.yul\":9780:9859   */\n      tag_288\n      tag_121\n      jump\t// in\n    tag_288:\n        /* \"#utility.yul\":9744:9861   */\n    tag_287:\n        /* \"#utility.yul\":9885:9948   */\n      tag_289\n        /* \"#utility.yul\":9940:9947   */\n      dup6\n        /* \"#utility.yul\":9931:9937   */\n      dup3\n        /* \"#utility.yul\":9920:9929   */\n      dup7\n        /* \"#utility.yul\":9916:9938   */\n      add\n        /* \"#utility.yul\":9885:9948   */\n      tag_149\n      jump\t// in\n    tag_289:\n        /* \"#utility.yul\":9875:9948   */\n      swap3\n      pop\n        /* \"#utility.yul\":9671:9958   */\n      pop\n        /* \"#utility.yul\":9997:9999   */\n      0x20\n        /* \"#utility.yul\":10023:10076   */\n      tag_290\n        /* \"#utility.yul\":10068:10075   */\n      dup6\n        /* \"#utility.yul\":10059:10065   */\n      dup3\n        /* \"#utility.yul\":10048:10057   */\n      dup7\n        /* \"#utility.yul\":10044:10066   */\n      add\n        /* \"#utility.yul\":10023:10076   */\n      tag_129\n      jump\t// in\n    tag_290:\n        /* \"#utility.yul\":10013:10076   */\n      swap2\n      pop\n        /* \"#utility.yul\":9968:10086   */\n      pop\n        /* \"#utility.yul\":9439:10093   */\n      swap3\n      pop\n      swap3\n      swap1\n      pop\n      jump\t// out\n        /* \"#utility.yul\":10099:10573   */\n    tag_48:\n        /* \"#utility.yul\":10167:10173   */\n      0x00\n        /* \"#utility.yul\":10175:10181   */\n      dup1\n        /* \"#utility.yul\":10224:10226   */\n      0x40\n        /* \"#utility.yul\":10212:10221   */\n      dup4\n        /* \"#utility.yul\":10203:10210   */\n      dup6\n        /* \"#utility.yul\":10199:10222   */\n      sub\n        /* \"#utility.yul\":10195:10227   */\n      slt\n        /* \"#utility.yul\":10192:10311   */\n      iszero\n      tag_292\n      jumpi\n        /* \"#utility.yul\":10230:10309   */\n      tag_293\n      tag_120\n      jump\t// in\n    tag_293:\n        /* \"#utility.yul\":10192:10311   */\n    tag_292:\n        /* \"#utility.yul\":10350:10351   */\n      0x00\n        /* \"#utility.yul\":10375:10428   */\n      tag_294\n        /* \"#utility.yul\":10420:10427   */\n      dup6\n        /* \"#utility.yul\":10411:10417   */\n      dup3\n        /* \"#utility.yul\":10400:10409   */\n      dup7\n        /* \"#utility.yul\":10396:10418   */\n      add\n        /* \"#utility.yul\":10375:10428   */\n      tag_129\n      jump\t// in\n    tag_294:\n        /* \"#utility.yul\":10365:10428   */\n      swap3\n      pop\n        /* \"#utility.yul\":10321:10438   */\n      pop\n        /* \"#utility.yul\":10477:10479   */\n      0x20\n        /* \"#utility.yul\":10503:10556   */\n      tag_295\n        /* \"#utility.yul\":10548:10555   */\n      dup6\n        /* \"#utility.yul\":10539:10545   */\n      dup3\n        /* \"#utility.yul\":10528:10537   */\n      dup7\n        /* \"#utility.yul\":10524:10546   */\n      add\n        /* \"#utility.yul\":10503:10556   */\n      tag_125\n      jump\t// in\n    tag_295:\n        /* \"#utility.yul\":10493:10556   */\n      swap2\n      pop\n        /* \"#utility.yul\":10448:10566   */\n      pop\n        /* \"#utility.yul\":10099:10573   */\n      swap3\n      pop\n      swap3\n      swap1\n      pop\n      jump\t// out\n        /* \"#utility.yul\":10579:10805   */\n    tag_150:\n        /* \"#utility.yul\":10719:10753   */\n      0x50726f64756374547261636b65723a2050726f6475637420646f6573206e6f74\n        /* \"#utility.yul\":10715:10716   */\n      0x00\n        /* \"#utility.yul\":10707:10713   */\n      dup3\n        /* \"#utility.yul\":10703:10717   */\n      add\n        /* \"#utility.yul\":10696:10754   */\n      mstore\n        /* \"#utility.yul\":10788:10797   */\n      0x2065786973742e00000000000000000000000000000000000000000000000000\n        /* \"#utility.yul\":10783:10785   */\n      0x20\n        /* \"#utility.yul\":10775:10781   */\n      dup3\n        /* \"#utility.yul\":10771:10786   */\n      add\n        /* \"#utility.yul\":10764:10798   */\n      mstore\n        /* \"#utility.yul\":10579:10805   */\n      pop\n      jump\t// out\n        /* \"#utility.yul\":10811:11177   */\n    tag_151:\n        /* \"#utility.yul\":10953:10956   */\n      0x00\n        /* \"#utility.yul\":10974:11041   */\n      tag_298\n        /* \"#utility.yul\":11038:11040   */\n      0x27\n        /* \"#utility.yul\":11033:11036   */\n      dup4\n        /* \"#utility.yul\":10974:11041   */\n      tag_138\n      jump\t// in\n    tag_298:\n        /* \"#utility.yul\":10967:11041   */\n      swap2\n      pop\n        /* \"#utility.yul\":11050:11143   */\n      tag_299\n        /* \"#utility.yul\":11139:11142   */\n      dup3\n        /* \"#utility.yul\":11050:11143   */\n      tag_150\n      jump\t// in\n    tag_299:\n        /* \"#utility.yul\":11168:11170   */\n      0x40\n        /* \"#utility.yul\":11163:11166   */\n      dup3\n        /* \"#utility.yul\":11159:11171   */\n      add\n        /* \"#utility.yul\":11152:11171   */\n      swap1\n      pop\n        /* \"#utility.yul\":10811:11177   */\n      swap2\n      swap1\n      pop\n      jump\t// out\n        /* \"#utility.yul\":11183:11602   */\n    tag_62:\n        /* \"#utility.yul\":11349:11353   */\n      0x00\n        /* \"#utility.yul\":11387:11389   */\n      0x20\n        /* \"#utility.yul\":11376:11385   */\n      dup3\n        /* \"#utility.yul\":11372:11390   */\n      add\n        /* \"#utility.yul\":11364:11390   */\n      swap1\n      pop\n        /* \"#utility.yul\":11436:11445   */\n      dup2\n        /* \"#utility.yul\":11430:11434   */\n      dup2\n        /* \"#utility.yul\":11426:11446   */\n      sub\n        /* \"#utility.yul\":11422:11423   */\n      0x00\n        /* \"#utility.yul\":11411:11420   */\n      dup4\n        /* \"#utility.yul\":11407:11424   */\n      add\n        /* \"#utility.yul\":11400:11447   */\n      mstore\n        /* \"#utility.yul\":11464:11595   */\n      tag_301\n        /* \"#utility.yul\":11590:11594   */\n      dup2\n        /* \"#utility.yul\":11464:11595   */\n      tag_151\n      jump\t// in\n    tag_301:\n        /* \"#utility.yul\":11456:11595   */\n      swap1\n      pop\n        /* \"#utility.yul\":11183:11602   */\n      swap2\n      swap1\n      pop\n      jump\t// out\n        /* \"#utility.yul\":11608:11788   */\n    tag_152:\n        /* \"#utility.yul\":11656:11733   */\n      0x4e487b7100000000000000000000000000000000000000000000000000000000\n        /* \"#utility.yul\":11653:11654   */\n      0x00\n        /* \"#utility.yul\":11646:11734   */\n      mstore\n        /* \"#utility.yul\":11753:11757   */\n      0x22\n        /* \"#utility.yul\":11750:11751   */\n      0x04\n        /* \"#utility.yul\":11743:11758   */\n      mstore\n        /* \"#utility.yul\":11777:11781   */\n      0x24\n        /* \"#utility.yul\":11774:11775   */\n      0x00\n        /* \"#utility.yul\":11767:11782   */\n      revert\n        /* \"#utility.yul\":11794:12114   */\n    tag_64:\n        /* \"#utility.yul\":11838:11844   */\n      0x00\n        /* \"#utility.yul\":11875:11876   */\n      0x02\n        /* \"#utility.yul\":11869:11873   */\n      dup3\n        /* \"#utility.yul\":11865:11877   */\n      div\n        /* \"#utility.yul\":11855:11877   */\n      swap1\n      pop\n        /* \"#utility.yul\":11922:11923   */\n      0x01\n        /* \"#utility.yul\":11916:11920   */\n      dup3\n        /* \"#utility.yul\":11912:11924   */\n      and\n        /* \"#utility.yul\":11943:11961   */\n      dup1\n        /* \"#utility.yul\":11933:12014   */\n      tag_304\n      jumpi\n        /* \"#utility.yul\":11999:12003   */\n      0x7f\n        /* \"#utility.yul\":11991:11997   */\n      dup3\n        /* \"#utility.yul\":11987:12004   */\n      and\n        /* \"#utility.yul\":11977:12004   */\n      swap2\n      pop\n        /* \"#utility.yul\":11933:12014   */\n    tag_304:\n        /* \"#utility.yul\":12061:12063   */\n      0x20\n        /* \"#utility.yul\":12053:12059   */\n      dup3\n        /* \"#utility.yul\":12050:12064   */\n      lt\n        /* \"#utility.yul\":12030:12048   */\n      dup2\n        /* \"#utility.yul\":12027:12065   */\n      sub\n        /* \"#utility.yul\":12024:12108   */\n      tag_305\n      jumpi\n        /* \"#utility.yul\":12080:12098   */\n      tag_306\n      tag_152\n      jump\t// in\n    tag_306:\n        /* \"#utility.yul\":12024:12108   */\n    tag_305:\n        /* \"#utility.yul\":11845:12114   */\n      pop\n        /* \"#utility.yul\":11794:12114   */\n      swap2\n      swap1\n      pop\n      jump\t// out\n        /* \"#utility.yul\":12120:12302   */\n    tag_153:\n        /* \"#utility.yul\":12260:12294   */\n      0x4f776e61626c653a2063616c6c6572206973206e6f7420746865206f776e6572\n        /* \"#utility.yul\":12256:12257   */\n      0x00\n        /* \"#utility.yul\":12248:12254   */\n      dup3\n        /* \"#utility.yul\":12244:12258   */\n      add\n        /* \"#utility.yul\":12237:12295   */\n      mstore\n        /* \"#utility.yul\":12120:12302   */\n      pop\n      jump\t// out\n        /* \"#utility.yul\":12308:12674   */\n    tag_154:\n        /* \"#utility.yul\":12450:12453   */\n      0x00\n        /* \"#utility.yul\":12471:12538   */\n      tag_309\n        /* \"#utility.yul\":12535:12537   */\n      0x20\n        /* \"#utility.yul\":12530:12533   */\n      dup4\n        /* \"#utility.yul\":12471:12538   */\n      tag_138\n      jump\t// in\n    tag_309:\n        /* \"#utility.yul\":12464:12538   */\n      swap2\n      pop\n        /* \"#utility.yul\":12547:12640   */\n      tag_310\n        /* \"#utility.yul\":12636:12639   */\n      dup3\n        /* \"#utility.yul\":12547:12640   */\n      tag_153\n      jump\t// in\n    tag_310:\n        /* \"#utility.yul\":12665:12667   */\n      0x20\n        /* \"#utility.yul\":12660:12663   */\n      dup3\n        /* \"#utility.yul\":12656:12668   */\n      add\n        /* \"#utility.yul\":12649:12668   */\n      swap1\n      pop\n        /* \"#utility.yul\":12308:12674   */\n      swap2\n      swap1\n      pop\n      jump\t// out\n        /* \"#utility.yul\":12680:13099   */\n    tag_77:\n        /* \"#utility.yul\":12846:12850   */\n      0x00\n        /* \"#utility.yul\":12884:12886   */\n      0x20\n        /* \"#utility.yul\":12873:12882   */\n      dup3\n        /* \"#utility.yul\":12869:12887   */\n      add\n        /* \"#utility.yul\":12861:12887   */\n      swap1\n      pop\n        /* \"#utility.yul\":12933:12942   */\n      dup2\n        /* \"#utility.yul\":12927:12931   */\n      dup2\n        /* \"#utility.yul\":12923:12943   */\n      sub\n        /* \"#utility.yul\":12919:12920   */\n      0x00\n        /* \"#utility.yul\":12908:12917   */\n      dup4\n        /* \"#utility.yul\":12904:12921   */\n      add\n        /* \"#utility.yul\":12897:12944   */\n      mstore\n        /* \"#utility.yul\":12961:13092   */\n      tag_312\n        /* \"#utility.yul\":13087:13091   */\n      dup2\n        /* \"#utility.yul\":12961:13092   */\n      tag_154\n      jump\t// in\n    tag_312:\n        /* \"#utility.yul\":12953:13092   */\n      swap1\n      pop\n        /* \"#utility.yul\":12680:13099   */\n      swap2\n      swap1\n      pop\n      jump\t// out\n        /* \"#utility.yul\":13105:13336   */\n    tag_155:\n        /* \"#utility.yul\":13245:13279   */\n      0x57686974656c6973744d616e616765723a2041646472657373206973206e6f74\n        /* \"#utility.yul\":13241:13242   */\n      0x00\n        /* \"#utility.yul\":13233:13239   */\n      dup3\n        /* \"#utility.yul\":13229:13243   */\n      add\n        /* \"#utility.yul\":13222:13280   */\n      mstore\n        /* \"#utility.yul\":13314:13328   */\n      0x2077686974656c69737465640000000000000000000000000000000000000000\n        /* \"#utility.yul\":13309:13311   */\n      0x20\n        /* \"#utility.yul\":13301:13307   */\n      dup3\n        /* \"#utility.yul\":13297:13312   */\n      add\n        /* \"#utility.yul\":13290:13329   */\n      mstore\n        /* \"#utility.yul\":13105:13336   */\n      pop\n      jump\t// out\n        /* \"#utility.yul\":13342:13708   */\n    tag_156:\n        /* \"#utility.yul\":13484:13487   */\n      0x00\n        /* \"#utility.yul\":13505:13572   */\n      tag_315\n        /* \"#utility.yul\":13569:13571   */\n      0x2c\n        /* \"#utility.yul\":13564:13567   */\n      dup4\n        /* \"#utility.yul\":13505:13572   */\n      tag_138\n      jump\t// in\n    tag_315:\n        /* \"#utility.yul\":13498:13572   */\n      swap2\n      pop\n        /* \"#utility.yul\":13581:13674   */\n      tag_316\n        /* \"#utility.yul\":13670:13673   */\n      dup3\n        /* \"#utility.yul\":13581:13674   */\n      tag_155\n      jump\t// in\n    tag_316:\n        /* \"#utility.yul\":13699:13701   */\n      0x40\n        /* \"#utility.yul\":13694:13697   */\n      dup3\n        /* \"#utility.yul\":13690:13702   */\n      add\n        /* \"#utility.yul\":13683:13702   */\n      swap1\n      pop\n        /* \"#utility.yul\":13342:13708   */\n      swap2\n      swap1\n      pop\n      jump\t// out\n        /* \"#utility.yul\":13714:14133   */\n    tag_81:\n        /* \"#utility.yul\":13880:13884   */\n      0x00\n        /* \"#utility.yul\":13918:13920   */\n      0x20\n        /* \"#utility.yul\":13907:13916   */\n      dup3\n        /* \"#utility.yul\":13903:13921   */\n      add\n        /* \"#utility.yul\":13895:13921   */\n      swap1\n      pop\n        /* \"#utility.yul\":13967:13976   */\n      dup2\n        /* \"#utility.yul\":13961:13965   */\n      dup2\n        /* \"#utility.yul\":13957:13977   */\n      sub\n        /* \"#utility.yul\":13953:13954   */\n      0x00\n        /* \"#utility.yul\":13942:13951   */\n      dup4\n        /* \"#utility.yul\":13938:13955   */\n      add\n        /* \"#utility.yul\":13931:13978   */\n      mstore\n        /* \"#utility.yul\":13995:14126   */\n      tag_318\n        /* \"#utility.yul\":14121:14125   */\n      dup2\n        /* \"#utility.yul\":13995:14126   */\n      tag_156\n      jump\t// in\n    tag_318:\n        /* \"#utility.yul\":13987:14126   */\n      swap1\n      pop\n        /* \"#utility.yul\":13714:14133   */\n      swap2\n      swap1\n      pop\n      jump\t// out\n        /* \"#utility.yul\":14139:14366   */\n    tag_157:\n        /* \"#utility.yul\":14279:14313   */\n      0x57686974656c6973744d616e616765723a20596f7520617265206e6f74206175\n        /* \"#utility.yul\":14275:14276   */\n      0x00\n        /* \"#utility.yul\":14267:14273   */\n      dup3\n        /* \"#utility.yul\":14263:14277   */\n      add\n        /* \"#utility.yul\":14256:14314   */\n      mstore\n        /* \"#utility.yul\":14348:14358   */\n      0x74686f72697a6564000000000000000000000000000000000000000000000000\n        /* \"#utility.yul\":14343:14345   */\n      0x20\n        /* \"#utility.yul\":14335:14341   */\n      dup3\n        /* \"#utility.yul\":14331:14346   */\n      add\n        /* \"#utility.yul\":14324:14359   */\n      mstore\n        /* \"#utility.yul\":14139:14366   */\n      pop\n      jump\t// out\n        /* \"#utility.yul\":14372:14738   */\n    tag_158:\n        /* \"#utility.yul\":14514:14517   */\n      0x00\n        /* \"#utility.yul\":14535:14602   */\n      tag_321\n        /* \"#utility.yul\":14599:14601   */\n      0x28\n        /* \"#utility.yul\":14594:14597   */\n      dup4\n        /* \"#utility.yul\":14535:14602   */\n      tag_138\n      jump\t// in\n    tag_321:\n        /* \"#utility.yul\":14528:14602   */\n      swap2\n      pop\n        /* \"#utility.yul\":14611:14704   */\n      tag_322\n        /* \"#utility.yul\":14700:14703   */\n      dup3\n        /* \"#utility.yul\":14611:14704   */\n      tag_157\n      jump\t// in\n    tag_322:\n        /* \"#utility.yul\":14729:14731   */\n      0x40\n        /* \"#utility.yul\":14724:14727   */\n      dup3\n        /* \"#utility.yul\":14720:14732   */\n      add\n        /* \"#utility.yul\":14713:14732   */\n      swap1\n      pop\n        /* \"#utility.yul\":14372:14738   */\n      swap2\n      swap1\n      pop\n      jump\t// out\n        /* \"#utility.yul\":14744:15163   */\n    tag_85:\n        /* \"#utility.yul\":14910:14914   */\n      0x00\n        /* \"#utility.yul\":14948:14950   */\n      0x20\n        /* \"#utility.yul\":14937:14946   */\n      dup3\n        /* \"#utility.yul\":14933:14951   */\n      add\n        /* \"#utility.yul\":14925:14951   */\n      swap1\n      pop\n        /* \"#utility.yul\":14997:15006   */\n      dup2\n        /* \"#utility.yul\":14991:14995   */\n      dup2\n        /* \"#utility.yul\":14987:15007   */\n      sub\n        /* \"#utility.yul\":14983:14984   */\n      0x00\n        /* \"#utility.yul\":14972:14981   */\n      dup4\n        /* \"#utility.yul\":14968:14985   */\n      add\n        /* \"#utility.yul\":14961:15008   */\n      mstore\n        /* \"#utility.yul\":15025:15156   */\n      tag_324\n        /* \"#utility.yul\":15151:15155   */\n      dup2\n        /* \"#utility.yul\":15025:15156   */\n      tag_158\n      jump\t// in\n    tag_324:\n        /* \"#utility.yul\":15017:15156   */\n      swap1\n      pop\n        /* \"#utility.yul\":14744:15163   */\n      swap2\n      swap1\n      pop\n      jump\t// out\n        /* \"#utility.yul\":15169:15349   */\n    tag_159:\n        /* \"#utility.yul\":15217:15294   */\n      0x4e487b7100000000000000000000000000000000000000000000000000000000\n        /* \"#utility.yul\":15214:15215   */\n      0x00\n        /* \"#utility.yul\":15207:15295   */\n      mstore\n        /* \"#utility.yul\":15314:15318   */\n      0x11\n        /* \"#utility.yul\":15311:15312   */\n      0x04\n        /* \"#utility.yul\":15304:15319   */\n      mstore\n        /* \"#utility.yul\":15338:15342   */\n      0x24\n        /* \"#utility.yul\":15335:15336   */\n      0x00\n        /* \"#utility.yul\":15328:15343   */\n      revert\n        /* \"#utility.yul\":15355:15588   */\n    tag_88:\n        /* \"#utility.yul\":15394:15397   */\n      0x00\n        /* \"#utility.yul\":15417:15441   */\n      tag_327\n        /* \"#utility.yul\":15435:15440   */\n      dup3\n        /* \"#utility.yul\":15417:15441   */\n      tag_117\n      jump\t// in\n    tag_327:\n        /* \"#utility.yul\":15408:15441   */\n      swap2\n      pop\n        /* \"#utility.yul\":15463:15529   */\n      0xffffffffffffffffffffffffffffffffffffffffffffffffffffffffffffffff\n        /* \"#utility.yul\":15456:15461   */\n      dup3\n        /* \"#utility.yul\":15453:15530   */\n      sub\n        /* \"#utility.yul\":15450:15553   */\n      tag_328\n      jumpi\n        /* \"#utility.yul\":15533:15551   */\n      tag_329\n      tag_159\n      jump\t// in\n    tag_329:\n        /* \"#utility.yul\":15450:15553   */\n    tag_328:\n        /* \"#utility.yul\":15580:15581   */\n      0x01\n        /* \"#utility.yul\":15573:15578   */\n      dup3\n        /* \"#utility.yul\":15569:15582   */\n      add\n        /* \"#utility.yul\":15562:15582   */\n      swap1\n      pop\n        /* \"#utility.yul\":15355:15588   */\n      swap2\n      swap1\n      pop\n      jump\t// out\n        /* \"#utility.yul\":15594:15735   */\n    tag_160:\n        /* \"#utility.yul\":15643:15647   */\n      0x00\n        /* \"#utility.yul\":15666:15669   */\n      dup2\n        /* \"#utility.yul\":15658:15669   */\n      swap1\n      pop\n        /* \"#utility.yul\":15689:15692   */\n      dup2\n        /* \"#utility.yul\":15686:15687   */\n      0x00\n        /* \"#utility.yul\":15679:15693   */\n      mstore\n        /* \"#utility.yul\":15723:15727   */\n      0x20\n        /* \"#utility.yul\":15720:15721   */\n      0x00\n        /* \"#utility.yul\":15710:15728   */\n      keccak256\n        /* \"#utility.yul\":15702:15728   */\n      swap1\n      pop\n        /* \"#utility.yul\":15594:15735   */\n      swap2\n      swap1\n      pop\n      jump\t// out\n        /* \"#utility.yul\":15741:15834   */\n    tag_161:\n        /* \"#utility.yul\":15778:15784   */\n      0x00\n        /* \"#utility.yul\":15825:15827   */\n      0x20\n        /* \"#utility.yul\":15820:15822   */\n      0x1f\n        /* \"#utility.yul\":15813:15818   */\n      dup4\n        /* \"#utility.yul\":15809:15823   */\n      add\n        /* \"#utility.yul\":15805:15828   */\n      div\n        /* \"#utility.yul\":15795:15828   */\n      swap1\n      pop\n        /* \"#utility.yul\":15741:15834   */\n      swap2\n      swap1\n      pop\n      jump\t// out\n        /* \"#utility.yul\":15840:15947   */\n    tag_162:\n        /* \"#utility.yul\":15884:15892   */\n      0x00\n        /* \"#utility.yul\":15934:15939   */\n      dup3\n        /* \"#utility.yul\":15928:15932   */\n      dup3\n        /* \"#utility.yul\":15924:15940   */\n      shl\n        /* \"#utility.yul\":15903:15940   */\n      swap1\n      pop\n        /* \"#utility.yul\":15840:15947   */\n      swap3\n      swap2\n      pop\n      pop\n      jump\t// out\n        /* \"#utility.yul\":15953:16346   */\n    tag_163:\n        /* \"#utility.yul\":16022:16028   */\n      0x00\n        /* \"#utility.yul\":16072:16073   */\n      0x08\n        /* \"#utility.yul\":16060:16070   */\n      dup4\n        /* \"#utility.yul\":16056:16074   */\n      mul\n        /* \"#utility.yul\":16095:16192   */\n      tag_334\n        /* \"#utility.yul\":16125:16191   */\n      0xffffffffffffffffffffffffffffffffffffffffffffffffffffffffffffffff\n        /* \"#utility.yul\":16114:16123   */\n      dup3\n        /* \"#utility.yul\":16095:16192   */\n      tag_162\n      jump\t// in\n    tag_334:\n        /* \"#utility.yul\":16213:16252   */\n      tag_335\n        /* \"#utility.yul\":16243:16251   */\n      dup7\n        /* \"#utility.yul\":16232:16241   */\n      dup4\n        /* \"#utility.yul\":16213:16252   */\n      tag_162\n      jump\t// in\n    tag_335:\n        /* \"#utility.yul\":16201:16252   */\n      swap6\n      pop\n        /* \"#utility.yul\":16285:16289   */\n      dup1\n        /* \"#utility.yul\":16281:16290   */\n      not\n        /* \"#utility.yul\":16274:16279   */\n      dup5\n        /* \"#utility.yul\":16270:16291   */\n      and\n        /* \"#utility.yul\":16261:16291   */\n      swap4\n      pop\n        /* \"#utility.yul\":16334:16338   */\n      dup1\n        /* \"#utility.yul\":16324:16332   */\n      dup7\n        /* \"#utility.yul\":16320:16339   */\n      and\n        /* \"#utility.yul\":16313:16318   */\n      dup5\n        /* \"#utility.yul\":16310:16340   */\n      or\n        /* \"#utility.yul\":16300:16340   */\n      swap3\n      pop\n        /* \"#utility.yul\":16029:16346   */\n      pop\n      pop\n        /* \"#utility.yul\":15953:16346   */\n      swap4\n      swap3\n      pop\n      pop\n      pop\n      jump\t// out\n        /* \"#utility.yul\":16352:16412   */\n    tag_164:\n        /* \"#utility.yul\":16380:16383   */\n      0x00\n        /* \"#utility.yul\":16401:16406   */\n      dup2\n        /* \"#utility.yul\":16394:16406   */\n      swap1\n      pop\n        /* \"#utility.yul\":16352:16412   */\n      swap2\n      swap1\n      pop\n      jump\t// out\n        /* \"#utility.yul\":16418:16560   */\n    tag_165:\n        /* \"#utility.yul\":16468:16477   */\n      0x00\n        /* \"#utility.yul\":16501:16554   */\n      tag_338\n        /* \"#utility.yul\":16519:16553   */\n      tag_339\n        /* \"#utility.yul\":16528:16552   */\n      tag_340\n        /* \"#utility.yul\":16546:16551   */\n      dup5\n        /* \"#utility.yul\":16528:16552   */\n      tag_117\n      jump\t// in\n    tag_340:\n        /* \"#utility.yul\":16519:16553   */\n      tag_164\n      jump\t// in\n    tag_339:\n        /* \"#utility.yul\":16501:16554   */\n      tag_117\n      jump\t// in\n    tag_338:\n        /* \"#utility.yul\":16488:16554   */\n      swap1\n      pop\n        /* \"#utility.yul\":16418:16560   */\n      swap2\n      swap1\n      pop\n      jump\t// out\n        /* \"#utility.yul\":16566:16641   */\n    tag_166:\n        /* \"#utility.yul\":16609:16612   */\n      0x00\n        /* \"#utility.yul\":16630:16635   */\n      dup2\n        /* \"#utility.yul\":16623:16635   */\n      swap1\n      pop\n        /* \"#utility.yul\":16566:16641   */\n      swap2\n      swap1\n      pop\n      jump\t// out\n        /* \"#utility.yul\":16647:16916   */\n    tag_167:\n        /* \"#utility.yul\":16757:16796   */\n      tag_343\n        /* \"#utility.yul\":16788:16795   */\n      dup4\n        /* \"#utility.yul\":16757:16796   */\n      tag_165\n      jump\t// in\n    tag_343:\n        /* \"#utility.yul\":16818:16909   */\n      tag_344\n        /* \"#utility.yul\":16867:16908   */\n      tag_345\n        /* \"#utility.yul\":16891:16907   */\n      dup3\n        /* \"#utility.yul\":16867:16908   */\n      tag_166\n      jump\t// in\n    tag_345:\n        /* \"#utility.yul\":16859:16865   */\n      dup5\n        /* \"#utility.yul\":16852:16856   */\n      dup5\n        /* \"#utility.yul\":16846:16857   */\n      sload\n        /* \"#utility.yul\":16818:16909   */\n      tag_163\n      jump\t// in\n    tag_344:\n        /* \"#utility.yul\":16812:16816   */\n      dup3\n        /* \"#utility.yul\":16805:16910   */\n      sstore\n        /* \"#utility.yul\":16723:16916   */\n      pop\n        /* \"#utility.yul\":16647:16916   */\n      pop\n      pop\n      pop\n      jump\t// out\n        /* \"#utility.yul\":16922:16995   */\n    tag_168:\n        /* \"#utility.yul\":16967:16970   */\n      0x00\n        /* \"#utility.yul\":16922:16995   */\n      swap1\n      jump\t// out\n        /* \"#utility.yul\":17001:17190   */\n    tag_169:\n        /* \"#utility.yul\":17078:17110   */\n      tag_348\n      tag_168\n      jump\t// in\n    tag_348:\n        /* \"#utility.yul\":17119:17184   */\n      tag_349\n        /* \"#utility.yul\":17177:17183   */\n      dup2\n        /* \"#utility.yul\":17169:17175   */\n      dup5\n        /* \"#utility.yul\":17163:17167   */\n      dup5\n        /* \"#utility.yul\":17119:17184   */\n      tag_167\n      jump\t// in\n    tag_349:\n        /* \"#utility.yul\":17054:17190   */\n      pop\n        /* \"#utility.yul\":17001:17190   */\n      pop\n      pop\n      jump\t// out\n        /* \"#utility.yul\":17196:17382   */\n    tag_170:\n        /* \"#utility.yul\":17256:17376   */\n    tag_351:\n        /* \"#utility.yul\":17273:17276   */\n      dup2\n        /* \"#utility.yul\":17266:17271   */\n      dup2\n        /* \"#utility.yul\":17263:17277   */\n      lt\n        /* \"#utility.yul\":17256:17376   */\n      iszero\n      tag_353\n      jumpi\n        /* \"#utility.yul\":17327:17366   */\n      tag_354\n        /* \"#utility.yul\":17364:17365   */\n      0x00\n        /* \"#utility.yul\":17357:17362   */\n      dup3\n        /* \"#utility.yul\":17327:17366   */\n      tag_169\n      jump\t// in\n    tag_354:\n        /* \"#utility.yul\":17300:17301   */\n      0x01\n        /* \"#utility.yul\":17293:17298   */\n      dup2\n        /* \"#utility.yul\":17289:17302   */\n      add\n        /* \"#utility.yul\":17280:17302   */\n      swap1\n      pop\n        /* \"#utility.yul\":17256:17376   */\n      jump(tag_351)\n    tag_353:\n        /* \"#utility.yul\":17196:17382   */\n      pop\n      pop\n      jump\t// out\n        /* \"#utility.yul\":17388:17931   */\n    tag_171:\n        /* \"#utility.yul\":17489:17491   */\n      0x1f\n        /* \"#utility.yul\":17484:17487   */\n      dup3\n        /* \"#utility.yul\":17481:17492   */\n      gt\n        /* \"#utility.yul\":17478:17924   */\n      iszero\n      tag_356\n      jumpi\n        /* \"#utility.yul\":17523:17561   */\n      tag_357\n        /* \"#utility.yul\":17555:17560   */\n      dup2\n        /* \"#utility.yul\":17523:17561   */\n      tag_160\n      jump\t// in\n    tag_357:\n        /* \"#utility.yul\":17607:17636   */\n      tag_358\n        /* \"#utility.yul\":17625:17635   */\n      dup5\n        /* \"#utility.yul\":17607:17636   */\n      tag_161\n      jump\t// in\n    tag_358:\n        /* \"#utility.yul\":17597:17605   */\n      dup2\n        /* \"#utility.yul\":17593:17637   */\n      add\n        /* \"#utility.yul\":17790:17792   */\n      0x20\n        /* \"#utility.yul\":17778:17788   */\n      dup6\n        /* \"#utility.yul\":17775:17793   */\n      lt\n        /* \"#utility.yul\":17772:17821   */\n      iszero\n      tag_359\n      jumpi\n        /* \"#utility.yul\":17811:17819   */\n      dup2\n        /* \"#utility.yul\":17796:17819   */\n      swap1\n      pop\n        /* \"#utility.yul\":17772:17821   */\n    tag_359:\n        /* \"#utility.yul\":17834:17914   */\n      tag_360\n        /* \"#utility.yul\":17890:17912   */\n      tag_361\n        /* \"#utility.yul\":17908:17911   */\n      dup6\n        /* \"#utility.yul\":17890:17912   */\n      tag_161\n      jump\t// in\n    tag_361:\n        /* \"#utility.yul\":17880:17888   */\n      dup4\n        /* \"#utility.yul\":17876:17913   */\n      add\n        /* \"#utility.yul\":17863:17874   */\n      dup3\n        /* \"#utility.yul\":17834:17914   */\n      tag_170\n      jump\t// in\n    tag_360:\n        /* \"#utility.yul\":17493:17924   */\n      pop\n      pop\n        /* \"#utility.yul\":17478:17924   */\n    tag_356:\n        /* \"#utility.yul\":17388:17931   */\n      pop\n      pop\n      pop\n      jump\t// out\n        /* \"#utility.yul\":17937:18054   */\n    tag_172:\n        /* \"#utility.yul\":17991:17999   */\n      0x00\n        /* \"#utility.yul\":18041:18046   */\n      dup3\n        /* \"#utility.yul\":18035:18039   */\n      dup3\n        /* \"#utility.yul\":18031:18047   */\n      shr\n        /* \"#utility.yul\":18010:18047   */\n      swap1\n      pop\n        /* \"#utility.yul\":17937:18054   */\n      swap3\n      swap2\n      pop\n      pop\n      jump\t// out\n        /* \"#utility.yul\":18060:18229   */\n    tag_173:\n        /* \"#utility.yul\":18104:18110   */\n      0x00\n        /* \"#utility.yul\":18137:18188   */\n      tag_364\n        /* \"#utility.yul\":18185:18186   */\n      0x00\n        /* \"#utility.yul\":18181:18187   */\n      not\n        /* \"#utility.yul\":18173:18178   */\n      dup5\n        /* \"#utility.yul\":18170:18171   */\n      0x08\n        /* \"#utility.yul\":18166:18179   */\n      mul\n        /* \"#utility.yul\":18137:18188   */\n      tag_172\n      jump\t// in\n    tag_364:\n        /* \"#utility.yul\":18133:18189   */\n      not\n        /* \"#utility.yul\":18218:18222   */\n      dup1\n        /* \"#utility.yul\":18212:18216   */\n      dup4\n        /* \"#utility.yul\":18208:18223   */\n      and\n        /* \"#utility.yul\":18198:18223   */\n      swap2\n      pop\n        /* \"#utility.yul\":18111:18229   */\n      pop\n        /* \"#utility.yul\":18060:18229   */\n      swap3\n      swap2\n      pop\n      pop\n      jump\t// out\n        /* \"#utility.yul\":18234:18529   */\n    tag_174:\n        /* \"#utility.yul\":18310:18314   */\n      0x00\n        /* \"#utility.yul\":18456:18485   */\n      tag_366\n        /* \"#utility.yul\":18481:18484   */\n      dup4\n        /* \"#utility.yul\":18475:18479   */\n      dup4\n        /* \"#utility.yul\":18456:18485   */\n      tag_173\n      jump\t// in\n    tag_366:\n        /* \"#utility.yul\":18448:18485   */\n      swap2\n      pop\n        /* \"#utility.yul\":18518:18521   */\n      dup3\n        /* \"#utility.yul\":18515:18516   */\n      0x02\n        /* \"#utility.yul\":18511:18522   */\n      mul\n        /* \"#utility.yul\":18505:18509   */\n      dup3\n        /* \"#utility.yul\":18502:18523   */\n      or\n        /* \"#utility.yul\":18494:18523   */\n      swap1\n      pop\n        /* \"#utility.yul\":18234:18529   */\n      swap3\n      swap2\n      pop\n      pop\n      jump\t// out\n        /* \"#utility.yul\":18534:19929   */\n    tag_90:\n        /* \"#utility.yul\":18651:18688   */\n      tag_368\n        /* \"#utility.yul\":18684:18687   */\n      dup3\n        /* \"#utility.yul\":18651:18688   */\n      tag_131\n      jump\t// in\n    tag_368:\n        /* \"#utility.yul\":18753:18771   */\n      0xffffffffffffffff\n        /* \"#utility.yul\":18745:18751   */\n      dup2\n        /* \"#utility.yul\":18742:18772   */\n      gt\n        /* \"#utility.yul\":18739:18795   */\n      iszero\n      tag_369\n      jumpi\n        /* \"#utility.yul\":18775:18793   */\n      tag_370\n      tag_143\n      jump\t// in\n    tag_370:\n        /* \"#utility.yul\":18739:18795   */\n    tag_369:\n        /* \"#utility.yul\":18819:18857   */\n      tag_371\n        /* \"#utility.yul\":18851:18855   */\n      dup3\n        /* \"#utility.yul\":18845:18856   */\n      sload\n        /* \"#utility.yul\":18819:18857   */\n      tag_64\n      jump\t// in\n    tag_371:\n        /* \"#utility.yul\":18904:18971   */\n      tag_372\n        /* \"#utility.yul\":18964:18970   */\n      dup3\n        /* \"#utility.yul\":18956:18962   */\n      dup3\n        /* \"#utility.yul\":18950:18954   */\n      dup6\n        /* \"#utility.yul\":18904:18971   */\n      tag_171\n      jump\t// in\n    tag_372:\n        /* \"#utility.yul\":18998:18999   */\n      0x00\n        /* \"#utility.yul\":19022:19026   */\n      0x20\n        /* \"#utility.yul\":19009:19026   */\n      swap1\n      pop\n        /* \"#utility.yul\":19054:19056   */\n      0x1f\n        /* \"#utility.yul\":19046:19052   */\n      dup4\n        /* \"#utility.yul\":19043:19057   */\n      gt\n        /* \"#utility.yul\":19071:19072   */\n      0x01\n        /* \"#utility.yul\":19066:19684   */\n      dup2\n      eq\n      tag_374\n      jumpi\n        /* \"#utility.yul\":19728:19729   */\n      0x00\n        /* \"#utility.yul\":19745:19751   */\n      dup5\n        /* \"#utility.yul\":19742:19819   */\n      iszero\n      tag_375\n      jumpi\n        /* \"#utility.yul\":19794:19803   */\n      dup3\n        /* \"#utility.yul\":19789:19792   */\n      dup8\n        /* \"#utility.yul\":19785:19804   */\n      add\n        /* \"#utility.yul\":19779:19805   */\n      mload\n        /* \"#utility.yul\":19770:19805   */\n      swap1\n      pop\n        /* \"#utility.yul\":19742:19819   */\n    tag_375:\n        /* \"#utility.yul\":19845:19912   */\n      tag_376\n        /* \"#utility.yul\":19905:19911   */\n      dup6\n        /* \"#utility.yul\":19898:19903   */\n      dup3\n        /* \"#utility.yul\":19845:19912   */\n      tag_174\n      jump\t// in\n    tag_376:\n        /* \"#utility.yul\":19839:19843   */\n      dup7\n        /* \"#utility.yul\":19832:19913   */\n      sstore\n        /* \"#utility.yul\":19701:19923   */\n      pop\n        /* \"#utility.yul\":19036:19923   */\n      jump(tag_373)\n        /* \"#utility.yul\":19066:19684   */\n    tag_374:\n        /* \"#utility.yul\":19118:19122   */\n      0x1f\n        /* \"#utility.yul\":19114:19123   */\n      not\n        /* \"#utility.yul\":19106:19112   */\n      dup5\n        /* \"#utility.yul\":19102:19124   */\n      and\n        /* \"#utility.yul\":19152:19189   */\n      tag_377\n        /* \"#utility.yul\":19184:19188   */\n      dup7\n        /* \"#utility.yul\":19152:19189   */\n      tag_160\n      jump\t// in\n    tag_377:\n        /* \"#utility.yul\":19211:19212   */\n      0x00\n        /* \"#utility.yul\":19225:19433   */\n    tag_378:\n        /* \"#utility.yul\":19239:19246   */\n      dup3\n        /* \"#utility.yul\":19236:19237   */\n      dup2\n        /* \"#utility.yul\":19233:19247   */\n      lt\n        /* \"#utility.yul\":19225:19433   */\n      iszero\n      tag_380\n      jumpi\n        /* \"#utility.yul\":19318:19327   */\n      dup5\n        /* \"#utility.yul\":19313:19316   */\n      dup10\n        /* \"#utility.yul\":19309:19328   */\n      add\n        /* \"#utility.yul\":19303:19329   */\n      mload\n        /* \"#utility.yul\":19295:19301   */\n      dup3\n        /* \"#utility.yul\":19288:19330   */\n      sstore\n        /* \"#utility.yul\":19369:19370   */\n      0x01\n        /* \"#utility.yul\":19361:19367   */\n      dup3\n        /* \"#utility.yul\":19357:19371   */\n      add\n        /* \"#utility.yul\":19347:19371   */\n      swap2\n      pop\n        /* \"#utility.yul\":19416:19418   */\n      0x20\n        /* \"#utility.yul\":19405:19414   */\n      dup6\n        /* \"#utility.yul\":19401:19419   */\n      add\n        /* \"#utility.yul\":19388:19419   */\n      swap5\n      pop\n        /* \"#utility.yul\":19262:19266   */\n      0x20\n        /* \"#utility.yul\":19259:19260   */\n      dup2\n        /* \"#utility.yul\":19255:19267   */\n      add\n        /* \"#utility.yul\":19250:19267   */\n      swap1\n      pop\n        /* \"#utility.yul\":19225:19433   */\n      jump(tag_378)\n    tag_380:\n        /* \"#utility.yul\":19461:19467   */\n      dup7\n        /* \"#utility.yul\":19452:19459   */\n      dup4\n        /* \"#utility.yul\":19449:19468   */\n      lt\n        /* \"#utility.yul\":19446:19625   */\n      iszero\n      tag_381\n      jumpi\n        /* \"#utility.yul\":19519:19528   */\n      dup5\n        /* \"#utility.yul\":19514:19517   */\n      dup10\n        /* \"#utility.yul\":19510:19529   */\n      add\n        /* \"#utility.yul\":19504:19530   */\n      mload\n        /* \"#utility.yul\":19562:19610   */\n      tag_382\n        /* \"#utility.yul\":19604:19608   */\n      0x1f\n        /* \"#utility.yul\":19596:19602   */\n      dup10\n        /* \"#utility.yul\":19592:19609   */\n      and\n        /* \"#utility.yul\":19581:19590   */\n      dup3\n        /* \"#utility.yul\":19562:19610   */\n      tag_173\n      jump\t// in\n    tag_382:\n        /* \"#utility.yul\":19554:19560   */\n      dup4\n        /* \"#utility.yul\":19547:19611   */\n      sstore\n        /* \"#utility.yul\":19469:19625   */\n      pop\n        /* \"#utility.yul\":19446:19625   */\n    tag_381:\n        /* \"#utility.yul\":19671:19672   */\n      0x01\n        /* \"#utility.yul\":19667:19668   */\n      0x02\n        /* \"#utility.yul\":19659:19665   */\n      dup9\n        /* \"#utility.yul\":19655:19669   */\n      mul\n        /* \"#utility.yul\":19651:19673   */\n      add\n        /* \"#utility.yul\":19645:19649   */\n      dup9\n        /* \"#utility.yul\":19638:19674   */\n      sstore\n        /* \"#utility.yul\":19073:19684   */\n      pop\n      pop\n      pop\n        /* \"#utility.yul\":19036:19923   */\n    tag_373:\n      pop\n        /* \"#utility.yul\":18626:19929   */\n      pop\n      pop\n      pop\n        /* \"#utility.yul\":18534:19929   */\n      pop\n      pop\n      jump\t// out\n        /* \"#utility.yul\":19935:20358   */\n    tag_92:\n        /* \"#utility.yul\":20076:20080   */\n      0x00\n        /* \"#utility.yul\":20114:20116   */\n      0x40\n        /* \"#utility.yul\":20103:20112   */\n      dup3\n        /* \"#utility.yul\":20099:20117   */\n      add\n        /* \"#utility.yul\":20091:20117   */\n      swap1\n      pop\n        /* \"#utility.yul\":20163:20172   */\n      dup2\n        /* \"#utility.yul\":20157:20161   */\n      dup2\n        /* \"#utility.yul\":20153:20173   */\n      sub\n        /* \"#utility.yul\":20149:20150   */\n      0x00\n        /* \"#utility.yul\":20138:20147   */\n      dup4\n        /* \"#utility.yul\":20134:20151   */\n      add\n        /* \"#utility.yul\":20127:20174   */\n      mstore\n        /* \"#utility.yul\":20191:20269   */\n      tag_384\n        /* \"#utility.yul\":20264:20268   */\n      dup2\n        /* \"#utility.yul\":20255:20261   */\n      dup6\n        /* \"#utility.yul\":20191:20269   */\n      tag_139\n      jump\t// in\n    tag_384:\n        /* \"#utility.yul\":20183:20269   */\n      swap1\n      pop\n        /* \"#utility.yul\":20279:20351   */\n      tag_385\n        /* \"#utility.yul\":20347:20349   */\n      0x20\n        /* \"#utility.yul\":20336:20345   */\n      dup4\n        /* \"#utility.yul\":20332:20350   */\n      add\n        /* \"#utility.yul\":20323:20329   */\n      dup5\n        /* \"#utility.yul\":20279:20351   */\n      tag_118\n      jump\t// in\n    tag_385:\n        /* \"#utility.yul\":19935:20358   */\n      swap4\n      swap3\n      pop\n      pop\n      pop\n      jump\t// out\n        /* \"#utility.yul\":20364:20615   */\n    tag_175:\n        /* \"#utility.yul\":20504:20538   */\n      0x50726f64756374547261636b65723a204f6e6c79207468652063757272656e74\n        /* \"#utility.yul\":20500:20501   */\n      0x00\n        /* \"#utility.yul\":20492:20498   */\n      dup3\n        /* \"#utility.yul\":20488:20502   */\n      add\n        /* \"#utility.yul\":20481:20539   */\n      mstore\n        /* \"#utility.yul\":20573:20607   */\n      0x206f776e65722063616e207472616e7366657220746869732070726f64756374\n        /* \"#utility.yul\":20568:20570   */\n      0x20\n        /* \"#utility.yul\":20560:20566   */\n      dup3\n        /* \"#utility.yul\":20556:20571   */\n      add\n        /* \"#utility.yul\":20549:20608   */\n      mstore\n        /* \"#utility.yul\":20364:20615   */\n      pop\n      jump\t// out\n        /* \"#utility.yul\":20621:20987   */\n    tag_176:\n        /* \"#utility.yul\":20763:20766   */\n      0x00\n        /* \"#utility.yul\":20784:20851   */\n      tag_388\n        /* \"#utility.yul\":20848:20850   */\n      0x40\n        /* \"#utility.yul\":20843:20846   */\n      dup4\n        /* \"#utility.yul\":20784:20851   */\n      tag_138\n      jump\t// in\n    tag_388:\n        /* \"#utility.yul\":20777:20851   */\n      swap2\n      pop\n        /* \"#utility.yul\":20860:20953   */\n      tag_389\n        /* \"#utility.yul\":20949:20952   */\n      dup3\n        /* \"#utility.yul\":20860:20953   */\n      tag_175\n      jump\t// in\n    tag_389:\n        /* \"#utility.yul\":20978:20980   */\n      0x40\n        /* \"#utility.yul\":20973:20976   */\n      dup3\n        /* \"#utility.yul\":20969:20981   */\n      add\n        /* \"#utility.yul\":20962:20981   */\n      swap1\n      pop\n        /* \"#utility.yul\":20621:20987   */\n      swap2\n      swap1\n      pop\n      jump\t// out\n        /* \"#utility.yul\":20993:21412   */\n    tag_96:\n        /* \"#utility.yul\":21159:21163   */\n      0x00\n        /* \"#utility.yul\":21197:21199   */\n      0x20\n        /* \"#utility.yul\":21186:21195   */\n      dup3\n        /* \"#utility.yul\":21182:21200   */\n      add\n        /* \"#utility.yul\":21174:21200   */\n      swap1\n      pop\n        /* \"#utility.yul\":21246:21255   */\n      dup2\n        /* \"#utility.yul\":21240:21244   */\n      dup2\n        /* \"#utility.yul\":21236:21256   */\n      sub\n        /* \"#utility.yul\":21232:21233   */\n      0x00\n        /* \"#utility.yul\":21221:21230   */\n      dup4\n        /* \"#utility.yul\":21217:21234   */\n      add\n        /* \"#utility.yul\":21210:21257   */\n      mstore\n        /* \"#utility.yul\":21274:21405   */\n      tag_391\n        /* \"#utility.yul\":21400:21404   */\n      dup2\n        /* \"#utility.yul\":21274:21405   */\n      tag_176\n      jump\t// in\n    tag_391:\n        /* \"#utility.yul\":21266:21405   */\n      swap1\n      pop\n        /* \"#utility.yul\":20993:21412   */\n      swap2\n      swap1\n      pop\n      jump\t// out\n        /* \"#utility.yul\":21418:21654   */\n    tag_177:\n        /* \"#utility.yul\":21558:21592   */\n      0x50726f64756374547261636b65723a204e6577206f776e657220616464726573\n        /* \"#utility.yul\":21554:21555   */\n      0x00\n        /* \"#utility.yul\":21546:21552   */\n      dup3\n        /* \"#utility.yul\":21542:21556   */\n      add\n        /* \"#utility.yul\":21535:21593   */\n      mstore\n        /* \"#utility.yul\":21627:21646   */\n      0x732063616e6e6f74206265207a65726f2e000000000000000000000000000000\n        /* \"#utility.yul\":21622:21624   */\n      0x20\n        /* \"#utility.yul\":21614:21620   */\n      dup3\n        /* \"#utility.yul\":21610:21625   */\n      add\n        /* \"#utility.yul\":21603:21647   */\n      mstore\n        /* \"#utility.yul\":21418:21654   */\n      pop\n      jump\t// out\n        /* \"#utility.yul\":21660:22026   */\n    tag_178:\n        /* \"#utility.yul\":21802:21805   */\n      0x00\n        /* \"#utility.yul\":21823:21890   */\n      tag_394\n        /* \"#utility.yul\":21887:21889   */\n      0x31\n        /* \"#utility.yul\":21882:21885   */\n      dup4\n        /* \"#utility.yul\":21823:21890   */\n      tag_138\n      jump\t// in\n    tag_394:\n        /* \"#utility.yul\":21816:21890   */\n      swap2\n      pop\n        /* \"#utility.yul\":21899:21992   */\n      tag_395\n        /* \"#utility.yul\":21988:21991   */\n      dup3\n        /* \"#utility.yul\":21899:21992   */\n      tag_177\n      jump\t// in\n    tag_395:\n        /* \"#utility.yul\":22017:22019   */\n      0x40\n        /* \"#utility.yul\":22012:22015   */\n      dup3\n        /* \"#utility.yul\":22008:22020   */\n      add\n        /* \"#utility.yul\":22001:22020   */\n      swap1\n      pop\n        /* \"#utility.yul\":21660:22026   */\n      swap2\n      swap1\n      pop\n      jump\t// out\n        /* \"#utility.yul\":22032:22451   */\n    tag_99:\n        /* \"#utility.yul\":22198:22202   */\n      0x00\n        /* \"#utility.yul\":22236:22238   */\n      0x20\n        /* \"#utility.yul\":22225:22234   */\n      dup3\n        /* \"#utility.yul\":22221:22239   */\n      add\n        /* \"#utility.yul\":22213:22239   */\n      swap1\n      pop\n        /* \"#utility.yul\":22285:22294   */\n      dup2\n        /* \"#utility.yul\":22279:22283   */\n      dup2\n        /* \"#utility.yul\":22275:22295   */\n      sub\n        /* \"#utility.yul\":22271:22272   */\n      0x00\n        /* \"#utility.yul\":22260:22269   */\n      dup4\n        /* \"#utility.yul\":22256:22273   */\n      add\n        /* \"#utility.yul\":22249:22296   */\n      mstore\n        /* \"#utility.yul\":22313:22444   */\n      tag_397\n        /* \"#utility.yul\":22439:22443   */\n      dup2\n        /* \"#utility.yul\":22313:22444   */\n      tag_178\n      jump\t// in\n    tag_397:\n        /* \"#utility.yul\":22305:22444   */\n      swap1\n      pop\n        /* \"#utility.yul\":22032:22451   */\n      swap2\n      swap1\n      pop\n      jump\t// out\n        /* \"#utility.yul\":22457:22685   */\n    tag_179:\n        /* \"#utility.yul\":22597:22631   */\n      0x57686974656c6973744d616e616765723a2043616e6e6f7420616464207a6572\n        /* \"#utility.yul\":22593:22594   */\n      0x00\n        /* \"#utility.yul\":22585:22591   */\n      dup3\n        /* \"#utility.yul\":22581:22595   */\n      add\n        /* \"#utility.yul\":22574:22632   */\n      mstore\n        /* \"#utility.yul\":22666:22677   */\n      0x6f20616464726573730000000000000000000000000000000000000000000000\n        /* \"#utility.yul\":22661:22663   */\n      0x20\n        /* \"#utility.yul\":22653:22659   */\n      dup3\n        /* \"#utility.yul\":22649:22664   */\n      add\n        /* \"#utility.yul\":22642:22678   */\n      mstore\n        /* \"#utility.yul\":22457:22685   */\n      pop\n      jump\t// out\n        /* \"#utility.yul\":22691:23057   */\n    tag_180:\n        /* \"#utility.yul\":22833:22836   */\n      0x00\n        /* \"#utility.yul\":22854:22921   */\n      tag_400\n        /* \"#utility.yul\":22918:22920   */\n      0x29\n        /* \"#utility.yul\":22913:22916   */\n      dup4\n        /* \"#utility.yul\":22854:22921   */\n      tag_138\n      jump\t// in\n    tag_400:\n        /* \"#utility.yul\":22847:22921   */\n      swap2\n      pop\n        /* \"#utility.yul\":22930:23023   */\n      tag_401\n        /* \"#utility.yul\":23019:23022   */\n      dup3\n        /* \"#utility.yul\":22930:23023   */\n      tag_179\n      jump\t// in\n    tag_401:\n        /* \"#utility.yul\":23048:23050   */\n      0x40\n        /* \"#utility.yul\":23043:23046   */\n      dup3\n        /* \"#utility.yul\":23039:23051   */\n      add\n        /* \"#utility.yul\":23032:23051   */\n      swap1\n      pop\n        /* \"#utility.yul\":22691:23057   */\n      swap2\n      swap1\n      pop\n      jump\t// out\n        /* \"#utility.yul\":23063:23482   */\n    tag_106:\n        /* \"#utility.yul\":23229:23233   */\n      0x00\n        /* \"#utility.yul\":23267:23269   */\n      0x20\n        /* \"#utility.yul\":23256:23265   */\n      dup3\n        /* \"#utility.yul\":23252:23270   */\n      add\n        /* \"#utility.yul\":23244:23270   */\n      swap1\n      pop\n        /* \"#utility.yul\":23316:23325   */\n      dup2\n        /* \"#utility.yul\":23310:23314   */\n      dup2\n        /* \"#utility.yul\":23306:23326   */\n      sub\n        /* \"#utility.yul\":23302:23303   */\n      0x00\n        /* \"#utility.yul\":23291:23300   */\n      dup4\n        /* \"#utility.yul\":23287:23304   */\n      add\n        /* \"#utility.yul\":23280:23327   */\n      mstore\n        /* \"#utility.yul\":23344:23475   */\n      tag_403\n        /* \"#utility.yul\":23470:23474   */\n      dup2\n        /* \"#utility.yul\":23344:23475   */\n      tag_180\n      jump\t// in\n    tag_403:\n        /* \"#utility.yul\":23336:23475   */\n      swap1\n      pop\n        /* \"#utility.yul\":23063:23482   */\n      swap2\n      swap1\n      pop\n      jump\t// out\n        /* \"#utility.yul\":23488:23723   */\n    tag_181:\n        /* \"#utility.yul\":23628:23662   */\n      0x57686974656c6973744d616e616765723a204164647265737320697320616c72\n        /* \"#utility.yul\":23624:23625   */\n      0x00\n        /* \"#utility.yul\":23616:23622   */\n      dup3\n        /* \"#utility.yul\":23612:23626   */\n      add\n        /* \"#utility.yul\":23605:23663   */\n      mstore\n        /* \"#utility.yul\":23697:23715   */\n      0x656164792077686974656c697374656400000000000000000000000000000000\n        /* \"#utility.yul\":23692:23694   */\n      0x20\n        /* \"#utility.yul\":23684:23690   */\n      dup3\n        /* \"#utility.yul\":23680:23695   */\n      add\n        /* \"#utility.yul\":23673:23716   */\n      mstore\n        /* \"#utility.yul\":23488:23723   */\n      pop\n      jump\t// out\n        /* \"#utility.yul\":23729:24095   */\n    tag_182:\n        /* \"#utility.yul\":23871:23874   */\n      0x00\n        /* \"#utility.yul\":23892:23959   */\n      tag_406\n        /* \"#utility.yul\":23956:23958   */\n      0x30\n        /* \"#utility.yul\":23951:23954   */\n      dup4\n        /* \"#utility.yul\":23892:23959   */\n      tag_138\n      jump\t// in\n    tag_406:\n        /* \"#utility.yul\":23885:23959   */\n      swap2\n      pop\n        /* \"#utility.yul\":23968:24061   */\n      tag_407\n        /* \"#utility.yul\":24057:24060   */\n      dup3\n        /* \"#utility.yul\":23968:24061   */\n      tag_181\n      jump\t// in\n    tag_407:\n        /* \"#utility.yul\":24086:24088   */\n      0x40\n        /* \"#utility.yul\":24081:24084   */\n      dup3\n        /* \"#utility.yul\":24077:24089   */\n      add\n        /* \"#utility.yul\":24070:24089   */\n      swap1\n      pop\n        /* \"#utility.yul\":23729:24095   */\n      swap2\n      swap1\n      pop\n      jump\t// out\n        /* \"#utility.yul\":24101:24520   */\n    tag_109:\n        /* \"#utility.yul\":24267:24271   */\n      0x00\n        /* \"#utility.yul\":24305:24307   */\n      0x20\n        /* \"#utility.yul\":24294:24303   */\n      dup3\n        /* \"#utility.yul\":24290:24308   */\n      add\n        /* \"#utility.yul\":24282:24308   */\n      swap1\n      pop\n        /* \"#utility.yul\":24354:24363   */\n      dup2\n        /* \"#utility.yul\":24348:24352   */\n      dup2\n        /* \"#utility.yul\":24344:24364   */\n      sub\n        /* \"#utility.yul\":24340:24341   */\n      0x00\n        /* \"#utility.yul\":24329:24338   */\n      dup4\n        /* \"#utility.yul\":24325:24342   */\n      add\n        /* \"#utility.yul\":24318:24365   */\n      mstore\n        /* \"#utility.yul\":24382:24513   */\n      tag_409\n        /* \"#utility.yul\":24508:24512   */\n      dup2\n        /* \"#utility.yul\":24382:24513   */\n      tag_182\n      jump\t// in\n    tag_409:\n        /* \"#utility.yul\":24374:24513   */\n      swap1\n      pop\n        /* \"#utility.yul\":24101:24520   */\n      swap2\n      swap1\n      pop\n      jump\t// out\n        /* \"#utility.yul\":24526:24751   */\n    tag_183:\n        /* \"#utility.yul\":24666:24700   */\n      0x4f776e61626c653a206e6577206f776e657220697320746865207a65726f2061\n        /* \"#utility.yul\":24662:24663   */\n      0x00\n        /* \"#utility.yul\":24654:24660   */\n      dup3\n        /* \"#utility.yul\":24650:24664   */\n      add\n        /* \"#utility.yul\":24643:24701   */\n      mstore\n        /* \"#utility.yul\":24735:24743   */\n      0x6464726573730000000000000000000000000000000000000000000000000000\n        /* \"#utility.yul\":24730:24732   */\n      0x20\n        /* \"#utility.yul\":24722:24728   */\n      dup3\n        /* \"#utility.yul\":24718:24733   */\n      add\n        /* \"#utility.yul\":24711:24744   */\n      mstore\n        /* \"#utility.yul\":24526:24751   */\n      pop\n      jump\t// out\n        /* \"#utility.yul\":24757:25123   */\n    tag_184:\n        /* \"#utility.yul\":24899:24902   */\n      0x00\n        /* \"#utility.yul\":24920:24987   */\n      tag_412\n        /* \"#utility.yul\":24984:24986   */\n      0x26\n        /* \"#utility.yul\":24979:24982   */\n      dup4\n        /* \"#utility.yul\":24920:24987   */\n      tag_138\n      jump\t// in\n    tag_412:\n        /* \"#utility.yul\":24913:24987   */\n      swap2\n      pop\n        /* \"#utility.yul\":24996:25089   */\n      tag_413\n        /* \"#utility.yul\":25085:25088   */\n      dup3\n        /* \"#utility.yul\":24996:25089   */\n      tag_183\n      jump\t// in\n    tag_413:\n        /* \"#utility.yul\":25114:25116   */\n      0x40\n        /* \"#utility.yul\":25109:25112   */\n      dup3\n        /* \"#utility.yul\":25105:25117   */\n      add\n        /* \"#utility.yul\":25098:25117   */\n      swap1\n      pop\n        /* \"#utility.yul\":24757:25123   */\n      swap2\n      swap1\n      pop\n      jump\t// out\n        /* \"#utility.yul\":25129:25548   */\n    tag_116:\n        /* \"#utility.yul\":25295:25299   */\n      0x00\n        /* \"#utility.yul\":25333:25335   */\n      0x20\n        /* \"#utility.yul\":25322:25331   */\n      dup3\n        /* \"#utility.yul\":25318:25336   */\n      add\n        /* \"#utility.yul\":25310:25336   */\n      swap1\n      pop\n        /* \"#utility.yul\":25382:25391   */\n      dup2\n        /* \"#utility.yul\":25376:25380   */\n      dup2\n        /* \"#utility.yul\":25372:25392   */\n      sub\n        /* \"#utility.yul\":25368:25369   */\n      0x00\n        /* \"#utility.yul\":25357:25366   */\n      dup4\n        /* \"#utility.yul\":25353:25370   */\n      add\n        /* \"#utility.yul\":25346:25393   */\n      mstore\n        /* \"#utility.yul\":25410:25541   */\n      tag_415\n        /* \"#utility.yul\":25536:25540   */\n      dup2\n        /* \"#utility.yul\":25410:25541   */\n      tag_184\n      jump\t// in\n    tag_415:\n        /* \"#utility.yul\":25402:25541   */\n      swap1\n      pop\n        /* \"#utility.yul\":25129:25548   */\n      swap2\n      swap1\n      pop\n      jump\t// out\n\n    auxdata: 0xa264697066735822122090a7f78c57e0af955d757d277ebbb635112c6cde07419b252321dcdbf2488ceb64736f6c634300081a0033\n}\n",
				"bytecode": {
					"linkReferences": {},
					"object": "6080604052348015600e575f80fd5b50335f806101000a81548173ffffffffffffffffffffffffffffffffffffffff021916908373ffffffffffffffffffffffffffffffffffffffff1602179055505f8054906101000a900473ffffffffffffffffffffffffffffffffffffffff1673ffffffffffffffffffffffffffffffffffffffff165f73ffffffffffffffffffffffffffffffffffffffff167f8be0079c531659141344cd1fd0a4f28419497f9722a3daafe3b4186f6b6457e060405160405180910390a35f600381905550611caa806100db5f395ff3fe608060405234801561000f575f80fd5b506004361061009c575f3560e01c80638da5cb5b116100645780638da5cb5b1461016f578063b15247d91461018d578063e43059e5146101a9578063e43252d7146101c5578063f2fde38b146101e15761009c565b80631f16653b146100a05780633af32abf146100be5780636813b53b146100ee5780637acc0b201461011e5780638ab1d68114610153575b5f80fd5b6100a86101fd565b6040516100b59190610f2c565b60405180910390f35b6100d860048036038101906100d39190610fb0565b610203565b6040516100e59190610ff5565b60405180910390f35b61010860048036038101906101039190611038565b610255565b6040516101159190611177565b60405180910390f35b61013860048036038101906101339190611038565b61042c565b60405161014a969594939291906111ee565b60405180910390f35b61016d60048036038101906101689190610fb0565b610528565b005b6101776106d8565b6040516101849190611254565b60405180910390f35b6101a760048036038101906101a29190611399565b6106fb565b005b6101c360048036038101906101be91906113f3565b610922565b005b6101df60048036038101906101da9190610fb0565b610ae2565b005b6101fb60048036038101906101f69190610fb0565b610d01565b005b60035481565b5f60015f8373ffffffffffffffffffffffffffffffffffffffff1673ffffffffffffffffffffffffffffffffffffffff1681526020019081526020015f205f9054906101000a900460ff169050919050565b61025d610eb7565b5f60025f8481526020019081526020015f205f0154036102b2576040517f08c379a00000000000000000000000000000000000000000000000000000000081526004016102a9906114a1565b60405180910390fd5b60025f8381526020019081526020015f206040518060c00160405290815f82015481526020016001820180546102e7906114ec565b80601f0160208091040260200160405190810160405280929190818152602001828054610313906114ec565b801561035e5780601f106103355761010080835404028352916020019161035e565b820191905f5260205f20905b81548152906001019060200180831161034157829003601f168201915b5050505050815260200160028201548152602001600382015f9054906101000a900473ffffffffffffffffffffffffffffffffffffffff1673ffffffffffffffffffffffffffffffffffffffff1673ffffffffffffffffffffffffffffffffffffffff168152602001600482015f9054906101000a900473ffffffffffffffffffffffffffffffffffffffff1673ffffffffffffffffffffffffffffffffffffffff1673ffffffffffffffffffffffffffffffffffffffff1681526020016005820154815250509050919050565b6002602052805f5260405f205f91509050805f015490806001018054610451906114ec565b80601f016020809104026020016040519081016040528092919081815260200182805461047d906114ec565b80156104c85780601f1061049f576101008083540402835291602001916104c8565b820191905f5260205f20905b8154815290600101906020018083116104ab57829003601f168201915b505050505090806002015490806003015f9054906101000a900473ffffffffffffffffffffffffffffffffffffffff1690806004015f9054906101000a900473ffffffffffffffffffffffffffffffffffffffff16908060050154905086565b5f8054906101000a900473ffffffffffffffffffffffffffffffffffffffff1673ffffffffffffffffffffffffffffffffffffffff163373ffffffffffffffffffffffffffffffffffffffff16146105b5576040517f08c379a00000000000000000000000000000000000000000000000000000000081526004016105ac90611566565b60405180910390fd5b60015f8273ffffffffffffffffffffffffffffffffffffffff1673ffffffffffffffffffffffffffffffffffffffff1681526020019081526020015f205f9054906101000a900460ff1661063e576040517f08c379a0000000000000000000000000000000000000000000000000000000008152600401610635906115f4565b60405180910390fd5b5f60015f8373ffffffffffffffffffffffffffffffffffffffff1673ffffffffffffffffffffffffffffffffffffffff1681526020019081526020015f205f6101000a81548160ff0219169083151502179055508073ffffffffffffffffffffffffffffffffffffffff167f535611fb62fa2a833988f283b779e417e996813e44046f521d76c17b5943b08c60405160405180910390a250565b5f8054906101000a900473ffffffffffffffffffffffffffffffffffffffff1681565b60015f3373ffffffffffffffffffffffffffffffffffffffff1673ffffffffffffffffffffffffffffffffffffffff1681526020019081526020015f205f9054906101000a900460ff16610784576040517f08c379a000000000000000000000000000000000000000000000000000000000815260040161077b90611682565b60405180910390fd5b60035f815480929190610796906116cd565b91905055505f60035490506040518060c001604052808281526020018481526020018381526020013373ffffffffffffffffffffffffffffffffffffffff1681526020013373ffffffffffffffffffffffffffffffffffffffff1681526020014281525060025f8381526020019081526020015f205f820151815f0155602082015181600101908161082891906118b1565b50604082015181600201556060820151816003015f6101000a81548173ffffffffffffffffffffffffffffffffffffffff021916908373ffffffffffffffffffffffffffffffffffffffff1602179055506080820151816004015f6101000a81548173ffffffffffffffffffffffffffffffffffffffff021916908373ffffffffffffffffffffffffffffffffffffffff16021790555060a082015181600501559050503373ffffffffffffffffffffffffffffffffffffffff16817f27053d27a5eb2a68ec20c3e8b30cbfbbe7bb019458aaac90ba4606956f97c8d68585604051610915929190611980565b60405180910390a3505050565b3373ffffffffffffffffffffffffffffffffffffffff1660025f8481526020019081526020015f206004015f9054906101000a900473ffffffffffffffffffffffffffffffffffffffff1673ffffffffffffffffffffffffffffffffffffffff16146109c3576040517f08c379a00000000000000000000000000000000000000000000000000000000081526004016109ba90611a1e565b60405180910390fd5b5f73ffffffffffffffffffffffffffffffffffffffff168173ffffffffffffffffffffffffffffffffffffffff1603610a31576040517f08c379a0000000000000000000000000000000000000000000000000000000008152600401610a2890611aac565b60405180910390fd5b8060025f8481526020019081526020015f206004015f6101000a81548173ffffffffffffffffffffffffffffffffffffffff021916908373ffffffffffffffffffffffffffffffffffffffff1602179055508073ffffffffffffffffffffffffffffffffffffffff163373ffffffffffffffffffffffffffffffffffffffff16837fcef86d37ba3dc1d682967cde44d8050488734bf53166725b220b4d2e515e9e9360405160405180910390a45050565b5f8054906101000a900473ffffffffffffffffffffffffffffffffffffffff1673ffffffffffffffffffffffffffffffffffffffff163373ffffffffffffffffffffffffffffffffffffffff1614610b6f576040517f08c379a0000000000000000000000000000000000000000000000000000000008152600401610b6690611566565b60405180910390fd5b5f73ffffffffffffffffffffffffffffffffffffffff168173ffffffffffffffffffffffffffffffffffffffff1603610bdd576040517f08c379a0000000000000000000000000000000000000000000000000000000008152600401610bd490611b3a565b60405180910390fd5b60015f8273ffffffffffffffffffffffffffffffffffffffff1673ffffffffffffffffffffffffffffffffffffffff1681526020019081526020015f205f9054906101000a900460ff1615610c67576040517f08c379a0000000000000000000000000000000000000000000000000000000008152600401610c5e90611bc8565b60405180910390fd5b6001805f8373ffffffffffffffffffffffffffffffffffffffff1673ffffffffffffffffffffffffffffffffffffffff1681526020019081526020015f205f6101000a81548160ff0219169083151502179055508073ffffffffffffffffffffffffffffffffffffffff167f534d18c8ff24ba5980906d732f3075704749427353734fbbf05d50485643b12460405160405180910390a250565b5f8054906101000a900473ffffffffffffffffffffffffffffffffffffffff1673ffffffffffffffffffffffffffffffffffffffff163373ffffffffffffffffffffffffffffffffffffffff1614610d8e576040517f08c379a0000000000000000000000000000000000000000000000000000000008152600401610d8590611566565b60405180910390fd5b5f73ffffffffffffffffffffffffffffffffffffffff168173ffffffffffffffffffffffffffffffffffffffff1603610dfc576040517f08c379a0000000000000000000000000000000000000000000000000000000008152600401610df390611c56565b60405180910390fd5b8073ffffffffffffffffffffffffffffffffffffffff165f8054906101000a900473ffffffffffffffffffffffffffffffffffffffff1673ffffffffffffffffffffffffffffffffffffffff167f8be0079c531659141344cd1fd0a4f28419497f9722a3daafe3b4186f6b6457e060405160405180910390a3805f806101000a81548173ffffffffffffffffffffffffffffffffffffffff021916908373ffffffffffffffffffffffffffffffffffffffff16021790555050565b6040518060c001604052805f8152602001606081526020015f81526020015f73ffffffffffffffffffffffffffffffffffffffff1681526020015f73ffffffffffffffffffffffffffffffffffffffff1681526020015f81525090565b5f819050919050565b610f2681610f14565b82525050565b5f602082019050610f3f5f830184610f1d565b92915050565b5f604051905090565b5f80fd5b5f80fd5b5f73ffffffffffffffffffffffffffffffffffffffff82169050919050565b5f610f7f82610f56565b9050919050565b610f8f81610f75565b8114610f99575f80fd5b50565b5f81359050610faa81610f86565b92915050565b5f60208284031215610fc557610fc4610f4e565b5b5f610fd284828501610f9c565b91505092915050565b5f8115159050919050565b610fef81610fdb565b82525050565b5f6020820190506110085f830184610fe6565b92915050565b61101781610f14565b8114611021575f80fd5b50565b5f813590506110328161100e565b92915050565b5f6020828403121561104d5761104c610f4e565b5b5f61105a84828501611024565b91505092915050565b61106c81610f14565b82525050565b5f81519050919050565b5f82825260208201905092915050565b8281835e5f83830152505050565b5f601f19601f8301169050919050565b5f6110b482611072565b6110be818561107c565b93506110ce81856020860161108c565b6110d78161109a565b840191505092915050565b6110eb81610f75565b82525050565b5f60c083015f8301516111065f860182611063565b506020830151848203602086015261111e82826110aa565b91505060408301516111336040860182611063565b50606083015161114660608601826110e2565b50608083015161115960808601826110e2565b5060a083015161116c60a0860182611063565b508091505092915050565b5f6020820190508181035f83015261118f81846110f1565b905092915050565b5f82825260208201905092915050565b5f6111b182611072565b6111bb8185611197565b93506111cb81856020860161108c565b6111d48161109a565b840191505092915050565b6111e881610f75565b82525050565b5f60c0820190506112015f830189610f1d565b818103602083015261121381886111a7565b90506112226040830187610f1d565b61122f60608301866111df565b61123c60808301856111df565b61124960a0830184610f1d565b979650505050505050565b5f6020820190506112675f8301846111df565b92915050565b5f80fd5b5f80fd5b7f4e487b71000000000000000000000000000000000000000000000000000000005f52604160045260245ffd5b6112ab8261109a565b810181811067ffffffffffffffff821117156112ca576112c9611275565b5b80604052505050565b5f6112dc610f45565b90506112e882826112a2565b919050565b5f67ffffffffffffffff82111561130757611306611275565b5b6113108261109a565b9050602081019050919050565b828183375f83830152505050565b5f61133d611338846112ed565b6112d3565b90508281526020810184848401111561135957611358611271565b5b61136484828561131d565b509392505050565b5f82601f8301126113805761137f61126d565b5b813561139084826020860161132b565b91505092915050565b5f80604083850312156113af576113ae610f4e565b5b5f83013567ffffffffffffffff8111156113cc576113cb610f52565b5b6113d88582860161136c565b92505060206113e985828601611024565b9150509250929050565b5f806040838503121561140957611408610f4e565b5b5f61141685828601611024565b925050602061142785828601610f9c565b9150509250929050565b7f50726f64756374547261636b65723a2050726f6475637420646f6573206e6f745f8201527f2065786973742e00000000000000000000000000000000000000000000000000602082015250565b5f61148b602783611197565b915061149682611431565b604082019050919050565b5f6020820190508181035f8301526114b88161147f565b9050919050565b7f4e487b71000000000000000000000000000000000000000000000000000000005f52602260045260245ffd5b5f600282049050600182168061150357607f821691505b602082108103611516576115156114bf565b5b50919050565b7f4f776e61626c653a2063616c6c6572206973206e6f7420746865206f776e65725f82015250565b5f611550602083611197565b915061155b8261151c565b602082019050919050565b5f6020820190508181035f83015261157d81611544565b9050919050565b7f57686974656c6973744d616e616765723a2041646472657373206973206e6f745f8201527f2077686974656c69737465640000000000000000000000000000000000000000602082015250565b5f6115de602c83611197565b91506115e982611584565b604082019050919050565b5f6020820190508181035f83015261160b816115d2565b9050919050565b7f57686974656c6973744d616e616765723a20596f7520617265206e6f742061755f8201527f74686f72697a6564000000000000000000000000000000000000000000000000602082015250565b5f61166c602883611197565b915061167782611612565b604082019050919050565b5f6020820190508181035f83015261169981611660565b9050919050565b7f4e487b71000000000000000000000000000000000000000000000000000000005f52601160045260245ffd5b5f6116d782610f14565b91507fffffffffffffffffffffffffffffffffffffffffffffffffffffffffffffffff8203611709576117086116a0565b5b600182019050919050565b5f819050815f5260205f209050919050565b5f6020601f8301049050919050565b5f82821b905092915050565b5f600883026117707fffffffffffffffffffffffffffffffffffffffffffffffffffffffffffffffff82611735565b61177a8683611735565b95508019841693508086168417925050509392505050565b5f819050919050565b5f6117b56117b06117ab84610f14565b611792565b610f14565b9050919050565b5f819050919050565b6117ce8361179b565b6117e26117da826117bc565b848454611741565b825550505050565b5f90565b6117f66117ea565b6118018184846117c5565b505050565b5b81811015611824576118195f826117ee565b600181019050611807565b5050565b601f8211156118695761183a81611714565b61184384611726565b81016020851015611852578190505b61186661185e85611726565b830182611806565b50505b505050565b5f82821c905092915050565b5f6118895f198460080261186e565b1980831691505092915050565b5f6118a1838361187a565b9150826002028217905092915050565b6118ba82611072565b67ffffffffffffffff8111156118d3576118d2611275565b5b6118dd82546114ec565b6118e8828285611828565b5f60209050601f831160018114611919575f8415611907578287015190505b6119118582611896565b865550611978565b601f19841661192786611714565b5f5b8281101561194e57848901518255600182019150602085019450602081019050611929565b8683101561196b5784890151611967601f89168261187a565b8355505b6001600288020188555050505b505050505050565b5f6040820190508181035f83015261199881856111a7565b90506119a76020830184610f1d565b9392505050565b7f50726f64756374547261636b65723a204f6e6c79207468652063757272656e745f8201527f206f776e65722063616e207472616e7366657220746869732070726f64756374602082015250565b5f611a08604083611197565b9150611a13826119ae565b604082019050919050565b5f6020820190508181035f830152611a35816119fc565b9050919050565b7f50726f64756374547261636b65723a204e6577206f776e6572206164647265735f8201527f732063616e6e6f74206265207a65726f2e000000000000000000000000000000602082015250565b5f611a96603183611197565b9150611aa182611a3c565b604082019050919050565b5f6020820190508181035f830152611ac381611a8a565b9050919050565b7f57686974656c6973744d616e616765723a2043616e6e6f7420616464207a65725f8201527f6f20616464726573730000000000000000000000000000000000000000000000602082015250565b5f611b24602983611197565b9150611b2f82611aca565b604082019050919050565b5f6020820190508181035f830152611b5181611b18565b9050919050565b7f57686974656c6973744d616e616765723a204164647265737320697320616c725f8201527f656164792077686974656c697374656400000000000000000000000000000000602082015250565b5f611bb2603083611197565b9150611bbd82611b58565b604082019050919050565b5f6020820190508181035f830152611bdf81611ba6565b9050919050565b7f4f776e61626c653a206e6577206f776e657220697320746865207a65726f20615f8201527f6464726573730000000000000000000000000000000000000000000000000000602082015250565b5f611c40602683611197565b9150611c4b82611be6565b604082019050919050565b5f6020820190508181035f830152611c6d81611c34565b905091905056fea264697066735822122090a7f78c57e0af955d757d277ebbb635112c6cde07419b252321dcdbf2488ceb64736f6c634300081a0033",
					"opcodes": "PUSH1 0x80 PUSH1 0x40 MSTORE CALLVALUE DUP1 ISZERO PUSH1 0xE JUMPI PUSH0 DUP1 REVERT JUMPDEST POP CALLER PUSH0 DUP1 PUSH2 0x100 EXP DUP2 SLOAD DUP2 PUSH20 0xFFFFFFFFFFFFFFFFFFFFFFFFFFFFFFFFFFFFFFFF MUL NOT AND SWAP1 DUP4 PUSH20 0xFFFFFFFFFFFFFFFFFFFFFFFFFFFFFFFFFFFFFFFF AND MUL OR SWAP1 SSTORE POP PUSH0 DUP1 SLOAD SWAP1 PUSH2 0x100 EXP SWAP1 DIV PUSH20 0xFFFFFFFFFFFFFFFFFFFFFFFFFFFFFFFFFFFFFFFF AND PUSH20 0xFFFFFFFFFFFFFFFFFFFFFFFFFFFFFFFFFFFFFFFF AND PUSH0 PUSH20 0xFFFFFFFFFFFFFFFFFFFFFFFFFFFFFFFFFFFFFFFF AND PUSH32 0x8BE0079C531659141344CD1FD0A4F28419497F9722A3DAAFE3B4186F6B6457E0 PUSH1 0x40 MLOAD PUSH1 0x40 MLOAD DUP1 SWAP2 SUB SWAP1 LOG3 PUSH0 PUSH1 0x3 DUP2 SWAP1 SSTORE POP PUSH2 0x1CAA DUP1 PUSH2 0xDB PUSH0 CODECOPY PUSH0 RETURN INVALID PUSH1 0x80 PUSH1 0x40 MSTORE CALLVALUE DUP1 ISZERO PUSH2 0xF JUMPI PUSH0 DUP1 REVERT JUMPDEST POP PUSH1 0x4 CALLDATASIZE LT PUSH2 0x9C JUMPI PUSH0 CALLDATALOAD PUSH1 0xE0 SHR DUP1 PUSH4 0x8DA5CB5B GT PUSH2 0x64 JUMPI DUP1 PUSH4 0x8DA5CB5B EQ PUSH2 0x16F JUMPI DUP1 PUSH4 0xB15247D9 EQ PUSH2 0x18D JUMPI DUP1 PUSH4 0xE43059E5 EQ PUSH2 0x1A9 JUMPI DUP1 PUSH4 0xE43252D7 EQ PUSH2 0x1C5 JUMPI DUP1 PUSH4 0xF2FDE38B EQ PUSH2 0x1E1 JUMPI PUSH2 0x9C JUMP JUMPDEST DUP1 PUSH4 0x1F16653B EQ PUSH2 0xA0 JUMPI DUP1 PUSH4 0x3AF32ABF EQ PUSH2 0xBE JUMPI DUP1 PUSH4 0x6813B53B EQ PUSH2 0xEE JUMPI DUP1 PUSH4 0x7ACC0B20 EQ PUSH2 0x11E JUMPI DUP1 PUSH4 0x8AB1D681 EQ PUSH2 0x153 JUMPI JUMPDEST PUSH0 DUP1 REVERT JUMPDEST PUSH2 0xA8 PUSH2 0x1FD JUMP JUMPDEST PUSH1 0x40 MLOAD PUSH2 0xB5 SWAP2 SWAP1 PUSH2 0xF2C JUMP JUMPDEST PUSH1 0x40 MLOAD DUP1 SWAP2 SUB SWAP1 RETURN JUMPDEST PUSH2 0xD8 PUSH1 0x4 DUP1 CALLDATASIZE SUB DUP2 ADD SWAP1 PUSH2 0xD3 SWAP2 SWAP1 PUSH2 0xFB0 JUMP JUMPDEST PUSH2 0x203 JUMP JUMPDEST PUSH1 0x40 MLOAD PUSH2 0xE5 SWAP2 SWAP1 PUSH2 0xFF5 JUMP JUMPDEST PUSH1 0x40 MLOAD DUP1 SWAP2 SUB SWAP1 RETURN JUMPDEST PUSH2 0x108 PUSH1 0x4 DUP1 CALLDATASIZE SUB DUP2 ADD SWAP1 PUSH2 0x103 SWAP2 SWAP1 PUSH2 0x1038 JUMP JUMPDEST PUSH2 0x255 JUMP JUMPDEST PUSH1 0x40 MLOAD PUSH2 0x115 SWAP2 SWAP1 PUSH2 0x1177 JUMP JUMPDEST PUSH1 0x40 MLOAD DUP1 SWAP2 SUB SWAP1 RETURN JUMPDEST PUSH2 0x138 PUSH1 0x4 DUP1 CALLDATASIZE SUB DUP2 ADD SWAP1 PUSH2 0x133 SWAP2 SWAP1 PUSH2 0x1038 JUMP JUMPDEST PUSH2 0x42C JUMP JUMPDEST PUSH1 0x40 MLOAD PUSH2 0x14A SWAP7 SWAP6 SWAP5 SWAP4 SWAP3 SWAP2 SWAP1 PUSH2 0x11EE JUMP JUMPDEST PUSH1 0x40 MLOAD DUP1 SWAP2 SUB SWAP1 RETURN JUMPDEST PUSH2 0x16D PUSH1 0x4 DUP1 CALLDATASIZE SUB DUP2 ADD SWAP1 PUSH2 0x168 SWAP2 SWAP1 PUSH2 0xFB0 JUMP JUMPDEST PUSH2 0x528 JUMP JUMPDEST STOP JUMPDEST PUSH2 0x177 PUSH2 0x6D8 JUMP JUMPDEST PUSH1 0x40 MLOAD PUSH2 0x184 SWAP2 SWAP1 PUSH2 0x1254 JUMP JUMPDEST PUSH1 0x40 MLOAD DUP1 SWAP2 SUB SWAP1 RETURN JUMPDEST PUSH2 0x1A7 PUSH1 0x4 DUP1 CALLDATASIZE SUB DUP2 ADD SWAP1 PUSH2 0x1A2 SWAP2 SWAP1 PUSH2 0x1399 JUMP JUMPDEST PUSH2 0x6FB JUMP JUMPDEST STOP JUMPDEST PUSH2 0x1C3 PUSH1 0x4 DUP1 CALLDATASIZE SUB DUP2 ADD SWAP1 PUSH2 0x1BE SWAP2 SWAP1 PUSH2 0x13F3 JUMP JUMPDEST PUSH2 0x922 JUMP JUMPDEST STOP JUMPDEST PUSH2 0x1DF PUSH1 0x4 DUP1 CALLDATASIZE SUB DUP2 ADD SWAP1 PUSH2 0x1DA SWAP2 SWAP1 PUSH2 0xFB0 JUMP JUMPDEST PUSH2 0xAE2 JUMP JUMPDEST STOP JUMPDEST PUSH2 0x1FB PUSH1 0x4 DUP1 CALLDATASIZE SUB DUP2 ADD SWAP1 PUSH2 0x1F6 SWAP2 SWAP1 PUSH2 0xFB0 JUMP JUMPDEST PUSH2 0xD01 JUMP JUMPDEST STOP JUMPDEST PUSH1 0x3 SLOAD DUP2 JUMP JUMPDEST PUSH0 PUSH1 0x1 PUSH0 DUP4 PUSH20 0xFFFFFFFFFFFFFFFFFFFFFFFFFFFFFFFFFFFFFFFF AND PUSH20 0xFFFFFFFFFFFFFFFFFFFFFFFFFFFFFFFFFFFFFFFF AND DUP2 MSTORE PUSH1 0x20 ADD SWAP1 DUP2 MSTORE PUSH1 0x20 ADD PUSH0 KECCAK256 PUSH0 SWAP1 SLOAD SWAP1 PUSH2 0x100 EXP SWAP1 DIV PUSH1 0xFF AND SWAP1 POP SWAP2 SWAP1 POP JUMP JUMPDEST PUSH2 0x25D PUSH2 0xEB7 JUMP JUMPDEST PUSH0 PUSH1 0x2 PUSH0 DUP5 DUP2 MSTORE PUSH1 0x20 ADD SWAP1 DUP2 MSTORE PUSH1 0x20 ADD PUSH0 KECCAK256 PUSH0 ADD SLOAD SUB PUSH2 0x2B2 JUMPI PUSH1 0x40 MLOAD PUSH32 0x8C379A000000000000000000000000000000000000000000000000000000000 DUP2 MSTORE PUSH1 0x4 ADD PUSH2 0x2A9 SWAP1 PUSH2 0x14A1 JUMP JUMPDEST PUSH1 0x40 MLOAD DUP1 SWAP2 SUB SWAP1 REVERT JUMPDEST PUSH1 0x2 PUSH0 DUP4 DUP2 MSTORE PUSH1 0x20 ADD SWAP1 DUP2 MSTORE PUSH1 0x20 ADD PUSH0 KECCAK256 PUSH1 0x40 MLOAD DUP1 PUSH1 0xC0 ADD PUSH1 0x40 MSTORE SWAP1 DUP2 PUSH0 DUP3 ADD SLOAD DUP2 MSTORE PUSH1 0x20 ADD PUSH1 0x1 DUP3 ADD DUP1 SLOAD PUSH2 0x2E7 SWAP1 PUSH2 0x14EC JUMP JUMPDEST DUP1 PUSH1 0x1F ADD PUSH1 0x20 DUP1 SWAP2 DIV MUL PUSH1 0x20 ADD PUSH1 0x40 MLOAD SWAP1 DUP2 ADD PUSH1 0x40 MSTORE DUP1 SWAP3 SWAP2 SWAP1 DUP2 DUP2 MSTORE PUSH1 0x20 ADD DUP3 DUP1 SLOAD PUSH2 0x313 SWAP1 PUSH2 0x14EC JUMP JUMPDEST DUP1 ISZERO PUSH2 0x35E JUMPI DUP1 PUSH1 0x1F LT PUSH2 0x335 JUMPI PUSH2 0x100 DUP1 DUP4 SLOAD DIV MUL DUP4 MSTORE SWAP2 PUSH1 0x20 ADD SWAP2 PUSH2 0x35E JUMP JUMPDEST DUP3 ADD SWAP2 SWAP1 PUSH0 MSTORE PUSH1 0x20 PUSH0 KECCAK256 SWAP1 JUMPDEST DUP2 SLOAD DUP2 MSTORE SWAP1 PUSH1 0x1 ADD SWAP1 PUSH1 0x20 ADD DUP1 DUP4 GT PUSH2 0x341 JUMPI DUP3 SWAP1 SUB PUSH1 0x1F AND DUP3 ADD SWAP2 JUMPDEST POP POP POP POP POP DUP2 MSTORE PUSH1 0x20 ADD PUSH1 0x2 DUP3 ADD SLOAD DUP2 MSTORE PUSH1 0x20 ADD PUSH1 0x3 DUP3 ADD PUSH0 SWAP1 SLOAD SWAP1 PUSH2 0x100 EXP SWAP1 DIV PUSH20 0xFFFFFFFFFFFFFFFFFFFFFFFFFFFFFFFFFFFFFFFF AND PUSH20 0xFFFFFFFFFFFFFFFFFFFFFFFFFFFFFFFFFFFFFFFF AND PUSH20 0xFFFFFFFFFFFFFFFFFFFFFFFFFFFFFFFFFFFFFFFF AND DUP2 MSTORE PUSH1 0x20 ADD PUSH1 0x4 DUP3 ADD PUSH0 SWAP1 SLOAD SWAP1 PUSH2 0x100 EXP SWAP1 DIV PUSH20 0xFFFFFFFFFFFFFFFFFFFFFFFFFFFFFFFFFFFFFFFF AND PUSH20 0xFFFFFFFFFFFFFFFFFFFFFFFFFFFFFFFFFFFFFFFF AND PUSH20 0xFFFFFFFFFFFFFFFFFFFFFFFFFFFFFFFFFFFFFFFF AND DUP2 MSTORE PUSH1 0x20 ADD PUSH1 0x5 DUP3 ADD SLOAD DUP2 MSTORE POP POP SWAP1 POP SWAP2 SWAP1 POP JUMP JUMPDEST PUSH1 0x2 PUSH1 0x20 MSTORE DUP1 PUSH0 MSTORE PUSH1 0x40 PUSH0 KECCAK256 PUSH0 SWAP2 POP SWAP1 POP DUP1 PUSH0 ADD SLOAD SWAP1 DUP1 PUSH1 0x1 ADD DUP1 SLOAD PUSH2 0x451 SWAP1 PUSH2 0x14EC JUMP JUMPDEST DUP1 PUSH1 0x1F ADD PUSH1 0x20 DUP1 SWAP2 DIV MUL PUSH1 0x20 ADD PUSH1 0x40 MLOAD SWAP1 DUP2 ADD PUSH1 0x40 MSTORE DUP1 SWAP3 SWAP2 SWAP1 DUP2 DUP2 MSTORE PUSH1 0x20 ADD DUP3 DUP1 SLOAD PUSH2 0x47D SWAP1 PUSH2 0x14EC JUMP JUMPDEST DUP1 ISZERO PUSH2 0x4C8 JUMPI DUP1 PUSH1 0x1F LT PUSH2 0x49F JUMPI PUSH2 0x100 DUP1 DUP4 SLOAD DIV MUL DUP4 MSTORE SWAP2 PUSH1 0x20 ADD SWAP2 PUSH2 0x4C8 JUMP JUMPDEST DUP3 ADD SWAP2 SWAP1 PUSH0 MSTORE PUSH1 0x20 PUSH0 KECCAK256 SWAP1 JUMPDEST DUP2 SLOAD DUP2 MSTORE SWAP1 PUSH1 0x1 ADD SWAP1 PUSH1 0x20 ADD DUP1 DUP4 GT PUSH2 0x4AB JUMPI DUP3 SWAP1 SUB PUSH1 0x1F AND DUP3 ADD SWAP2 JUMPDEST POP POP POP POP POP SWAP1 DUP1 PUSH1 0x2 ADD SLOAD SWAP1 DUP1 PUSH1 0x3 ADD PUSH0 SWAP1 SLOAD SWAP1 PUSH2 0x100 EXP SWAP1 DIV PUSH20 0xFFFFFFFFFFFFFFFFFFFFFFFFFFFFFFFFFFFFFFFF AND SWAP1 DUP1 PUSH1 0x4 ADD PUSH0 SWAP1 SLOAD SWAP1 PUSH2 0x100 EXP SWAP1 DIV PUSH20 0xFFFFFFFFFFFFFFFFFFFFFFFFFFFFFFFFFFFFFFFF AND SWAP1 DUP1 PUSH1 0x5 ADD SLOAD SWAP1 POP DUP7 JUMP JUMPDEST PUSH0 DUP1 SLOAD SWAP1 PUSH2 0x100 EXP SWAP1 DIV PUSH20 0xFFFFFFFFFFFFFFFFFFFFFFFFFFFFFFFFFFFFFFFF AND PUSH20 0xFFFFFFFFFFFFFFFFFFFFFFFFFFFFFFFFFFFFFFFF AND CALLER PUSH20 0xFFFFFFFFFFFFFFFFFFFFFFFFFFFFFFFFFFFFFFFF AND EQ PUSH2 0x5B5 JUMPI PUSH1 0x40 MLOAD PUSH32 0x8C379A000000000000000000000000000000000000000000000000000000000 DUP2 MSTORE PUSH1 0x4 ADD PUSH2 0x5AC SWAP1 PUSH2 0x1566 JUMP JUMPDEST PUSH1 0x40 MLOAD DUP1 SWAP2 SUB SWAP1 REVERT JUMPDEST PUSH1 0x1 PUSH0 DUP3 PUSH20 0xFFFFFFFFFFFFFFFFFFFFFFFFFFFFFFFFFFFFFFFF AND PUSH20 0xFFFFFFFFFFFFFFFFFFFFFFFFFFFFFFFFFFFFFFFF AND DUP2 MSTORE PUSH1 0x20 ADD SWAP1 DUP2 MSTORE PUSH1 0x20 ADD PUSH0 KECCAK256 PUSH0 SWAP1 SLOAD SWAP1 PUSH2 0x100 EXP SWAP1 DIV PUSH1 0xFF AND PUSH2 0x63E JUMPI PUSH1 0x40 MLOAD PUSH32 0x8C379A000000000000000000000000000000000000000000000000000000000 DUP2 MSTORE PUSH1 0x4 ADD PUSH2 0x635 SWAP1 PUSH2 0x15F4 JUMP JUMPDEST PUSH1 0x40 MLOAD DUP1 SWAP2 SUB SWAP1 REVERT JUMPDEST PUSH0 PUSH1 0x1 PUSH0 DUP4 PUSH20 0xFFFFFFFFFFFFFFFFFFFFFFFFFFFFFFFFFFFFFFFF AND PUSH20 0xFFFFFFFFFFFFFFFFFFFFFFFFFFFFFFFFFFFFFFFF AND DUP2 MSTORE PUSH1 0x20 ADD SWAP1 DUP2 MSTORE PUSH1 0x20 ADD PUSH0 KECCAK256 PUSH0 PUSH2 0x100 EXP DUP2 SLOAD DUP2 PUSH1 0xFF MUL NOT AND SWAP1 DUP4 ISZERO ISZERO MUL OR SWAP1 SSTORE POP DUP1 PUSH20 0xFFFFFFFFFFFFFFFFFFFFFFFFFFFFFFFFFFFFFFFF AND PUSH32 0x535611FB62FA2A833988F283B779E417E996813E44046F521D76C17B5943B08C PUSH1 0x40 MLOAD PUSH1 0x40 MLOAD DUP1 SWAP2 SUB SWAP1 LOG2 POP JUMP JUMPDEST PUSH0 DUP1 SLOAD SWAP1 PUSH2 0x100 EXP SWAP1 DIV PUSH20 0xFFFFFFFFFFFFFFFFFFFFFFFFFFFFFFFFFFFFFFFF AND DUP2 JUMP JUMPDEST PUSH1 0x1 PUSH0 CALLER PUSH20 0xFFFFFFFFFFFFFFFFFFFFFFFFFFFFFFFFFFFFFFFF AND PUSH20 0xFFFFFFFFFFFFFFFFFFFFFFFFFFFFFFFFFFFFFFFF AND DUP2 MSTORE PUSH1 0x20 ADD SWAP1 DUP2 MSTORE PUSH1 0x20 ADD PUSH0 KECCAK256 PUSH0 SWAP1 SLOAD SWAP1 PUSH2 0x100 EXP SWAP1 DIV PUSH1 0xFF AND PUSH2 0x784 JUMPI PUSH1 0x40 MLOAD PUSH32 0x8C379A000000000000000000000000000000000000000000000000000000000 DUP2 MSTORE PUSH1 0x4 ADD PUSH2 0x77B SWAP1 PUSH2 0x1682 JUMP JUMPDEST PUSH1 0x40 MLOAD DUP1 SWAP2 SUB SWAP1 REVERT JUMPDEST PUSH1 0x3 PUSH0 DUP2 SLOAD DUP1 SWAP3 SWAP2 SWAP1 PUSH2 0x796 SWAP1 PUSH2 0x16CD JUMP JUMPDEST SWAP2 SWAP1 POP SSTORE POP PUSH0 PUSH1 0x3 SLOAD SWAP1 POP PUSH1 0x40 MLOAD DUP1 PUSH1 0xC0 ADD PUSH1 0x40 MSTORE DUP1 DUP3 DUP2 MSTORE PUSH1 0x20 ADD DUP5 DUP2 MSTORE PUSH1 0x20 ADD DUP4 DUP2 MSTORE PUSH1 0x20 ADD CALLER PUSH20 0xFFFFFFFFFFFFFFFFFFFFFFFFFFFFFFFFFFFFFFFF AND DUP2 MSTORE PUSH1 0x20 ADD CALLER PUSH20 0xFFFFFFFFFFFFFFFFFFFFFFFFFFFFFFFFFFFFFFFF AND DUP2 MSTORE PUSH1 0x20 ADD TIMESTAMP DUP2 MSTORE POP PUSH1 0x2 PUSH0 DUP4 DUP2 MSTORE PUSH1 0x20 ADD SWAP1 DUP2 MSTORE PUSH1 0x20 ADD PUSH0 KECCAK256 PUSH0 DUP3 ADD MLOAD DUP2 PUSH0 ADD SSTORE PUSH1 0x20 DUP3 ADD MLOAD DUP2 PUSH1 0x1 ADD SWAP1 DUP2 PUSH2 0x828 SWAP2 SWAP1 PUSH2 0x18B1 JUMP JUMPDEST POP PUSH1 0x40 DUP3 ADD MLOAD DUP2 PUSH1 0x2 ADD SSTORE PUSH1 0x60 DUP3 ADD MLOAD DUP2 PUSH1 0x3 ADD PUSH0 PUSH2 0x100 EXP DUP2 SLOAD DUP2 PUSH20 0xFFFFFFFFFFFFFFFFFFFFFFFFFFFFFFFFFFFFFFFF MUL NOT AND SWAP1 DUP4 PUSH20 0xFFFFFFFFFFFFFFFFFFFFFFFFFFFFFFFFFFFFFFFF AND MUL OR SWAP1 SSTORE POP PUSH1 0x80 DUP3 ADD MLOAD DUP2 PUSH1 0x4 ADD PUSH0 PUSH2 0x100 EXP DUP2 SLOAD DUP2 PUSH20 0xFFFFFFFFFFFFFFFFFFFFFFFFFFFFFFFFFFFFFFFF MUL NOT AND SWAP1 DUP4 PUSH20 0xFFFFFFFFFFFFFFFFFFFFFFFFFFFFFFFFFFFFFFFF AND MUL OR SWAP1 SSTORE POP PUSH1 0xA0 DUP3 ADD MLOAD DUP2 PUSH1 0x5 ADD SSTORE SWAP1 POP POP CALLER PUSH20 0xFFFFFFFFFFFFFFFFFFFFFFFFFFFFFFFFFFFFFFFF AND DUP2 PUSH32 0x27053D27A5EB2A68EC20C3E8B30CBFBBE7BB019458AAAC90BA4606956F97C8D6 DUP6 DUP6 PUSH1 0x40 MLOAD PUSH2 0x915 SWAP3 SWAP2 SWAP1 PUSH2 0x1980 JUMP JUMPDEST PUSH1 0x40 MLOAD DUP1 SWAP2 SUB SWAP1 LOG3 POP POP POP JUMP JUMPDEST CALLER PUSH20 0xFFFFFFFFFFFFFFFFFFFFFFFFFFFFFFFFFFFFFFFF AND PUSH1 0x2 PUSH0 DUP5 DUP2 MSTORE PUSH1 0x20 ADD SWAP1 DUP2 MSTORE PUSH1 0x20 ADD PUSH0 KECCAK256 PUSH1 0x4 ADD PUSH0 SWAP1 SLOAD SWAP1 PUSH2 0x100 EXP SWAP1 DIV PUSH20 0xFFFFFFFFFFFFFFFFFFFFFFFFFFFFFFFFFFFFFFFF AND PUSH20 0xFFFFFFFFFFFFFFFFFFFFFFFFFFFFFFFFFFFFFFFF AND EQ PUSH2 0x9C3 JUMPI PUSH1 0x40 MLOAD PUSH32 0x8C379A000000000000000000000000000000000000000000000000000000000 DUP2 MSTORE PUSH1 0x4 ADD PUSH2 0x9BA SWAP1 PUSH2 0x1A1E JUMP JUMPDEST PUSH1 0x40 MLOAD DUP1 SWAP2 SUB SWAP1 REVERT JUMPDEST PUSH0 PUSH20 0xFFFFFFFFFFFFFFFFFFFFFFFFFFFFFFFFFFFFFFFF AND DUP2 PUSH20 0xFFFFFFFFFFFFFFFFFFFFFFFFFFFFFFFFFFFFFFFF AND SUB PUSH2 0xA31 JUMPI PUSH1 0x40 MLOAD PUSH32 0x8C379A000000000000000000000000000000000000000000000000000000000 DUP2 MSTORE PUSH1 0x4 ADD PUSH2 0xA28 SWAP1 PUSH2 0x1AAC JUMP JUMPDEST PUSH1 0x40 MLOAD DUP1 SWAP2 SUB SWAP1 REVERT JUMPDEST DUP1 PUSH1 0x2 PUSH0 DUP5 DUP2 MSTORE PUSH1 0x20 ADD SWAP1 DUP2 MSTORE PUSH1 0x20 ADD PUSH0 KECCAK256 PUSH1 0x4 ADD PUSH0 PUSH2 0x100 EXP DUP2 SLOAD DUP2 PUSH20 0xFFFFFFFFFFFFFFFFFFFFFFFFFFFFFFFFFFFFFFFF MUL NOT AND SWAP1 DUP4 PUSH20 0xFFFFFFFFFFFFFFFFFFFFFFFFFFFFFFFFFFFFFFFF AND MUL OR SWAP1 SSTORE POP DUP1 PUSH20 0xFFFFFFFFFFFFFFFFFFFFFFFFFFFFFFFFFFFFFFFF AND CALLER PUSH20 0xFFFFFFFFFFFFFFFFFFFFFFFFFFFFFFFFFFFFFFFF AND DUP4 PUSH32 0xCEF86D37BA3DC1D682967CDE44D8050488734BF53166725B220B4D2E515E9E93 PUSH1 0x40 MLOAD PUSH1 0x40 MLOAD DUP1 SWAP2 SUB SWAP1 LOG4 POP POP JUMP JUMPDEST PUSH0 DUP1 SLOAD SWAP1 PUSH2 0x100 EXP SWAP1 DIV PUSH20 0xFFFFFFFFFFFFFFFFFFFFFFFFFFFFFFFFFFFFFFFF AND PUSH20 0xFFFFFFFFFFFFFFFFFFFFFFFFFFFFFFFFFFFFFFFF AND CALLER PUSH20 0xFFFFFFFFFFFFFFFFFFFFFFFFFFFFFFFFFFFFFFFF AND EQ PUSH2 0xB6F JUMPI PUSH1 0x40 MLOAD PUSH32 0x8C379A000000000000000000000000000000000000000000000000000000000 DUP2 MSTORE PUSH1 0x4 ADD PUSH2 0xB66 SWAP1 PUSH2 0x1566 JUMP JUMPDEST PUSH1 0x40 MLOAD DUP1 SWAP2 SUB SWAP1 REVERT JUMPDEST PUSH0 PUSH20 0xFFFFFFFFFFFFFFFFFFFFFFFFFFFFFFFFFFFFFFFF AND DUP2 PUSH20 0xFFFFFFFFFFFFFFFFFFFFFFFFFFFFFFFFFFFFFFFF AND SUB PUSH2 0xBDD JUMPI PUSH1 0x40 MLOAD PUSH32 0x8C379A000000000000000000000000000000000000000000000000000000000 DUP2 MSTORE PUSH1 0x4 ADD PUSH2 0xBD4 SWAP1 PUSH2 0x1B3A JUMP JUMPDEST PUSH1 0x40 MLOAD DUP1 SWAP2 SUB SWAP1 REVERT JUMPDEST PUSH1 0x1 PUSH0 DUP3 PUSH20 0xFFFFFFFFFFFFFFFFFFFFFFFFFFFFFFFFFFFFFFFF AND PUSH20 0xFFFFFFFFFFFFFFFFFFFFFFFFFFFFFFFFFFFFFFFF AND DUP2 MSTORE PUSH1 0x20 ADD SWAP1 DUP2 MSTORE PUSH1 0x20 ADD PUSH0 KECCAK256 PUSH0 SWAP1 SLOAD SWAP1 PUSH2 0x100 EXP SWAP1 DIV PUSH1 0xFF AND ISZERO PUSH2 0xC67 JUMPI PUSH1 0x40 MLOAD PUSH32 0x8C379A000000000000000000000000000000000000000000000000000000000 DUP2 MSTORE PUSH1 0x4 ADD PUSH2 0xC5E SWAP1 PUSH2 0x1BC8 JUMP JUMPDEST PUSH1 0x40 MLOAD DUP1 SWAP2 SUB SWAP1 REVERT JUMPDEST PUSH1 0x1 DUP1 PUSH0 DUP4 PUSH20 0xFFFFFFFFFFFFFFFFFFFFFFFFFFFFFFFFFFFFFFFF AND PUSH20 0xFFFFFFFFFFFFFFFFFFFFFFFFFFFFFFFFFFFFFFFF AND DUP2 MSTORE PUSH1 0x20 ADD SWAP1 DUP2 MSTORE PUSH1 0x20 ADD PUSH0 KECCAK256 PUSH0 PUSH2 0x100 EXP DUP2 SLOAD DUP2 PUSH1 0xFF MUL NOT AND SWAP1 DUP4 ISZERO ISZERO MUL OR SWAP1 SSTORE POP DUP1 PUSH20 0xFFFFFFFFFFFFFFFFFFFFFFFFFFFFFFFFFFFFFFFF AND PUSH32 0x534D18C8FF24BA5980906D732F3075704749427353734FBBF05D50485643B124 PUSH1 0x40 MLOAD PUSH1 0x40 MLOAD DUP1 SWAP2 SUB SWAP1 LOG2 POP JUMP JUMPDEST PUSH0 DUP1 SLOAD SWAP1 PUSH2 0x100 EXP SWAP1 DIV PUSH20 0xFFFFFFFFFFFFFFFFFFFFFFFFFFFFFFFFFFFFFFFF AND PUSH20 0xFFFFFFFFFFFFFFFFFFFFFFFFFFFFFFFFFFFFFFFF AND CALLER PUSH20 0xFFFFFFFFFFFFFFFFFFFFFFFFFFFFFFFFFFFFFFFF AND EQ PUSH2 0xD8E JUMPI PUSH1 0x40 MLOAD PUSH32 0x8C379A000000000000000000000000000000000000000000000000000000000 DUP2 MSTORE PUSH1 0x4 ADD PUSH2 0xD85 SWAP1 PUSH2 0x1566 JUMP JUMPDEST PUSH1 0x40 MLOAD DUP1 SWAP2 SUB SWAP1 REVERT JUMPDEST PUSH0 PUSH20 0xFFFFFFFFFFFFFFFFFFFFFFFFFFFFFFFFFFFFFFFF AND DUP2 PUSH20 0xFFFFFFFFFFFFFFFFFFFFFFFFFFFFFFFFFFFFFFFF AND SUB PUSH2 0xDFC JUMPI PUSH1 0x40 MLOAD PUSH32 0x8C379A000000000000000000000000000000000000000000000000000000000 DUP2 MSTORE PUSH1 0x4 ADD PUSH2 0xDF3 SWAP1 PUSH2 0x1C56 JUMP JUMPDEST PUSH1 0x40 MLOAD DUP1 SWAP2 SUB SWAP1 REVERT JUMPDEST DUP1 PUSH20 0xFFFFFFFFFFFFFFFFFFFFFFFFFFFFFFFFFFFFFFFF AND PUSH0 DUP1 SLOAD SWAP1 PUSH2 0x100 EXP SWAP1 DIV PUSH20 0xFFFFFFFFFFFFFFFFFFFFFFFFFFFFFFFFFFFFFFFF AND PUSH20 0xFFFFFFFFFFFFFFFFFFFFFFFFFFFFFFFFFFFFFFFF AND PUSH32 0x8BE0079C531659141344CD1FD0A4F28419497F9722A3DAAFE3B4186F6B6457E0 PUSH1 0x40 MLOAD PUSH1 0x40 MLOAD DUP1 SWAP2 SUB SWAP1 LOG3 DUP1 PUSH0 DUP1 PUSH2 0x100 EXP DUP2 SLOAD DUP2 PUSH20 0xFFFFFFFFFFFFFFFFFFFFFFFFFFFFFFFFFFFFFFFF MUL NOT AND SWAP1 DUP4 PUSH20 0xFFFFFFFFFFFFFFFFFFFFFFFFFFFFFFFFFFFFFFFF AND MUL OR SWAP1 SSTORE POP POP JUMP JUMPDEST PUSH1 0x40 MLOAD DUP1 PUSH1 0xC0 ADD PUSH1 0x40 MSTORE DUP1 PUSH0 DUP2 MSTORE PUSH1 0x20 ADD PUSH1 0x60 DUP2 MSTORE PUSH1 0x20 ADD PUSH0 DUP2 MSTORE PUSH1 0x20 ADD PUSH0 PUSH20 0xFFFFFFFFFFFFFFFFFFFFFFFFFFFFFFFFFFFFFFFF AND DUP2 MSTORE PUSH1 0x20 ADD PUSH0 PUSH20 0xFFFFFFFFFFFFFFFFFFFFFFFFFFFFFFFFFFFFFFFF AND DUP2 MSTORE PUSH1 0x20 ADD PUSH0 DUP2 MSTORE POP SWAP1 JUMP JUMPDEST PUSH0 DUP2 SWAP1 POP SWAP2 SWAP1 POP JUMP JUMPDEST PUSH2 0xF26 DUP2 PUSH2 0xF14 JUMP JUMPDEST DUP3 MSTORE POP POP JUMP JUMPDEST PUSH0 PUSH1 0x20 DUP3 ADD SWAP1 POP PUSH2 0xF3F PUSH0 DUP4 ADD DUP5 PUSH2 0xF1D JUMP JUMPDEST SWAP3 SWAP2 POP POP JUMP JUMPDEST PUSH0 PUSH1 0x40 MLOAD SWAP1 POP SWAP1 JUMP JUMPDEST PUSH0 DUP1 REVERT JUMPDEST PUSH0 DUP1 REVERT JUMPDEST PUSH0 PUSH20 0xFFFFFFFFFFFFFFFFFFFFFFFFFFFFFFFFFFFFFFFF DUP3 AND SWAP1 POP SWAP2 SWAP1 POP JUMP JUMPDEST PUSH0 PUSH2 0xF7F DUP3 PUSH2 0xF56 JUMP JUMPDEST SWAP1 POP SWAP2 SWAP1 POP JUMP JUMPDEST PUSH2 0xF8F DUP2 PUSH2 0xF75 JUMP JUMPDEST DUP2 EQ PUSH2 0xF99 JUMPI PUSH0 DUP1 REVERT JUMPDEST POP JUMP JUMPDEST PUSH0 DUP2 CALLDATALOAD SWAP1 POP PUSH2 0xFAA DUP2 PUSH2 0xF86 JUMP JUMPDEST SWAP3 SWAP2 POP POP JUMP JUMPDEST PUSH0 PUSH1 0x20 DUP3 DUP5 SUB SLT ISZERO PUSH2 0xFC5 JUMPI PUSH2 0xFC4 PUSH2 0xF4E JUMP JUMPDEST JUMPDEST PUSH0 PUSH2 0xFD2 DUP5 DUP3 DUP6 ADD PUSH2 0xF9C JUMP JUMPDEST SWAP2 POP POP SWAP3 SWAP2 POP POP JUMP JUMPDEST PUSH0 DUP2 ISZERO ISZERO SWAP1 POP SWAP2 SWAP1 POP JUMP JUMPDEST PUSH2 0xFEF DUP2 PUSH2 0xFDB JUMP JUMPDEST DUP3 MSTORE POP POP JUMP JUMPDEST PUSH0 PUSH1 0x20 DUP3 ADD SWAP1 POP PUSH2 0x1008 PUSH0 DUP4 ADD DUP5 PUSH2 0xFE6 JUMP JUMPDEST SWAP3 SWAP2 POP POP JUMP JUMPDEST PUSH2 0x1017 DUP2 PUSH2 0xF14 JUMP JUMPDEST DUP2 EQ PUSH2 0x1021 JUMPI PUSH0 DUP1 REVERT JUMPDEST POP JUMP JUMPDEST PUSH0 DUP2 CALLDATALOAD SWAP1 POP PUSH2 0x1032 DUP2 PUSH2 0x100E JUMP JUMPDEST SWAP3 SWAP2 POP POP JUMP JUMPDEST PUSH0 PUSH1 0x20 DUP3 DUP5 SUB SLT ISZERO PUSH2 0x104D JUMPI PUSH2 0x104C PUSH2 0xF4E JUMP JUMPDEST JUMPDEST PUSH0 PUSH2 0x105A DUP5 DUP3 DUP6 ADD PUSH2 0x1024 JUMP JUMPDEST SWAP2 POP POP SWAP3 SWAP2 POP POP JUMP JUMPDEST PUSH2 0x106C DUP2 PUSH2 0xF14 JUMP JUMPDEST DUP3 MSTORE POP POP JUMP JUMPDEST PUSH0 DUP2 MLOAD SWAP1 POP SWAP2 SWAP1 POP JUMP JUMPDEST PUSH0 DUP3 DUP3 MSTORE PUSH1 0x20 DUP3 ADD SWAP1 POP SWAP3 SWAP2 POP POP JUMP JUMPDEST DUP3 DUP2 DUP4 MCOPY PUSH0 DUP4 DUP4 ADD MSTORE POP POP POP JUMP JUMPDEST PUSH0 PUSH1 0x1F NOT PUSH1 0x1F DUP4 ADD AND SWAP1 POP SWAP2 SWAP1 POP JUMP JUMPDEST PUSH0 PUSH2 0x10B4 DUP3 PUSH2 0x1072 JUMP JUMPDEST PUSH2 0x10BE DUP2 DUP6 PUSH2 0x107C JUMP JUMPDEST SWAP4 POP PUSH2 0x10CE DUP2 DUP6 PUSH1 0x20 DUP7 ADD PUSH2 0x108C JUMP JUMPDEST PUSH2 0x10D7 DUP2 PUSH2 0x109A JUMP JUMPDEST DUP5 ADD SWAP2 POP POP SWAP3 SWAP2 POP POP JUMP JUMPDEST PUSH2 0x10EB DUP2 PUSH2 0xF75 JUMP JUMPDEST DUP3 MSTORE POP POP JUMP JUMPDEST PUSH0 PUSH1 0xC0 DUP4 ADD PUSH0 DUP4 ADD MLOAD PUSH2 0x1106 PUSH0 DUP7 ADD DUP3 PUSH2 0x1063 JUMP JUMPDEST POP PUSH1 0x20 DUP4 ADD MLOAD DUP5 DUP3 SUB PUSH1 0x20 DUP7 ADD MSTORE PUSH2 0x111E DUP3 DUP3 PUSH2 0x10AA JUMP JUMPDEST SWAP2 POP POP PUSH1 0x40 DUP4 ADD MLOAD PUSH2 0x1133 PUSH1 0x40 DUP7 ADD DUP3 PUSH2 0x1063 JUMP JUMPDEST POP PUSH1 0x60 DUP4 ADD MLOAD PUSH2 0x1146 PUSH1 0x60 DUP7 ADD DUP3 PUSH2 0x10E2 JUMP JUMPDEST POP PUSH1 0x80 DUP4 ADD MLOAD PUSH2 0x1159 PUSH1 0x80 DUP7 ADD DUP3 PUSH2 0x10E2 JUMP JUMPDEST POP PUSH1 0xA0 DUP4 ADD MLOAD PUSH2 0x116C PUSH1 0xA0 DUP7 ADD DUP3 PUSH2 0x1063 JUMP JUMPDEST POP DUP1 SWAP2 POP POP SWAP3 SWAP2 POP POP JUMP JUMPDEST PUSH0 PUSH1 0x20 DUP3 ADD SWAP1 POP DUP2 DUP2 SUB PUSH0 DUP4 ADD MSTORE PUSH2 0x118F DUP2 DUP5 PUSH2 0x10F1 JUMP JUMPDEST SWAP1 POP SWAP3 SWAP2 POP POP JUMP JUMPDEST PUSH0 DUP3 DUP3 MSTORE PUSH1 0x20 DUP3 ADD SWAP1 POP SWAP3 SWAP2 POP POP JUMP JUMPDEST PUSH0 PUSH2 0x11B1 DUP3 PUSH2 0x1072 JUMP JUMPDEST PUSH2 0x11BB DUP2 DUP6 PUSH2 0x1197 JUMP JUMPDEST SWAP4 POP PUSH2 0x11CB DUP2 DUP6 PUSH1 0x20 DUP7 ADD PUSH2 0x108C JUMP JUMPDEST PUSH2 0x11D4 DUP2 PUSH2 0x109A JUMP JUMPDEST DUP5 ADD SWAP2 POP POP SWAP3 SWAP2 POP POP JUMP JUMPDEST PUSH2 0x11E8 DUP2 PUSH2 0xF75 JUMP JUMPDEST DUP3 MSTORE POP POP JUMP JUMPDEST PUSH0 PUSH1 0xC0 DUP3 ADD SWAP1 POP PUSH2 0x1201 PUSH0 DUP4 ADD DUP10 PUSH2 0xF1D JUMP JUMPDEST DUP2 DUP2 SUB PUSH1 0x20 DUP4 ADD MSTORE PUSH2 0x1213 DUP2 DUP9 PUSH2 0x11A7 JUMP JUMPDEST SWAP1 POP PUSH2 0x1222 PUSH1 0x40 DUP4 ADD DUP8 PUSH2 0xF1D JUMP JUMPDEST PUSH2 0x122F PUSH1 0x60 DUP4 ADD DUP7 PUSH2 0x11DF JUMP JUMPDEST PUSH2 0x123C PUSH1 0x80 DUP4 ADD DUP6 PUSH2 0x11DF JUMP JUMPDEST PUSH2 0x1249 PUSH1 0xA0 DUP4 ADD DUP5 PUSH2 0xF1D JUMP JUMPDEST SWAP8 SWAP7 POP POP POP POP POP POP POP JUMP JUMPDEST PUSH0 PUSH1 0x20 DUP3 ADD SWAP1 POP PUSH2 0x1267 PUSH0 DUP4 ADD DUP5 PUSH2 0x11DF JUMP JUMPDEST SWAP3 SWAP2 POP POP JUMP JUMPDEST PUSH0 DUP1 REVERT JUMPDEST PUSH0 DUP1 REVERT JUMPDEST PUSH32 0x4E487B7100000000000000000000000000000000000000000000000000000000 PUSH0 MSTORE PUSH1 0x41 PUSH1 0x4 MSTORE PUSH1 0x24 PUSH0 REVERT JUMPDEST PUSH2 0x12AB DUP3 PUSH2 0x109A JUMP JUMPDEST DUP2 ADD DUP2 DUP2 LT PUSH8 0xFFFFFFFFFFFFFFFF DUP3 GT OR ISZERO PUSH2 0x12CA JUMPI PUSH2 0x12C9 PUSH2 0x1275 JUMP JUMPDEST JUMPDEST DUP1 PUSH1 0x40 MSTORE POP POP POP JUMP JUMPDEST PUSH0 PUSH2 0x12DC PUSH2 0xF45 JUMP JUMPDEST SWAP1 POP PUSH2 0x12E8 DUP3 DUP3 PUSH2 0x12A2 JUMP JUMPDEST SWAP2 SWAP1 POP JUMP JUMPDEST PUSH0 PUSH8 0xFFFFFFFFFFFFFFFF DUP3 GT ISZERO PUSH2 0x1307 JUMPI PUSH2 0x1306 PUSH2 0x1275 JUMP JUMPDEST JUMPDEST PUSH2 0x1310 DUP3 PUSH2 0x109A JUMP JUMPDEST SWAP1 POP PUSH1 0x20 DUP2 ADD SWAP1 POP SWAP2 SWAP1 POP JUMP JUMPDEST DUP3 DUP2 DUP4 CALLDATACOPY PUSH0 DUP4 DUP4 ADD MSTORE POP POP POP JUMP JUMPDEST PUSH0 PUSH2 0x133D PUSH2 0x1338 DUP5 PUSH2 0x12ED JUMP JUMPDEST PUSH2 0x12D3 JUMP JUMPDEST SWAP1 POP DUP3 DUP2 MSTORE PUSH1 0x20 DUP2 ADD DUP5 DUP5 DUP5 ADD GT ISZERO PUSH2 0x1359 JUMPI PUSH2 0x1358 PUSH2 0x1271 JUMP JUMPDEST JUMPDEST PUSH2 0x1364 DUP5 DUP3 DUP6 PUSH2 0x131D JUMP JUMPDEST POP SWAP4 SWAP3 POP POP POP JUMP JUMPDEST PUSH0 DUP3 PUSH1 0x1F DUP4 ADD SLT PUSH2 0x1380 JUMPI PUSH2 0x137F PUSH2 0x126D JUMP JUMPDEST JUMPDEST DUP2 CALLDATALOAD PUSH2 0x1390 DUP5 DUP3 PUSH1 0x20 DUP7 ADD PUSH2 0x132B JUMP JUMPDEST SWAP2 POP POP SWAP3 SWAP2 POP POP JUMP JUMPDEST PUSH0 DUP1 PUSH1 0x40 DUP4 DUP6 SUB SLT ISZERO PUSH2 0x13AF JUMPI PUSH2 0x13AE PUSH2 0xF4E JUMP JUMPDEST JUMPDEST PUSH0 DUP4 ADD CALLDATALOAD PUSH8 0xFFFFFFFFFFFFFFFF DUP2 GT ISZERO PUSH2 0x13CC JUMPI PUSH2 0x13CB PUSH2 0xF52 JUMP JUMPDEST JUMPDEST PUSH2 0x13D8 DUP6 DUP3 DUP7 ADD PUSH2 0x136C JUMP JUMPDEST SWAP3 POP POP PUSH1 0x20 PUSH2 0x13E9 DUP6 DUP3 DUP7 ADD PUSH2 0x1024 JUMP JUMPDEST SWAP2 POP POP SWAP3 POP SWAP3 SWAP1 POP JUMP JUMPDEST PUSH0 DUP1 PUSH1 0x40 DUP4 DUP6 SUB SLT ISZERO PUSH2 0x1409 JUMPI PUSH2 0x1408 PUSH2 0xF4E JUMP JUMPDEST JUMPDEST PUSH0 PUSH2 0x1416 DUP6 DUP3 DUP7 ADD PUSH2 0x1024 JUMP JUMPDEST SWAP3 POP POP PUSH1 0x20 PUSH2 0x1427 DUP6 DUP3 DUP7 ADD PUSH2 0xF9C JUMP JUMPDEST SWAP2 POP POP SWAP3 POP SWAP3 SWAP1 POP JUMP JUMPDEST PUSH32 0x50726F64756374547261636B65723A2050726F6475637420646F6573206E6F74 PUSH0 DUP3 ADD MSTORE PUSH32 0x2065786973742E00000000000000000000000000000000000000000000000000 PUSH1 0x20 DUP3 ADD MSTORE POP JUMP JUMPDEST PUSH0 PUSH2 0x148B PUSH1 0x27 DUP4 PUSH2 0x1197 JUMP JUMPDEST SWAP2 POP PUSH2 0x1496 DUP3 PUSH2 0x1431 JUMP JUMPDEST PUSH1 0x40 DUP3 ADD SWAP1 POP SWAP2 SWAP1 POP JUMP JUMPDEST PUSH0 PUSH1 0x20 DUP3 ADD SWAP1 POP DUP2 DUP2 SUB PUSH0 DUP4 ADD MSTORE PUSH2 0x14B8 DUP2 PUSH2 0x147F JUMP JUMPDEST SWAP1 POP SWAP2 SWAP1 POP JUMP JUMPDEST PUSH32 0x4E487B7100000000000000000000000000000000000000000000000000000000 PUSH0 MSTORE PUSH1 0x22 PUSH1 0x4 MSTORE PUSH1 0x24 PUSH0 REVERT JUMPDEST PUSH0 PUSH1 0x2 DUP3 DIV SWAP1 POP PUSH1 0x1 DUP3 AND DUP1 PUSH2 0x1503 JUMPI PUSH1 0x7F DUP3 AND SWAP2 POP JUMPDEST PUSH1 0x20 DUP3 LT DUP2 SUB PUSH2 0x1516 JUMPI PUSH2 0x1515 PUSH2 0x14BF JUMP JUMPDEST JUMPDEST POP SWAP2 SWAP1 POP JUMP JUMPDEST PUSH32 0x4F776E61626C653A2063616C6C6572206973206E6F7420746865206F776E6572 PUSH0 DUP3 ADD MSTORE POP JUMP JUMPDEST PUSH0 PUSH2 0x1550 PUSH1 0x20 DUP4 PUSH2 0x1197 JUMP JUMPDEST SWAP2 POP PUSH2 0x155B DUP3 PUSH2 0x151C JUMP JUMPDEST PUSH1 0x20 DUP3 ADD SWAP1 POP SWAP2 SWAP1 POP JUMP JUMPDEST PUSH0 PUSH1 0x20 DUP3 ADD SWAP1 POP DUP2 DUP2 SUB PUSH0 DUP4 ADD MSTORE PUSH2 0x157D DUP2 PUSH2 0x1544 JUMP JUMPDEST SWAP1 POP SWAP2 SWAP1 POP JUMP JUMPDEST PUSH32 0x57686974656C6973744D616E616765723A2041646472657373206973206E6F74 PUSH0 DUP3 ADD MSTORE PUSH32 0x2077686974656C69737465640000000000000000000000000000000000000000 PUSH1 0x20 DUP3 ADD MSTORE POP JUMP JUMPDEST PUSH0 PUSH2 0x15DE PUSH1 0x2C DUP4 PUSH2 0x1197 JUMP JUMPDEST SWAP2 POP PUSH2 0x15E9 DUP3 PUSH2 0x1584 JUMP JUMPDEST PUSH1 0x40 DUP3 ADD SWAP1 POP SWAP2 SWAP1 POP JUMP JUMPDEST PUSH0 PUSH1 0x20 DUP3 ADD SWAP1 POP DUP2 DUP2 SUB PUSH0 DUP4 ADD MSTORE PUSH2 0x160B DUP2 PUSH2 0x15D2 JUMP JUMPDEST SWAP1 POP SWAP2 SWAP1 POP JUMP JUMPDEST PUSH32 0x57686974656C6973744D616E616765723A20596F7520617265206E6F74206175 PUSH0 DUP3 ADD MSTORE PUSH32 0x74686F72697A6564000000000000000000000000000000000000000000000000 PUSH1 0x20 DUP3 ADD MSTORE POP JUMP JUMPDEST PUSH0 PUSH2 0x166C PUSH1 0x28 DUP4 PUSH2 0x1197 JUMP JUMPDEST SWAP2 POP PUSH2 0x1677 DUP3 PUSH2 0x1612 JUMP JUMPDEST PUSH1 0x40 DUP3 ADD SWAP1 POP SWAP2 SWAP1 POP JUMP JUMPDEST PUSH0 PUSH1 0x20 DUP3 ADD SWAP1 POP DUP2 DUP2 SUB PUSH0 DUP4 ADD MSTORE PUSH2 0x1699 DUP2 PUSH2 0x1660 JUMP JUMPDEST SWAP1 POP SWAP2 SWAP1 POP JUMP JUMPDEST PUSH32 0x4E487B7100000000000000000000000000000000000000000000000000000000 PUSH0 MSTORE PUSH1 0x11 PUSH1 0x4 MSTORE PUSH1 0x24 PUSH0 REVERT JUMPDEST PUSH0 PUSH2 0x16D7 DUP3 PUSH2 0xF14 JUMP JUMPDEST SWAP2 POP PUSH32 0xFFFFFFFFFFFFFFFFFFFFFFFFFFFFFFFFFFFFFFFFFFFFFFFFFFFFFFFFFFFFFFFF DUP3 SUB PUSH2 0x1709 JUMPI PUSH2 0x1708 PUSH2 0x16A0 JUMP JUMPDEST JUMPDEST PUSH1 0x1 DUP3 ADD SWAP1 POP SWAP2 SWAP1 POP JUMP JUMPDEST PUSH0 DUP2 SWAP1 POP DUP2 PUSH0 MSTORE PUSH1 0x20 PUSH0 KECCAK256 SWAP1 POP SWAP2 SWAP1 POP JUMP JUMPDEST PUSH0 PUSH1 0x20 PUSH1 0x1F DUP4 ADD DIV SWAP1 POP SWAP2 SWAP1 POP JUMP JUMPDEST PUSH0 DUP3 DUP3 SHL SWAP1 POP SWAP3 SWAP2 POP POP JUMP JUMPDEST PUSH0 PUSH1 0x8 DUP4 MUL PUSH2 0x1770 PUSH32 0xFFFFFFFFFFFFFFFFFFFFFFFFFFFFFFFFFFFFFFFFFFFFFFFFFFFFFFFFFFFFFFFF DUP3 PUSH2 0x1735 JUMP JUMPDEST PUSH2 0x177A DUP7 DUP4 PUSH2 0x1735 JUMP JUMPDEST SWAP6 POP DUP1 NOT DUP5 AND SWAP4 POP DUP1 DUP7 AND DUP5 OR SWAP3 POP POP POP SWAP4 SWAP3 POP POP POP JUMP JUMPDEST PUSH0 DUP2 SWAP1 POP SWAP2 SWAP1 POP JUMP JUMPDEST PUSH0 PUSH2 0x17B5 PUSH2 0x17B0 PUSH2 0x17AB DUP5 PUSH2 0xF14 JUMP JUMPDEST PUSH2 0x1792 JUMP JUMPDEST PUSH2 0xF14 JUMP JUMPDEST SWAP1 POP SWAP2 SWAP1 POP JUMP JUMPDEST PUSH0 DUP2 SWAP1 POP SWAP2 SWAP1 POP JUMP JUMPDEST PUSH2 0x17CE DUP4 PUSH2 0x179B JUMP JUMPDEST PUSH2 0x17E2 PUSH2 0x17DA DUP3 PUSH2 0x17BC JUMP JUMPDEST DUP5 DUP5 SLOAD PUSH2 0x1741 JUMP JUMPDEST DUP3 SSTORE POP POP POP POP JUMP JUMPDEST PUSH0 SWAP1 JUMP JUMPDEST PUSH2 0x17F6 PUSH2 0x17EA JUMP JUMPDEST PUSH2 0x1801 DUP2 DUP5 DUP5 PUSH2 0x17C5 JUMP JUMPDEST POP POP POP JUMP JUMPDEST JUMPDEST DUP2 DUP2 LT ISZERO PUSH2 0x1824 JUMPI PUSH2 0x1819 PUSH0 DUP3 PUSH2 0x17EE JUMP JUMPDEST PUSH1 0x1 DUP2 ADD SWAP1 POP PUSH2 0x1807 JUMP JUMPDEST POP POP JUMP JUMPDEST PUSH1 0x1F DUP3 GT ISZERO PUSH2 0x1869 JUMPI PUSH2 0x183A DUP2 PUSH2 0x1714 JUMP JUMPDEST PUSH2 0x1843 DUP5 PUSH2 0x1726 JUMP JUMPDEST DUP2 ADD PUSH1 0x20 DUP6 LT ISZERO PUSH2 0x1852 JUMPI DUP2 SWAP1 POP JUMPDEST PUSH2 0x1866 PUSH2 0x185E DUP6 PUSH2 0x1726 JUMP JUMPDEST DUP4 ADD DUP3 PUSH2 0x1806 JUMP JUMPDEST POP POP JUMPDEST POP POP POP JUMP JUMPDEST PUSH0 DUP3 DUP3 SHR SWAP1 POP SWAP3 SWAP2 POP POP JUMP JUMPDEST PUSH0 PUSH2 0x1889 PUSH0 NOT DUP5 PUSH1 0x8 MUL PUSH2 0x186E JUMP JUMPDEST NOT DUP1 DUP4 AND SWAP2 POP POP SWAP3 SWAP2 POP POP JUMP JUMPDEST PUSH0 PUSH2 0x18A1 DUP4 DUP4 PUSH2 0x187A JUMP JUMPDEST SWAP2 POP DUP3 PUSH1 0x2 MUL DUP3 OR SWAP1 POP SWAP3 SWAP2 POP POP JUMP JUMPDEST PUSH2 0x18BA DUP3 PUSH2 0x1072 JUMP JUMPDEST PUSH8 0xFFFFFFFFFFFFFFFF DUP2 GT ISZERO PUSH2 0x18D3 JUMPI PUSH2 0x18D2 PUSH2 0x1275 JUMP JUMPDEST JUMPDEST PUSH2 0x18DD DUP3 SLOAD PUSH2 0x14EC JUMP JUMPDEST PUSH2 0x18E8 DUP3 DUP3 DUP6 PUSH2 0x1828 JUMP JUMPDEST PUSH0 PUSH1 0x20 SWAP1 POP PUSH1 0x1F DUP4 GT PUSH1 0x1 DUP2 EQ PUSH2 0x1919 JUMPI PUSH0 DUP5 ISZERO PUSH2 0x1907 JUMPI DUP3 DUP8 ADD MLOAD SWAP1 POP JUMPDEST PUSH2 0x1911 DUP6 DUP3 PUSH2 0x1896 JUMP JUMPDEST DUP7 SSTORE POP PUSH2 0x1978 JUMP JUMPDEST PUSH1 0x1F NOT DUP5 AND PUSH2 0x1927 DUP7 PUSH2 0x1714 JUMP JUMPDEST PUSH0 JUMPDEST DUP3 DUP2 LT ISZERO PUSH2 0x194E JUMPI DUP5 DUP10 ADD MLOAD DUP3 SSTORE PUSH1 0x1 DUP3 ADD SWAP2 POP PUSH1 0x20 DUP6 ADD SWAP5 POP PUSH1 0x20 DUP2 ADD SWAP1 POP PUSH2 0x1929 JUMP JUMPDEST DUP7 DUP4 LT ISZERO PUSH2 0x196B JUMPI DUP5 DUP10 ADD MLOAD PUSH2 0x1967 PUSH1 0x1F DUP10 AND DUP3 PUSH2 0x187A JUMP JUMPDEST DUP4 SSTORE POP JUMPDEST PUSH1 0x1 PUSH1 0x2 DUP9 MUL ADD DUP9 SSTORE POP POP POP JUMPDEST POP POP POP POP POP POP JUMP JUMPDEST PUSH0 PUSH1 0x40 DUP3 ADD SWAP1 POP DUP2 DUP2 SUB PUSH0 DUP4 ADD MSTORE PUSH2 0x1998 DUP2 DUP6 PUSH2 0x11A7 JUMP JUMPDEST SWAP1 POP PUSH2 0x19A7 PUSH1 0x20 DUP4 ADD DUP5 PUSH2 0xF1D JUMP JUMPDEST SWAP4 SWAP3 POP POP POP JUMP JUMPDEST PUSH32 0x50726F64756374547261636B65723A204F6E6C79207468652063757272656E74 PUSH0 DUP3 ADD MSTORE PUSH32 0x206F776E65722063616E207472616E7366657220746869732070726F64756374 PUSH1 0x20 DUP3 ADD MSTORE POP JUMP JUMPDEST PUSH0 PUSH2 0x1A08 PUSH1 0x40 DUP4 PUSH2 0x1197 JUMP JUMPDEST SWAP2 POP PUSH2 0x1A13 DUP3 PUSH2 0x19AE JUMP JUMPDEST PUSH1 0x40 DUP3 ADD SWAP1 POP SWAP2 SWAP1 POP JUMP JUMPDEST PUSH0 PUSH1 0x20 DUP3 ADD SWAP1 POP DUP2 DUP2 SUB PUSH0 DUP4 ADD MSTORE PUSH2 0x1A35 DUP2 PUSH2 0x19FC JUMP JUMPDEST SWAP1 POP SWAP2 SWAP1 POP JUMP JUMPDEST PUSH32 0x50726F64756374547261636B65723A204E6577206F776E657220616464726573 PUSH0 DUP3 ADD MSTORE PUSH32 0x732063616E6E6F74206265207A65726F2E000000000000000000000000000000 PUSH1 0x20 DUP3 ADD MSTORE POP JUMP JUMPDEST PUSH0 PUSH2 0x1A96 PUSH1 0x31 DUP4 PUSH2 0x1197 JUMP JUMPDEST SWAP2 POP PUSH2 0x1AA1 DUP3 PUSH2 0x1A3C JUMP JUMPDEST PUSH1 0x40 DUP3 ADD SWAP1 POP SWAP2 SWAP1 POP JUMP JUMPDEST PUSH0 PUSH1 0x20 DUP3 ADD SWAP1 POP DUP2 DUP2 SUB PUSH0 DUP4 ADD MSTORE PUSH2 0x1AC3 DUP2 PUSH2 0x1A8A JUMP JUMPDEST SWAP1 POP SWAP2 SWAP1 POP JUMP JUMPDEST PUSH32 0x57686974656C6973744D616E616765723A2043616E6E6F7420616464207A6572 PUSH0 DUP3 ADD MSTORE PUSH32 0x6F20616464726573730000000000000000000000000000000000000000000000 PUSH1 0x20 DUP3 ADD MSTORE POP JUMP JUMPDEST PUSH0 PUSH2 0x1B24 PUSH1 0x29 DUP4 PUSH2 0x1197 JUMP JUMPDEST SWAP2 POP PUSH2 0x1B2F DUP3 PUSH2 0x1ACA JUMP JUMPDEST PUSH1 0x40 DUP3 ADD SWAP1 POP SWAP2 SWAP1 POP JUMP JUMPDEST PUSH0 PUSH1 0x20 DUP3 ADD SWAP1 POP DUP2 DUP2 SUB PUSH0 DUP4 ADD MSTORE PUSH2 0x1B51 DUP2 PUSH2 0x1B18 JUMP JUMPDEST SWAP1 POP SWAP2 SWAP1 POP JUMP JUMPDEST PUSH32 0x57686974656C6973744D616E616765723A204164647265737320697320616C72 PUSH0 DUP3 ADD MSTORE PUSH32 0x656164792077686974656C697374656400000000000000000000000000000000 PUSH1 0x20 DUP3 ADD MSTORE POP JUMP JUMPDEST PUSH0 PUSH2 0x1BB2 PUSH1 0x30 DUP4 PUSH2 0x1197 JUMP JUMPDEST SWAP2 POP PUSH2 0x1BBD DUP3 PUSH2 0x1B58 JUMP JUMPDEST PUSH1 0x40 DUP3 ADD SWAP1 POP SWAP2 SWAP1 POP JUMP JUMPDEST PUSH0 PUSH1 0x20 DUP3 ADD SWAP1 POP DUP2 DUP2 SUB PUSH0 DUP4 ADD MSTORE PUSH2 0x1BDF DUP2 PUSH2 0x1BA6 JUMP JUMPDEST SWAP1 POP SWAP2 SWAP1 POP JUMP JUMPDEST PUSH32 0x4F776E61626C653A206E6577206F776E657220697320746865207A65726F2061 PUSH0 DUP3 ADD MSTORE PUSH32 0x6464726573730000000000000000000000000000000000000000000000000000 PUSH1 0x20 DUP3 ADD MSTORE POP JUMP JUMPDEST PUSH0 PUSH2 0x1C40 PUSH1 0x26 DUP4 PUSH2 0x1197 JUMP JUMPDEST SWAP2 POP PUSH2 0x1C4B DUP3 PUSH2 0x1BE6 JUMP JUMPDEST PUSH1 0x40 DUP3 ADD SWAP1 POP SWAP2 SWAP1 POP JUMP JUMPDEST PUSH0 PUSH1 0x20 DUP3 ADD SWAP1 POP DUP2 DUP2 SUB PUSH0 DUP4 ADD MSTORE PUSH2 0x1C6D DUP2 PUSH2 0x1C34 JUMP JUMPDEST SWAP1 POP SWAP2 SWAP1 POP JUMP INVALID LOG2 PUSH5 0x6970667358 0x22 SLT KECCAK256 SWAP1 0xA7 0xF7 DUP13 JUMPI 0xE0 0xAF SWAP6 TSTORE PUSH22 0x7D277EBBB635112C6CDE07419B252321DCDBF2488CEB PUSH5 0x736F6C6343 STOP ADDMOD BYTE STOP CALLER "
				},
				"gasEstimates": {
					"creation": {
						"codeDepositCost": "1467600",
						"executionCost": "34486",
						"totalCost": "1502086"
					},
					"external": {
						"addProduct(string,uint256)": "infinite",
						"addToWhitelist(address)": "30473",
						"getProductDetails(uint256)": "infinite",
						"isWhitelisted(address)": "2893",
						"owner()": "2505",
						"productCounter()": "2426",
						"products(uint256)": "infinite",
						"removeFromWhitelist(address)": "30458",
						"transferOwnership(address)": "30680",
						"transferProduct(uint256,address)": "29219"
					}
				},
				"methodIdentifiers": {
					"addProduct(string,uint256)": "b15247d9",
					"addToWhitelist(address)": "e43252d7",
					"getProductDetails(uint256)": "6813b53b",
					"isWhitelisted(address)": "3af32abf",
					"owner()": "8da5cb5b",
					"productCounter()": "1f16653b",
					"products(uint256)": "7acc0b20",
					"removeFromWhitelist(address)": "8ab1d681",
					"transferOwnership(address)": "f2fde38b",
					"transferProduct(uint256,address)": "e43059e5"
				}
			},
			"storageLayout": {
				"storage": [
					{
						"astId": 3,
						"contract": "contracts/ProductTracking.sol:ProductTracking",
						"label": "owner",
						"offset": 0,
						"slot": "0",
						"type": "t_address"
					},
					{
						"astId": 234,
						"contract": "contracts/ProductTracking.sol:ProductTracking",
						"label": "whitelistedAddresses",
						"offset": 0,
						"slot": "1",
						"type": "t_mapping(t_address,t_bool)"
					},
					{
						"astId": 89,
						"contract": "contracts/ProductTracking.sol:ProductTracking",
						"label": "products",
						"offset": 0,
						"slot": "2",
						"type": "t_mapping(t_uint256,t_struct(Product)84_storage)"
					},
					{
						"astId": 91,
						"contract": "contracts/ProductTracking.sol:ProductTracking",
						"label": "productCounter",
						"offset": 0,
						"slot": "3",
						"type": "t_uint256"
					}
				],
				"types": {
					"t_address": {
						"encoding": "inplace",
						"label": "address",
						"numberOfBytes": "20"
					},
					"t_bool": {
						"encoding": "inplace",
						"label": "bool",
						"numberOfBytes": "1"
					},
					"t_mapping(t_address,t_bool)": {
						"encoding": "mapping",
						"key": "t_address",
						"label": "mapping(address => bool)",
						"numberOfBytes": "32",
						"value": "t_bool"
					},
					"t_mapping(t_uint256,t_struct(Product)84_storage)": {
						"encoding": "mapping",
						"key": "t_uint256",
						"label": "mapping(uint256 => struct ProductTracking.Product)",
						"numberOfBytes": "32",
						"value": "t_struct(Product)84_storage"
					},
					"t_string_storage": {
						"encoding": "bytes",
						"label": "string",
						"numberOfBytes": "32"
					},
					"t_struct(Product)84_storage": {
						"encoding": "inplace",
						"label": "struct ProductTracking.Product",
						"members": [
							{
								"astId": 73,
								"contract": "contracts/ProductTracking.sol:ProductTracking",
								"label": "productId",
								"offset": 0,
								"slot": "0",
								"type": "t_uint256"
							},
							{
								"astId": 75,
								"contract": "contracts/ProductTracking.sol:ProductTracking",
								"label": "productName",
								"offset": 0,
								"slot": "1",
								"type": "t_string_storage"
							},
							{
								"astId": 77,
								"contract": "contracts/ProductTracking.sol:ProductTracking",
								"label": "lotId",
								"offset": 0,
								"slot": "2",
								"type": "t_uint256"
							},
							{
								"astId": 79,
								"contract": "contracts/ProductTracking.sol:ProductTracking",
								"label": "manufacturer",
								"offset": 0,
								"slot": "3",
								"type": "t_address"
							},
							{
								"astId": 81,
								"contract": "contracts/ProductTracking.sol:ProductTracking",
								"label": "currentOwner",
								"offset": 0,
								"slot": "4",
								"type": "t_address"
							},
							{
								"astId": 83,
								"contract": "contracts/ProductTracking.sol:ProductTracking",
								"label": "purchaseDate",
								"offset": 0,
								"slot": "5",
								"type": "t_uint256"
							}
						],
						"numberOfBytes": "192"
					},
					"t_uint256": {
						"encoding": "inplace",
						"label": "uint256",
						"numberOfBytes": "32"
					}
				}
			},
			"userdoc": {
				"kind": "user",
				"methods": {},
				"version": 1
			}
		}
	}
}